:020000020000FC
:100000000FEF0DBF00E10EBF65D20FEF07BB00E0A1
:1000100001BB86C2FF91EF91EE0FFF1FAF93BF931D
:10002000C8953196002021F04AF0002D13D0F8CF6A
:100030003196F695E795BF91AF91099400FA002D9E
:10004000C895A02DBB273196043879F0053881F08A
:1000500015C0E6CF2F93FF93EF93E42DF52D202FBE
:100060000995EF91FF912F9108950C91F3DFD8CF6F
:100070000D91002309F4D4CFEDDFFACF5F934F93B6
:100080003F932F939F938F937F936F932D913D91E8
:100090004D915D9106FD06C005FD0FC004FD10C029
:1000A00003FD19C06AE0702F76957770729580E035
:1000B000902F9295937093951AC062E094E003C0DC
:1000C00060E194E000C0702F7695777009F478E0D5
:1000D000729580E00CC06AE0C895802D3196C89575
:1000E000702D3196902F95959370939500C0943014
:1000F00081F0933051F0923021F0332716F427FD30
:100100003FEF442716F437FD4FEF552716F447FD10
:100110005FEF09D06F917F918F919F912F913F91C8
:100120004F915F917DCFCF92BF92AF929F928F926E
:10013000BB18AA249924882486F4E89455236AF4E9
:100140006894772309F0705150954095309520952B
:100150000FEF201B300B400B500B882351F05595AF
:10016000479537952795B794A794979487948A9540
:10017000B1F77F9372957F700EE20F9345D00C2DEF
:1001800030D00F930027201730074007500729F081
:100190007723A1F37A9591F707C0772329F07A9511
:1001A00019F000E257DFF9CF16F40DE253DF0F919B
:1001B0000E3211F04FDFFBCF7F917F70772359F024
:1001C00049DF282D392D4A2D5B2D11D00C2D09D05A
:1001D00041DF7A95D1F78F909F90AF90BF90CF90ED
:1001E00008950A3010F4005D0895095A0895CC244A
:1001F00000E2889420FDC60EC79457954795379521
:1002000027950A95B1F70895CC2400E2221F331FE9
:10021000441F551FCC1CC61A08F4C60E0A95B1F728
:10022000221F331F441F551F509540953095209530
:10023000089557454C434F4D4520544F20004D43A2
:100240005520504152545900312E20504C415920D4
:1002500047414D450000322E204F50454E2053411E
:100260004645000057656C636F6D6520746F000034
:10027000747269766961203A290074686520627534
:1002800074746F6E203A2900436F72726563742133
:10029000000046616C7365210000312E20545249E4
:1002A000564941205155495A0000322E204255549A
:1002B000544F4E2044414E434500454E5445522034
:1002C00050415353434F44450000494E434F52520F
:1002D0004543542050415353434F44450000434F3E
:1002E0004E47524154554C4154494F4E532C2000D7
:1002F000594F552057494E20544849532047414DA6
:10030000452021005448414E4B5320464F52000097
:10031000504C4159494E4721203A440057686F20BC
:1003200077726F74652074686500736F6E6720273D
:10033000746872696C6C6572273F0000412E204D15
:100340002E204A41434B534F4E00422E20545241DF
:10035000435920434841504D414E0000432E204117
:100360002E205343484D49440000442E2043484525
:100370005200FD0057686F20706C6179730048650A
:10038000726D696F6E653F00412E20454D4D4120D5
:10039000574154534F4E0000422E20454D4D4120B1
:1003A00053544F4E4500432E20414D592041444166
:1003B0004D530000442E205A4F452053414C444198
:1003C0004E410000FD0057686963682062616E64F9
:1003D0002077726F746500002768657920796F75E2
:1003E00027203F00412E2053504943452047495282
:1003F0004C530000422E204C4544205A4550504C4E
:10040000494E0000432E204A4F55524E4559000098
:10041000442E2050494E4B20464C4F594400EF008B
:1004200057686F2077726F746520274169720000EA
:100430006F6E204720737472696E67273F00412EEC
:1004400020504C4159424F492043415254490000E9
:10045000422E2042454554484F56454E0000432EFB
:1004600020534348554245525400442E204A2E53AF
:100470002E20424143480000EF003090008037FCBE
:10048000FCCF03D000930080089500D000000895B1
:100490002D3079F12A30B9F10091008007FDFCCFB1
:1004A000F4DF209300C0089501E0E7CF02E0E5CF3C
:1004B00000E1E3CF04E1E1CF08E1DFCF0CE1DDCFE4
:1004C0000DE0DBCF0CE0D9CF0EE0D7CF0CE0D5CFDD
:1004D0000FE0D3CF05B7006C05BF01E0CEDF06E02B
:1004E000CCDF0CE0CADF08E3C8DF0895022F006804
:1004F000C4CF0091008007FDFCCF00740068C5DF09
:100500000093008008952F9320E4F0DF2F91089549
:10051000C895002021F0202DBBDF3196F9CF08953A
:10052000C3DF0E946A02E2E3F2E00E948802EEE387
:10053000F2E020E40E9476020E94880200ED302E54
:1005400008E00F933F9200E3302E06E03A94F1F773
:100550003A940A95D9F73F900F913A9491F70A95FA
:1005600081F709D062FF97D361FF1BD061FF42D0B2
:1005700062FF6FD3F6CF0E946A02E8E4F2E00E94C5
:100580008802E6E5F2E020E40E9476020E948802FA
:1005900098D360B368BB6D3F11F06B3F09F40895C9
:1005A000EACF0E946A02EAE9F2E00E948802EAEADF
:1005B000F2E020E40E9476020E94880282D308EED4
:1005C000302E04E00F933F9200E3302E06E03A9481
:1005D000F1F73A940A95D9F73F900F913A9491F731
:1005E0000A9581F760B368BB6D3F11F06B3F09F46A
:1005F0000895D7CF0E946A02E4E6F2E00E948802E2
:10060000E0E7F2E020E40E9476020E94880259D3DB
:1006100000ED302E08E00F933F9200E3302E06E00D
:100620003A94F1F73A940A95D9F73F900F913A949A
:1006300091F70A9581F770E00E946A02ECE1F3E01D
:100640000E948802EAE2F3E020E40E9476020E941F
:10065000880200ED302E08E00F933F9200E3302E29
:1006600006E03A94F1F73A940A95D9F73F900F9142
:100670003A9491F70A9581F760B368BB64FF65C04F
:1006800063FF63C062FF61C061FF5FC00E946A02D6
:10069000ECE3F3E00E948802EAE4F3E020E40E9445
:1006A00076020E94880260B368BB64FF4EC063FF9D
:1006B0004CC062FF4AC061FF48C000ED302E08E028
:1006C0000F933F9200E3302E06E03A94F1F73A940C
:1006D0000A95D9F73F900F913A9491F70A9581F7CF
:1006E00060B368BB64FF31C063FF2FC062FF2DC0E1
:1006F00061FF2BC00E946A02ECE5F3E00E948802D1
:10070000EAE6F3E020E40E9476020E94880200ED0F
:10071000302E08E00F933F9200E3302E06E03A942B
:10072000F1F73A940A95D9F73F900F913A9491F7DF
:100730000A9581F760B368BB64FF07C063FF05C01B
:1007400062FF03C061FF01C077CFE2E7F3E0C89525
:10075000601509F468940EF47395A6DE0EF007C0D8
:100760000E946A02E8E8F2E00E94880206C00E9445
:100770006A02E2E9F2E00E948802551B442733270F
:100780002227272F08E4402E02E0502E43DC53633B
:100790006F72653A20C0120000ED302E08E00F9312
:1007A0003F9200E3302E06E03A94F1F73A940A952E
:1007B000D9F73F900F913A9491F70A9581F70E94EB
:1007C0006A02E4E7F3E00E948802EEE7F3E020E447
:1007D0000E9476020E94880200ED302E08E00F93FE
:1007E0003F9200E3302E06E03A94F1F73A940A95EE
:1007F000D9F73F900F913A9491F70A9581F760B33A
:1008000068BB64FF65C063FF63C062FF61C061FFD6
:100810005FC00E946A02E8E8F3E00E948802E8E90B
:10082000F3E020E40E9476020E94880260B368BB75
:1008300064FF4EC063FF4CC062FF4AC061FF48C006
:1008400000ED302E08E00F933F9200E3302E06E0DB
:100850003A94F1F73A940A95D9F73F900F913A9468
:1008600091F70A9581F760B368BB64FF31C063FFFD
:100870002FC062FF2DC061FF2BC00E946A02E6EA12
:10088000F3E00E948802E4EBF3E020E40E947602A9
:100890000E94880200ED302E08E00F933F9200E3A3
:1008A000302E06E03A94F1F73A940A95D9F73F9042
:1008B0000F913A9491F70A9581F760B368BB64FF92
:1008C00007C063FF05C062FF03C061FF01C077CFAF
:1008D000E4ECF3E0C895601509F468940EF47395A0
:1008E000E3DD0EF007C00E946A02E8E8F2E00E9431
:1008F000880206C00E946A02E2E9F2E00E948802D1
:10090000551B442733272227272F08E4402E02E0D7
:10091000502E80DB53636F72653A20C0120000EDE9
:10092000302E08E00F933F9200E3302E06E03A9419
:10093000F1F73A940A95D9F73F900F913A9491F7CD
:100940000A9581F70E946A02E6ECF3E00E948802B1
:10095000E8EDF3E020E40E9476020E94880200EDB8
:10096000302E08E00F933F9200E3302E06E03A94D9
:10097000F1F73A940A95D9F73F900F913A9491F78D
:100980000A9581F760B368BB64FF65C063FF63C00D
:1009900062FF61C061FF5FC00E946A02E4EEF3E0A3
:1009A0000E948802E4EFF3E020E40E9476020E94B5
:1009B000880260B368BB64FF4EC063FF4CC062FF37
:1009C0004AC061FF48C000ED302E08E00F933F920F
:1009D00000E3302E06E03A94F1F73A940A95D9F7FD
:1009E0003F900F913A9491F70A9581F760B368BBF5
:1009F00064FF31C063FF2FC062FF2DC061FF2BC0B9
:100A00000E946A02E4E0F4E00E948802E0E1F4E07F
:100A100020E40E9476020E94880200ED302E08E059
:100A20000F933F9200E3302E06E03A94F1F73A94A8
:100A30000A95D9F73F900F913A9491F70A9581F76B
:100A400060B368BB64FF07C063FF05C062FF03C0FB
:100A500061FF01C077CFEEE1F4E0C895601509F4BD
:100A600068940EF4739520DD0EF007C00E946A02B0
:100A7000E8E8F2E00E94880206C00E946A02E2E909
:100A8000F2E00E948802551B442733272227272F94
:100A900008E4402E02E0502EBDDA53636F72653ACF
:100AA00020C0120000ED302E08E00F933F9200E3CB
:100AB000302E06E03A94F1F73A940A95D9F73F9030
:100AC0000F913A9491F70A9581F70E946A02E0E249
:100AD000F4E00E948802E0E3F4E020E40E94760261
:100AE0000E94880200ED302E08E00F933F9200E351
:100AF000302E06E03A94F1F73A940A95D9F73F90F0
:100B00000F913A9491F70A9581F760B368BB64FF3F
:100B100065C063FF63C062FF61C061FF5FC00E9488
:100B20006A02EEE3F4E00E948802E0E5F4E020E4EB
:100B30000E9476020E94880260B368BB64FF4EC0C8
:100B400063FF4CC062FF4AC061FF48C000ED302E19
:100B500008E00F933F9200E3302E06E03A94F1F75D
:100B60003A940A95D9F73F900F913A9491F70A95E4
:100B700081F760B368BB64FF31C063FF2FC062FFC1
:100B80002DC061FF2BC00E946A02EEE5F4E00E94D6
:100B90008802EAE6F4E020E40E9476020E948802DD
:100BA00000ED302E08E00F933F9200E3302E06E078
:100BB0003A94F1F73A940A95D9F73F900F913A9405
:100BC00091F70A9581F760B368BB64FF07C063FFC4
:100BD00005C062FF03C061FF01C077CFE8E7F4E022
:100BE000C895601509F468940EF473955DDC0EF0F9
:100BF00007C00E946A02E8E8F2E00E94880206C08C
:100C00000E946A02E2E9F2E00E948802551B442732
:100C100033272227272F08E4402E02E0502EFAD94E
:100C200053636F72653A20C0120000ED302E08E069
:100C30000F933F9200E3302E06E03A94F1F73A9496
:100C40000A95D9F73F900F913A9491F70A9581F759
:100C5000D1CC0E946A02E4E6F2E00E948802EAE750
:100C6000F2E020E40E9476020E9488022AD000ED81
:100C7000302E08E00F933F9200E3302E06E03A94C6
:100C8000F1F73A940A95D9F73F900F913A9491F77A
:100C90000A9581F766CC0E946A02EAEBF2E00E94B4
:100CA000880200C00ED00E946A02E4E0F3E00E94D5
:100CB0008802E0E1F3E020E40E9476020E948802CC
:0A0CC000F1CF60B367FF9CC90895EF
:00000001FF
