:020000020000FC
:100000000C94FE040C940A000C940F000C94140041
:100010000C94190001E0102E01E0E02E0FC002E068
:10002000102E02E0E02E0AC004E0102E04E0E02EC4
:1000300005C008E0102E08E0E02E00C00FEF02BB64
:100040000EE1302E01E00F933F9200E3302E06E0E8
:100050003A94F1F73A940A95D9F73F900F913A9470
:1000600091F70A9581F70FE702BB0EE1302E01E010
:100070000F933F9200E3302E06E03A94F1F73A9462
:100080000A95D9F73F900F913A9491F70A9581F725
:1000900000B30E21002319F400E4202E8CC00EE1E1
:1000A000302E01E00F933F9200E3302E06E03A94A9
:1000B000F1F73A940A95D9F73F900F913A9491F756
:1000C0000A9581F70FEB02BB0EE1302E01E00F9392
:1000D0003F9200E3302E06E03A94F1F73A940A9505
:1000E000D9F73F900F913A9491F70A9581F700B3B1
:1000F0000E21002319F400E8202E5DC00EE1302E01
:1001000001E00F933F9200E3302E06E03A94F1F7BE
:100110003A940A95D9F73F900F913A9491F70A953E
:1001200081F70FED02BB0EE1302E01E00F933F92FD
:1001300000E3302E06E03A94F1F73A940A95D9F7A5
:100140003F900F913A9491F70A9581F700B30E21F1
:10015000002319F400E2202E2EC00EE1302E01E023
:100160000F933F9200E3302E06E03A94F1F73A9471
:100170000A95D9F73F900F913A9491F70A9581F734
:100180000FEE02BB0EE1302E01E00F933F9200E331
:10019000302E06E03A94F1F73A940A95D9F73F9059
:1001A0000F913A9491F70A9581F700B30E2100233D
:1001B00011F400E1202E1AE00FEFF02E25E561EE9C
:1001C0000E94DF040FE002BB189500EF01BB0FE0B7
:1001D00002BB0FEF07BB0FE009BF00E00ABF2224FC
:1001E0001124FF2433274427552777278827992769
:1001F00078940C94FB00FF20F1F3FF242227210DBB
:10020000220D6627822E21FD6C5F22FD685F23FD93
:10021000645F25FD6F5F26FD6E5F27FD6D5FE62F36
:10022000FF27EE53FD4FC895602D08953090008054
:1002300037FCFCCF03D000930080089500D000006D
:1002400008952D3079F12A30B9F10091008007FD31
:10025000FCCFF4DF209300C0089501E0E7CF02E077
:10026000E5CF00E1E3CF04E1E1CF08E1DFCF0CE12E
:10027000DDCF0DE0DBCF0CE0D9CF0EE0D7CF0CE027
:10028000D5CF0FE0D3CF05B7006C05BF01E0CEDFBF
:1002900006E0CCDF0CE0CADF08E3C8DF0895022FD8
:1002A0000068C4CF0091008007FDFCCF0074006897
:1002B000C5DF0093008008952F9320E4F0DF2F9195
:1002C00008953132334134353642373839432A3094
:1002D0002344000057454C434F4D4520544F2000C8
:1002E0004D435520504152545900412E20504C410D
:1002F000592047414D450000422E204F50454E2089
:1003000053414645000057656C636F6D6520746FFF
:100310000000747269766961203A2900746865206A
:10032000627574746F6E203A2900436F7272656350
:100330007421000046616C7365210000416E737783
:10034000657220352F313020636F2D007272656326
:10035000746C7920746F2077696E0000317374209B
:10036000636C75653A00534E4F57205748495445C2
:100370000000434F4E47524154554C4154494F4E53
:100380005300594F552057494E00594F55204C4F57
:1003900053452C0054525920414741494E00412EAB
:1003A00020545249564941205155495A0000422E85
:1003B00020425554544F4E2044414E434500454E33
:1003C0005445522050415353434F44450000494E39
:1003D000434F52524543542050415353434F444599
:1003E0000000434F4E47524154554C4154494F4EE3
:1003F000532C2000594F552057494E2054484953FB
:100400002047414D452021005448414E4B53204642
:100410004F520000504C4159494E4721203A440068
:1004200057686F2077726F74652074686500736F0A
:100430006E672027746872696C6C6572273F0000D4
:10044000412E20504C4159424F492043415254497A
:100450000000422E20545241435920434841504D00
:10046000414E0000432E20412E205343484D494425
:100470000000442E204D2E204A41434B534F4E0046
:10048000880057686F20706C617973004865726DE1
:10049000696F6E653F00412E20454D4D412057410B
:1004A00054534F4E0000422E20454D4D4120535491
:1004B0004F4E4500432E20504C4159424F49204356
:1004C000415254490000442E205A4F452053414C7C
:1004D00044414E41000081005768696368206261B1
:1004E0006E642077726F74650000276865792079E3
:1004F0006F7527203F00412E20504C4159424F49F3
:100500002043415254490000422E204C4544205A79
:100510004550504C494E0000432E204A4F55524EF4
:1005200045590000442E2050494E4B20464C4F590F
:100530004400880057686F2077726F7465202741E8
:10054000697200006F6E204720737472696E6727AE
:100550003F00412E20504C4159424F4920434152C7
:1005600054490000422E2042454554484F56454EBE
:100570000000432E20534348554245525400442E18
:10058000204A2E532E2042414348000088005768DD
:100590006F2074656163686573004D435520626523
:1005A00073743F00412E20504C4159424F49204323
:1005B000415254490000422E20412E205343484DC1
:1005C00049440000432E204D2E20414C4900442E2A
:1005D000204352203700820057686F20776F6E20CB
:1005E0007468652032303232000046494641205757
:1005F0006F726C64204375703F00412E20504C4157
:1006000059424F492043415254490000422E205341
:100610005749545A45524C414E440000432E204104
:100620005247454E54494E410000442E2046524107
:100630004E434500840057686963682064697368A5
:10064000206973006E6F742073776973733F0000C5
:10065000412E20504C4159424F4920434152544968
:100660000000422E205241434C4554544500432E35
:1006700020464F4E44554500442E20524F4553547A
:10068000490081005768617427732074686520638E
:100690006170692D000074616C206F66204C616F81
:1006A000733F0000412E204C414F5300422E2056F4
:1006B00049454E5449414E450000432E2056454E73
:1006C00049434500442E20504C4159424F49204354
:1006D00041525449000082005768617427732074A6
:1006E000686520626573740073656374696F6E205A
:1006F0006174204550464C3F0000412E204C494635
:100700004520534349454E4345530000422E204D5A
:100710004943524F544543480000432E20454C4521
:100720004300442E20504C4159424F4920434152EE
:1007300054490000840057686F2077726F746520F9
:1007400074686500736F6E672027736B79273F00AD
:10075000412E204B414E5945205745535400422EBF
:1007600020504C4159424F492043415254490000C6
:10077000432E20412E205343484D49440000442E2F
:10078000205441594C4F522053574946540082003F
:10079000C895002021F0202D54DD3196F9CF089521
:1007A000FF91EF91EE0FFF1FAF93BF93C895319666
:1007B000002021F04AF0002D13D0F8CF3196F695A5
:1007C000E795BF91AF91099400FA002DC895A02D2F
:1007D000BB273196043879F0053881F015C0E6CF93
:1007E0002F93FF93EF93E42DF52D202F0995EF9193
:1007F000FF912F9108950C91F3DFD8CF0D91002335
:1008000009F4D4CFEDDFFACF5F934F933F932F934B
:100810009F938F937F936F932D913D914D915D9118
:1008200006FD06C005FD0FC004FD10C003FD19C084
:100830006AE0702F76957770729580E0902F929590
:10084000937093951AC062E094E003C060E194E075
:1008500000C0702F7695777009F478E0729580E08B
:100860000CC06AE0C895802D3196C895702D3196E0
:10087000902F95959370939500C0943081F09330AC
:1008800051F0923021F0332716F427FD3FEF442733
:1008900016F437FD4FEF552716F447FD5FEF09D0EB
:1008A0006F917F918F919F912F913F914F915F9188
:1008B0007DCFCF92BF92AF929F928F92BB18AA2406
:1008C0009924882486F4E89455236AF4689477235D
:1008D00009F0705150954095309520950FEF201BF1
:1008E000300B400B500B882351F0559547953795A9
:1008F0002795B794A794979487948A95B1F77F9397
:1009000072957F700EE20F9345D00C2D30D00F936F
:100910000027201730074007500729F07723A1F35D
:100920007A9591F707C0772329F07A9519F000E2BC
:1009300057DFF9CF16F40DE253DF0F910E3211F0AD
:100940004FDFFBCF7F917F70772359F049DF282D50
:10095000392D4A2D5B2D11D00C2D09D041DF7A9510
:10096000D1F78F909F90AF90BF90CF9008950A30AD
:1009700010F4005D0895095A0895CC2400E288948B
:1009800020FDC60EC79457954795379527950A952C
:10099000B1F70895CC2400E2221F331F441F551FD6
:1009A000CC1CC61A08F4C60E0A95B1F7221F331FD5
:1009B000441F551F50954095309520950895762FEA
:1009C00066273327222371F0022F12D000000A95E8
:1009D000E1F71A9B02C01A9801C01A9A621B730BA6
:1009E00098F7089521E004D0621B730BE0F7089597
:1009F00000C000C000D000D0000008950FEF0DBF70
:100A000000E10EBF40DC0FEF07BB00E001BB129A14
:100A10000C940A050E942D010E944301E4EDF2E0CE
:100A20000E94C803E0EEF2E020E40E944F010E9421
:100A3000C8032CE46BE40E94DF040CE3302E01E0D9
:100A40000F933F9200E3302E06E03A94F1F73A9488
:100A50000A95D9F73F900F913A9491F70A9581F74B
:100A60002CE46BE40E94DF040AE5302E01E00F93D2
:100A70003F9200E3302E06E03A94F1F73A940A955B
:100A8000D9F73F900F913A9491F70A9581F72CE4AA
:100A90006BE40E94DF040CE3302E01E00F933F92E1
:100AA00000E3302E06E03A94F1F73A940A95D9F72C
:100AB0003F900F913A9491F70A9581F720E666E40A
:100AC0000E94DF040CE3302E01E00F933F9200E31D
:100AD000302E06E03A94F1F73A940A95D9F73F9010
:100AE0000F913A9491F70A9581F72CE46BE40E94F8
:100AF000DF040CE3302E01E00F933F9200E3302E31
:100B000006E03A94F1F73A940A95D9F73F900F919D
:100B10003A9491F70A9581F720E46BE40E94DF0490
:100B20000CE2302E02E00F933F9200E3302E06E0FD
:100B30003A94F1F73A940A95D9F73F900F913A9485
:100B400091F70A9581F720E86BE40E94DF0406E93B
:100B5000302E01E00F933F9200E3302E06E03A94EE
:100B6000F1F73A940A95D9F73F900F913A9491F79B
:100B70000A9581F720E66BE40E94DF0404E6302E3C
:100B800001E00F933F9200E3302E06E03A94F1F734
:100B90003A940A95D9F73F900F913A9491F70A95B4
:100BA00081F720E86BE40E94DF0404E6302E01E0C8
:100BB0000F933F9200E3302E06E03A94F1F73A9417
:100BC0000A95D9F73F900F913A9491F70A9581F7DA
:100BD00029E96BE40E94DF0404E6302E01E00F9364
:100BE0003F9200E3302E06E03A94F1F73A940A95EA
:100BF000D9F73F900F913A9491F70A9581F722E740
:100C00006BE40E94DF040CE3302E01E00F933F926F
:100C100000E3302E06E03A94F1F73A940A95D9F7BA
:100C20003F900F913A9491F70A9581F726E66BE48D
:100C30000E94DF040CE3302E01E00F933F9200E3AB
:100C4000302E06E03A94F1F73A940A95D9F73F909E
:100C50000F913A9491F70A9581F722E76BE40E948D
:100C6000DF040CE3302E01E00F933F9200E3302EBF
:100C700006E03A94F1F73A940A95D9F73F900F912C
:100C80003A9491F70A9581F720E86BE40E94DF041B
:100C900002E3302E01E00F933F9200E3302E06E096
:100CA0003A94F1F73A940A95D9F73F900F913A9414
:100CB00091F70A9581F720E66BE40E94DF0402E3D6
:100CC000302E01E00F933F9200E3302E06E03A947D
:100CD000F1F73A940A95D9F73F900F913A9491F72A
:100CE0000A9581F72CE46BE40E94DF0402E3302EC6
:100CF00001E00F933F9200E3302E06E03A94F1F7C3
:100D00003A940A95D9F73F900F913A9491F70A9542
:100D100081F720E46BE40E94DF0402E3302E01E05F
:100D20000F933F9200E3302E06E03A94F1F73A94A5
:100D30000A95D9F73F900F913A9491F70A9581F768
:100D400029E36BE40E94DF0400E5302E01E00F93FD
:100D50003F9200E3302E06E03A94F1F73A940A9578
:100D6000D9F73F900F913A9491F70A9581F728E4CB
:100D70006BE40E94DF0402E3302E01E00F933F9208
:100D800000E3302E06E03A94F1F73A940A95D9F749
:100D90003F900F913A9491F70A9581F720E46BE424
:100DA0000E94DF040CE3302E01E00F933F9200E33A
:100DB000302E06E03A94F1F73A940A95D9F73F902D
:100DC0000F913A9491F70A9581F72CE46BE40E9415
:100DD000DF0404E6302E01E00F933F9200E3302E53
:100DE00006E03A94F1F73A940A95D9F73F900F91BB
:100DF0003A9491F70A9581F725E56BE40E94DF04A8
:100E000004E6302E01E00F933F9200E3302E06E01F
:100E10003A94F1F73A940A95D9F73F900F913A94A2
:100E200091F70A9581F720E46BE40E94DF0404E166
:100E3000302E01E00F933F9200E3302E06E03A940B
:100E4000F1F73A940A95D9F73F900F913A9491F7B8
:100E50000A9581F724E46BE40E94DF0404E1302E5C
:100E600001E00F933F9200E3302E06E03A94F1F751
:100E70003A940A95D9F73F900F913A9491F70A95D1
:100E800081F728E46BE40E94DF0404E1302E01E0E6
:100E90000F933F9200E3302E06E03A94F1F73A9434
:100EA0000A95D9F73F900F913A9491F70A9581F7F7
:100EB0002CE46BE40E94DF0400E5302E01E00F9388
:100EC0003F9200E3302E06E03A94F1F73A940A9507
:100ED000D9F73F900F913A9491F70A9581F722E75D
:100EE0006BE40E94DF040CE3302E01E00F933F928D
:100EF00000E3302E06E03A94F1F73A940A95D9F7D8
:100F00003F900F913A9491F70A9581F720E66BE4B0
:100F10000E94DF040CE3302E01E00F933F9200E3C8
:100F2000302E06E03A94F1F73A940A95D9F73F90BB
:100F30000F913A9491F70A9581F725E56BE40E94A9
:100F4000DF0406E9302E01E00F933F9200E3302EDC
:100F500006E03A94F1F73A940A95D9F73F900F9149
:100F60003A9491F70A9581F721E56BE40E94DF043A
:100F700006E9302E01E00F933F9200E3302E06E0A9
:100F80003A94F1F73A940A95D9F73F900F913A9431
:100F900091F70A9581F725E56BE40E94DF0406E9E5
:100FA000302E01E00F933F9200E3302E06E03A949A
:100FB000F1F73A940A95D9F73F900F913A9491F747
:100FC0000A9581F720E66BE40E94DF0404E6302EE8
:100FD00001E00F933F9200E3302E06E03A94F1F7E0
:100FE0003A940A95D9F73F900F913A9491F70A9560
:100FF00081F720E36BE40E94DF0400E5302E01E07E
:101000000F933F9200E3302E06E03A94F1F73A94C2
:101010000A95D9F73F900F913A9491F70A9581F785
:1010200020E36BE40E94DF0402E3302E01E00F9323
:101030003F9200E3302E06E03A94F1F73A940A9595
:10104000D9F73F900F913A9491F70A9581F720E3F1
:101050006BE40E94DF0402E3302E01E00F933F9225
:1010600000E3302E06E03A94F1F73A940A95D9F766
:101070003F900F913A9491F70A9581F70ED061FD58
:101080000E94660860FD0E946E0860FD0E9487084D
:1010900061FD0E94670F0C943E080E944301EAEE36
:1010A000F2E00E94C803E8EFF2E020E40E944F0162
:1010B0000E94C8030E94E5000E94AB0F622F6138B6
:1010C00011F0623809F408950C944D080E94430110
:1010D000EEEBF3E00E94C8030C94890F0E944301D9
:1010E000EEE9F3E00E94C803EEEAF3E020E40E9498
:1010F0004F010E94C8030E94E5000E94AB0F622FBF
:10110000613811F0623809F408950C946E080E9459
:101110004301E6E0F3E00E94C803E2E1F3E020E4EB
:101120000E944F010E94C80300ED302E08E00F938B
:101130003F9200E3302E06E03A94F1F73A940A9594
:10114000D9F73F900F913A9491F70A9581F70E9451
:101150004301ECE3F3E00E94C803ECE4F3E020E495
:101160000E944F010E94C80300ED302E08E00F934B
:101170003F9200E3302E06E03A94F1F73A940A9554
:10118000D9F73F900F913A9491F70A9581F700E0D3
:10119000902E0E944301E0E2F4E00E94C803EEE2D8
:1011A000F4E020E40E944F010E94C8030E94E50081
:1011B0000E94AB0F622F207809F00C941309683459
:1011C00041F70E944301E0E4F4E00E94C803E2E535
:1011D000F4E020E40E944F010E94C8030E94E50051
:1011E0000E94AB0F622F207809F00C941309683429
:1011F00041F70E944301E4E6F4E00E94C803E2E7FD
:10120000F4E020E40E944F010E94C8030E94E50020
:101210000E94AB0F622F207809F00C9413096834F8
:1012200041F70C94C908E0E8F4E0C895601509F4AA
:1012300068940EF493940E942D010EF00C942809EA
:101240000E944301EAE2F3E00E94C8030C942E09D5
:101250000E944301E4E3F3E00E94C803551B4427C6
:1012600033272227292D01E2402E01E0502E0E9433
:10127000D00353636F72653AC012000000ED302E48
:1012800008E00F933F9200E3302E06E03A94F1F726
:101290003A940A95D9F73F900F913A9491F70A95AD
:1012A00081F70E944301E2E8F4E00E94C803ECE801
:1012B000F4E020E40E944F010E94C8030E94E50070
:1012C0000E94AB0F622F207809F00C949B096834C0
:1012D00041F70E944301E6E9F4E00E94C803E6EA10
:1012E000F4E020E40E944F010E94C8030E94E50040
:1012F0000E94AB0F622F207809F00C949B09683490
:1013000041F70E944301E4EBF4E00E94C803E6ECDD
:10131000F4E020E40E944F010E94C8030E94E5000F
:101320000E94AB0F622F207809F00C949B0968345F
:1013300041F70C945109E6EDF4E0C895601509F405
:1013400068940EF493940E942D010EF00C94B00951
:101350000E944301EAE2F3E00E94C8030C94B6093C
:101360000E944301E4E3F3E00E94C803551B4427B5
:1013700033272227292D01E2402E01E0502E0E9422
:10138000D00353636F72653AC012000000ED302E37
:1013900008E00F933F9200E3302E06E03A94F1F715
:1013A0003A940A95D9F73F900F913A9491F70A959C
:1013B00081F70E944301E8EDF4E00E94C803EAEEE1
:1013C000F4E020E40E944F010E94C8030E94E5005F
:1013D0000E94AB0F622F207809F00C94230A683426
:1013E00041F70E944301E6EFF4E00E94C803E8E001
:1013F000F5E020E40E944F010E94C8030E94E5002E
:101400000E94AB0F622F207809F00C94230A6834F5
:1014100041F70E944301E8E1F5E00E94C803E4E2DD
:10142000F5E020E40E944F010E94C8030E94E500FD
:101430000E94AB0F622F207809F00C94230A6834C5
:1014400041F70C94D909E2E3F5E0C895601509F479
:1014500068940EF493940E942D010EF00C94380AB7
:101460000E944301EAE2F3E00E94C8030C943E0AA2
:101470000E944301E4E3F3E00E94C803551B4427A4
:1014800033272227292D01E2402E01E0502E0E9411
:10149000D00353636F72653AC012000000ED302E26
:1014A00008E00F933F9200E3302E06E03A94F1F704
:1014B0003A940A95D9F73F900F913A9491F70A958B
:1014C00081F70E944301E4E3F5E00E94C803E4E4ED
:1014D000F5E020E40E944F010E94C8030E94E5004D
:1014E0000E94AB0F622F207809F00C94AB0A68348D
:1014F00041F70E944301E2E5F5E00E94C803E4E6FB
:10150000F5E020E40E944F010E94C8030E94E5001C
:101510000E94AB0F622F207809F00C94AB0A68345C
:1015200041F70E944301E2E7F5E00E94C803EEE7BD
:10153000F5E020E40E944F010E94C8030E94E500EC
:101540000E94AB0F622F207809F00C94AB0A68342C
:1015500041F70C94610AECE8F5E0C895601509F4D0
:1015600068940EF493940E942D010EF00C94C00A1E
:101570000E944301EAE2F3E00E94C8030C94C60A09
:101580000E944301E4E3F3E00E94C803551B442793
:1015900033272227292D01E2402E01E0502E0E9400
:1015A000D00353636F72653AC012000000ED302E15
:1015B00008E00F933F9200E3302E06E03A94F1F7F3
:1015C0003A940A95D9F73F900F913A9491F70A957A
:1015D00081F70E944301EEE8F5E00E94C803EAE9C2
:1015E000F5E020E40E944F010E94C8030E94E5003C
:1015F0000E94AB0F622F207809F00C94330B6834F3
:1016000041F70E944301E4EAF5E00E94C803E6EBDB
:10161000F5E020E40E944F010E94C8030E94E5000B
:101620000E94AB0F622F207809F00C94330B6834C2
:1016300041F70E944301E4ECF5E00E94C803EEECA0
:10164000F5E020E40E944F010E94C8030E94E500DB
:101650000E94AB0F622F207809F00C94330B683492
:1016600041F70C94E90AE6EDF5E0C895601509F438
:1016700068940EF493940E942D010EF00C94480B84
:101680000E944301EAE2F3E00E94C8030C944E0B6F
:101690000E944301E4E3F3E00E94C803551B442782
:1016A00033272227292D01E2402E01E0502E0E94EF
:1016B000D00353636F72653AC012000000ED302E04
:1016C00008E00F933F9200E3302E06E03A94F1F7E2
:1016D0003A940A95D9F73F900F913A9491F70A9569
:1016E00081F70E944301E8EDF5E00E94C803EAEEAD
:1016F000F5E020E40E944F010E94C8030E94E5002B
:101700000E94AB0F622F207809F00C94BB0B683459
:1017100041F70E944301EAEFF5E00E94C803ECE0C4
:10172000F6E020E40E944F010E94C8030E94E500F9
:101730000E94AB0F622F207809F00C94BB0B683429
:1017400041F70E944301ECE1F6E00E94C803EAE29F
:10175000F6E020E40E944F010E94C8030E94E500C9
:101760000E94AB0F622F207809F00C94BB0B6834F9
:1017700041F70C94710BE4E3F6E0C895601509F4A9
:1017800068940EF493940E942D010EF00C94D00BEB
:101790000E944301EAE2F3E00E94C8030C94D60BD6
:1017A0000E944301E4E3F3E00E94C803551B442771
:1017B00033272227292D01E2402E01E0502E0E94DE
:1017C000D00353636F72653AC012000000ED302EF3
:1017D00008E00F933F9200E3302E06E03A94F1F7D1
:1017E0003A940A95D9F73F900F913A9491F70A9558
:1017F00081F70E944301E6E3F6E00E94C803E4E4B7
:10180000F6E020E40E944F010E94C8030E94E50018
:101810000E94AB0F622F207809F00C94430C6834BF
:1018200041F70E944301E0E5F6E00E94C803E2E6CA
:10183000F6E020E40E944F010E94C8030E94E500E8
:101840000E94AB0F622F207809F00C94430C68348F
:1018500041F70E944301EEE6F6E00E94C803E8E784
:10186000F6E020E40E944F010E94C8030E94E500B8
:101870000E94AB0F622F207809F00C94430C68345F
:1018800041F70C94F90BE2E8F6E0C895601509F40D
:1018900068940EF493940E942D010EF00C94580C51
:1018A0000E944301EAE2F3E00E94C8030C945E0C3C
:1018B0000E944301E4E3F3E00E94C803551B442760
:1018C00033272227292D01E2402E01E0502E0E94CD
:1018D000D00353636F72653AC012000000ED302EE2
:1018E00008E00F933F9200E3302E06E03A94F1F7C0
:1018F0003A940A95D9F73F900F913A9491F70A9547
:1019000081F70E944301E4E8F6E00E94C803E6E99B
:10191000F6E020E40E944F010E94C8030E94E50007
:101920000E94AB0F622F207809F00C94CB0C683426
:1019300041F70E944301E4EAF6E00E94C803ECEAA2
:10194000F6E020E40E944F010E94C8030E94E500D7
:101950000E94AB0F622F207809F00C94CB0C6834F6
:1019600041F70E944301EAEBF6E00E94C803E4EC71
:10197000F6E020E40E944F010E94C8030E94E500A7
:101980000E94AB0F622F207809F00C94CB0C6834C6
:1019900041F70C94810CE6EDF6E0C895601509F46A
:1019A00068940EF493940E942D010EF00C94E00CB8
:1019B0000E944301EAE2F3E00E94C8030C94E60CA3
:1019C0000E944301E4E3F3E00E94C803551B44274F
:1019D00033272227292D01E2402E01E0502E0E94BC
:1019E000D00353636F72653AC012000000ED302ED1
:1019F00008E00F933F9200E3302E06E03A94F1F7AF
:101A00003A940A95D9F73F900F913A9491F70A9535
:101A100081F70E944301E8EDF6E00E94C803E8EE7A
:101A2000F6E020E40E944F010E94C8030E94E500F6
:101A30000E94AB0F622F207809F00C94530D68348C
:101A400041F70E944301EAEFF6E00E94C803ECE090
:101A5000F7E020E40E944F010E94C8030E94E500C5
:101A60000E94AB0F622F207809F00C94530D68345C
:101A700041F70E944301EAE1F7E00E94C803E2E275
:101A8000F7E020E40E944F010E94C8030E94E50095
:101A90000E94AB0F622F207809F00C94530D68342C
:101AA00041F70C94090DE4E3F7E0C895601509F4DB
:101AB00068940EF493940E942D010EF00C94680D1E
:101AC0000E944301EAE2F3E00E94C8030C946E0D09
:101AD0000E944301E4E3F3E00E94C803551B44273E
:101AE00033272227292D01E2402E01E0502E0E94AB
:101AF000D00353636F72653AC012000000ED302EC0
:101B000008E00F933F9200E3302E06E03A94F1F79D
:101B10003A940A95D9F73F900F913A9491F70A9524
:101B200081F70E944301E6E3F7E00E94C803E4E482
:101B3000F7E020E40E944F010E94C8030E94E500E4
:101B40000E94AB0F622F207809F00C94DB0D6834F3
:101B500041F70E944301E0E5F7E00E94C803EEE58B
:101B6000F7E020E40E944F010E94C8030E94E500B4
:101B70000E94AB0F622F207809F00C94DB0D6834C3
:101B800041F70E944301E0E7F7E00E94C803EEE757
:101B9000F7E020E40E944F010E94C8030E94E50084
:101BA0000E94AB0F622F207809F00C94DB0D683493
:101BB00041F70C94910DEEE8F7E0C895601509F433
:101BC00068940EF493940E942D010EF00C94F00D85
:101BD0000E944301EAE2F3E00E94C8030C94F60D70
:101BE0000E944301E4E3F3E00E94C803551B44272D
:101BF00033272227292D01E2402E01E0502E0E949A
:101C0000D00353636F72653AC012000000ED302EAE
:101C100008E00F933F9200E3302E06E03A94F1F78C
:101C20003A940A95D9F73F900F913A9491F70A9513
:101C300081F705E0901610F40C94A90E0E94430160
:101C4000E2E7F3E00E94C803E2E8F3E020E40E9448
:101C50004F010E94C80320E660E50E94DF0420E8EF
:101C60006CE30E94DF0420E660E50E94DF042CE4C0
:101C70006CE30E94DF0420E46CE30E94DF0420E3B5
:101C80006CE30E94DF0426E26AEA0E94DF0420E39C
:101C90006AEA0E94DF042BE560E50E94DF0429E781
:101CA0006CE30E94DF042BE560E50E94DF0428E47A
:101CB0006CE30E94DF042EE16CE30E94DF042DE25E
:101CC0006CE30E94DF0424E26AEA0E94DF042DE252
:101CD0006AEA0E94DF0421E560E50E94DF042CE649
:101CE0006CE30E94DF0421E560E50E94DF0420E44C
:101CF0006CE30E94DF0426E36CE30E94DF0428E229
:101D00006AEA0E94DF0424E268EC0E94DF040E9479
:101D10004301ECE5F3E00E94C803E6E6F3E020E4CB
:101D20000E944F010E94C80300EA302E00E10F9389
:101D30003F9200E3302E06E03A94F1F73A940A9588
:101D4000D9F73F900F913A9491F70A9581F70C9447
:101D50003E080E944301EAE8F3E00E94C803E4E978
:101D6000F3E020E40E944F010E94C80323E360E5F2
:101D70000E94DF040CE3302E01E00F933F9200E35A
:101D8000302E06E03A94F1F73A940A95D9F73F904D
:101D90000F913A9491F70A9581F724E26AE50E943F
:101DA000DF040CE3302E01E00F933F9200E3302E6E
:101DB00006E03A94F1F73A940A95D9F73F900F91DB
:101DC0003A9491F70A9581F724E266E40E94DF04D1
:101DD0000CE3302E01E00F933F9200E3302E06E03B
:101DE0003A94F1F73A940A95D9F73F900F913A94C3
:101DF00091F70A9581F724E266E40E94DF040CE380
:101E0000302E01E00F933F9200E3302E06E03A942B
:101E1000F1F73A940A95D9F73F900F913A9491F7D8
:101E20000A9581F724E266E40E94DF0426E266E474
:101E30000E94DF042AE266E40E94DF0420E36CE8EB
:101E40000E94DF040CEB302E03E00F933F9200E37F
:101E5000302E06E03A94F1F73A940A95D9F73F907C
:101E60000F913A9491F70A9581F720E364E60E9476
:101E7000DF0420E464E60E94DF042CE464E60E94B0
:101E8000DF0426E364E60E94DF0420E364E60E94A8
:101E9000DF0426E364E60E94DF042CE364E60E948C
:101EA000DF0426E364E60E94DF042CE364E60E947C
:101EB000DF0420E460E50E94DF0428E46CE30E9474
:101EC000DF0420E466E90E94DF040C943E080E94CF
:101ED0004301E6E0F3E00E94C803ECE1F3E020E414
:101EE0000E944F010E94C80300ED302E08E00F93BE
:101EF0003F9200E3302E06E03A94F1F73A940A95C7
:101F0000D9F73F900F913A9491F70A9581F70C9485
:101F10003E080E944301E8E0F4E00E94C803E4E1C7
:101F2000F4E020E40E944F010E94C80300ED302E2F
:101F300008E00F933F9200E3302E06E03A94F1F769
:101F40003A940A95D9F73F900F913A9491F70A95F0
:101F500081F70C94FE0408E1801609F40C94FE0449
:021F60000895E2
:00000001FF
