:020000020000FC
:100000000C9445060C9422000C9427000C942C00B0
:040010000C9431001B
:100040000C94100101E0102E01E0E02E0FC002E040
:10005000102E02E0E02E0AC004E0102E04E0E02E94
:1000600005C008E0102E08E0E02E00C00FEF02BB34
:100070000EE1302E01E00F933F9200E3302E06E0B8
:100080003A94F1F73A940A95D9F73F900F913A9440
:1000900091F70A9581F70FE702BB0EE1302E01E0E0
:1000A0000F933F9200E3302E06E03A94F1F73A9432
:1000B0000A95D9F73F900F913A9491F70A9581F7F5
:1000C00000B30E21002319F400E4202E8CC00EE1B1
:1000D000302E01E00F933F9200E3302E06E03A9479
:1000E000F1F73A940A95D9F73F900F913A9491F726
:1000F0000A9581F70FEB02BB0EE1302E01E00F9362
:100100003F9200E3302E06E03A94F1F73A940A95D4
:10011000D9F73F900F913A9491F70A9581F700B380
:100120000E21002319F400E8202E5DC00EE1302ED0
:1001300001E00F933F9200E3302E06E03A94F1F78E
:100140003A940A95D9F73F900F913A9491F70A950E
:1001500081F70FED02BB0EE1302E01E00F933F92CD
:1001600000E3302E06E03A94F1F73A940A95D9F775
:100170003F900F913A9491F70A9581F700B30E21C1
:10018000002319F400E2202E2EC00EE1302E01E0F3
:100190000F933F9200E3302E06E03A94F1F73A9441
:1001A0000A95D9F73F900F913A9491F70A9581F704
:1001B0000FEE02BB0EE1302E01E00F933F9200E301
:1001C000302E06E03A94F1F73A940A95D9F73F9029
:1001D0000F913A9491F70A9581F700B30E2100230D
:1001E00011F400E1202E1AE00FEFF02E25E56EE16C
:1001F0000E946E0508EC302E01E00F933F9200E361
:10020000302E06E03A94F1F73A940A95D9F73F90E8
:100210000F913A9491F70A9581F70FE002BB189578
:1002200000E003BF189500EF01BB0FE002BB0FEF2A
:1002300007BB0FE009BF00E00ABF22241124FF24FE
:1002400033274427552777278827992778940C94B4
:100250002901FF20F1F3FF242227210D220D66271B
:10026000822E21FD6C5F22FD685F23FD645F25FD0A
:100270006F5F26FD6E5F27FD6D5FE62FFF27E25E55
:10028000FC4FC895602D08953090008037FCFCCF5E
:1002900003D000930080089500D0000008952D3011
:1002A00079F12A30B9F10091008007FDFCCFF4DF2D
:1002B000209300C0089501E0E7CF02E0E5CF00E120
:1002C000E3CF04E1E1CF08E1DFCF0CE1DDCF0DE0CA
:1002D000DBCF0CE0D9CF0EE0D7CF0CE0D5CF0FE0CD
:1002E000D3CF05B7006C05BF01E0CEDF06E0CCDF61
:1002F0000CE0CADF08E3C8DF0895022F0068C4CF0E
:100300000091008007FDFCCF00740068C5DF0093FA
:10031000008008952F9320E4F0DF2F91089531326B
:10032000334134353642373839432A3023440000CC
:1003300057454C434F4D4520544F20004D435520C9
:10034000504152545900412E20504C4159204741B0
:100350004D450000422E204F50454E20534146450A
:10036000000057656C636F6D6520746F207468655D
:1003700000007472697669612067616D65203A29B1
:100380000000626F617264206973206C6176612085
:100390003A2900006B65797061642064616E636561
:1003A000203A2900436F7272656374210000466130
:1003B0006C7365210000416E7377657220352F31B3
:1003C0003020636F2D0072726563746C7920746FD6
:1003D0002077696E000057696E20322F3320746FCA
:1003E0002077696E000031737420636C75653A0084
:1003F000534E4F572057484954450000326E6420F1
:10040000636C75653A004F6C796D70696320726931
:100410006E677300434F4E47524154554C41544907
:100420004F4E5300594F552057494E00594F5520B4
:100430004C4F53452C0054525920414741494E00DE
:10044000412E20545249564941205155495A0000E5
:10045000422E204C41564120424F41524400432EEF
:10046000204B45595041442044414E434500454EA0
:100470005445522050415353434F44450000494E88
:10048000434F52524543542050415353434F4445E8
:100490000000434F4E47524154554C4154494F4E32
:1004A000532C2000594F552057494E20544849534A
:1004B0002047414D452021005448414E4B53204692
:1004C0004F520000504C4159494E4721203A4400B8
:1004D00057686F2077726F74652074686500736F5A
:1004E0006E672027746872696C6C6572273F000024
:1004F000412E20504C4159424F49204341525449CA
:100500000000422E20545241435920434841504D4F
:10051000414E0000432E20412E205343484D494474
:100520000000442E204D2E204A41434B534F4E0095
:10053000880057686F20706C617973004865726D30
:10054000696F6E653F00412E20454D4D412057415A
:1005500054534F4E0000422E20454D4D41205354E0
:100560004F4E4500432E20504C4159424F492043A5
:10057000415254490000442E205A4F452053414CCB
:1005800044414E4100008100576869636820626100
:100590006E642077726F7465000027686579207932
:1005A0006F7527203F00412E20504C4159424F4942
:1005B0002043415254490000422E204C4544205AC9
:1005C0004550504C494E0000432E204A4F55524E44
:1005D00045590000442E2050494E4B20464C4F595F
:1005E0004400880057686F2077726F746520274138
:1005F000697200006F6E204720737472696E6727FE
:100600003F00412E20504C4159424F492043415216
:1006100054490000422E2042454554484F56454E0D
:100620000000432E20534348554245525400442E67
:10063000204A2E532E20424143480000880057682C
:100640006F2074656163686573004D435520626572
:1006500073743F00412E20504C4159424F49204372
:10066000415254490000422E20412E205343484D10
:1006700049440000432E204D2E20414C4900442E79
:10068000204352203700820057686F20776F6E201A
:1006900074686520323032320000464946412057A6
:1006A0006F726C64204375703F00412E20504C41A6
:1006B00059424F492043415254490000422E205391
:1006C0005749545A45524C414E440000432E204154
:1006D0005247454E54494E410000442E2046524157
:1006E0004E434500840057686963682064697368F5
:1006F000206973006E6F742073776973733F000015
:10070000412E20504C4159424F49204341525449B7
:100710000000422E205241434C4554544500432E84
:1007200020464F4E44554500442E20524F455354C9
:1007300049008100576861742773207468652063DD
:100740006170692D000074616C206F66204C616FD0
:10075000733F0000412E204C414F5300422E205643
:1007600049454E5449414E450000432E2056454EC2
:1007700049434500442E20504C4159424F492043A3
:1007800041525449000082005768617427732074F5
:10079000686520626573740073656374696F6E20A9
:1007A0006174204550464C3F0000412E204C494684
:1007B0004520534349454E4345530000422E204DAA
:1007C0004943524F544543480000432E20454C4571
:1007D0004300442E20504C4159424F49204341523E
:1007E00054490000840057686F2077726F74652049
:1007F00074686500736F6E672027736B79273F00FD
:10080000412E204B414E5945205745535400422E0E
:1008100020504C4159424F49204341525449000015
:10082000432E20412E205343484D49440000442E7E
:10083000205441594C4F522053574946540082008E
:1008400041646420302E354320696E2038730000E7
:1008500041646420302E352D314320696E20387379
:10086000000041646420314320696E203873000029
:10087000594F552057494E210000434F4E47524192
:1008800054554C4154494F4E53210000497427732D
:1008900020667265657A696E672100003220686F94
:1008A0007420746F2068616E646C65210000C895C7
:1008B000002021F0202DF3DC3196F9CF0895FF912F
:1008C000EF91EE0FFF1FAF93BF93C89531960020B5
:1008D00021F04AF0002D13D0F8CF3196F695E79528
:1008E000BF91AF91099400FA002DC895A02DBB27A8
:1008F0003196043879F0053881F015C0E6CF2F9392
:10090000FF93EF93E42DF52D202F0995EF91FF91A3
:100910002F9108950C91F3DFD8CF0D91002309F4A6
:10092000D4CFEDDFFACF5F934F933F932F939F93F5
:100930008F937F936F932D913D914D915D9106FD26
:1009400006C005FD0FC004FD10C003FD19C06AE01C
:10095000702F76957770729580E0902F92959370B6
:1009600093951AC062E094E003C060E194E000C097
:10097000702F7695777009F478E0729580E00CC05E
:100980006AE0C895802D3196C895702D3196902FCC
:1009900095959370939500C0943081F0933051F009
:1009A000923021F0332716F427FD3FEF442716F449
:1009B00037FD4FEF552716F447FD5FEF09D06F91D4
:1009C0007F918F919F912F913F914F915F917DCF1B
:1009D000CF92BF92AF929F928F92BB18AA24992474
:1009E000882486F4E89455236AF46894772309F000
:1009F000705150954095309520950FEF201B300B8E
:100A0000400B500B882351F0559547953795279506
:100A1000B794A794979487948A95B1F77F9372952A
:100A20007F700EE20F9345D00C2D30D00F9300272E
:100A3000201730074007500729F07723A1F37A9554
:100A400091F707C0772329F07A9519F000E257DF74
:100A5000F9CF16F40DE253DF0F910E3211F04FDF94
:100A6000FBCF7F917F70772359F049DF282D392DF7
:100A70004A2D5B2D11D00C2D09D041DF7A95D1F78D
:100A80008F909F90AF90BF90CF9008950A3010F450
:100A9000005D0895095A0895CC2400E2889420FD51
:100AA000C60EC79457954795379527950A95B1F780
:100AB0000895CC2400E2221F331F441F551FCC1C75
:100AC000C61A08F4C60E0A95B1F7221F331F441F39
:100AD000551F50954095309520950895762F66279F
:100AE0003327222371F0022F12D000000A95E1F77C
:100AF0001A9B02C01A9801C01A9A621B730B98F7CE
:100B0000089521E004D0621B730BE0F7089500C044
:100B100000C000D000D0000008950A950000000039
:100B2000000000000000C9F70895C598BD98089519
:100B3000BD9A00EFF2DFBD9803E2EFDF06B305FBDD
:100B40000DECEBDF0895BD9A0CE1E7DFBD9802E004
:100B5000E4DF06B305FB01E0E0DF0895BD9A01E0A4
:100B6000DCDFBD980EE1D9DF06B305FB01E0D5DF80
:100B70000895BD9A01E0D1DFBD9807E0CEDF06B34E
:100B800005FB07E1CADF08953F9338E0279510F48D
:100B9000E5DF01C0D8DF3A95C9F73F9108953F934B
:100BA00038E02795E6DF27F93A95D9F73F91089580
:100BB00009E148E0279508F4302730FB379537F9ED
:100BC0004A95C1F70895B1DF00E002BF01E007BF19
:100BD00008E000BF07E003BF789401E0B02E00C03A
:100BE000A7DF2CEC0E94C40524E40E94C4050EEE8D
:100BF000302E03E00F933F9200E3302E06E03A944C
:100C0000F1F73A940A95D9F73F900F913A9491F7FA
:100C10000A9581F752DB8CDF2CEC0E94C4052EEB89
:100C20000E94C405BCDF822EBADF722F682D0E949D
:100C30005B0120E40E947D010FE4402E01E0502E74
:100C40000E945F0474656D70313D8B160442432031
:100C50000D0000E0B01621F0C62ED72E00E0B02E19
:100C600020E00E947D010FE4402E01E0502E0E9402
:100C70005F0474656D70303D8B0C044243200D00A1
:100C800083B680FC0C94F00508950FEF0DBF00E1D2
:100C90000EBF27DB0FEF07BB00E001BB129A0C94DD
:100CA00051060E945B010E947101E0E3F3E00E94A3
:100CB0005704ECE3F3E020E40E947D010E94570416
:100CC00011D061FD0E948B0660FD0E94930660FDBD
:100CD0000E94C80661FD0E94EC0F62FD0E94E712AF
:100CE0000C9460060E947101E6E4F3E00E94570450
:100CF000E4E5F3E020E40E947D010E9457040E9495
:100D000013010E942913622F613811F0623809F42F
:100D100008950C9472060E947101EEE6F4E00E94C0
:100D200057040C9407130E947101E0E4F4E00E9460
:100D30005704E0E5F4E020E40E947D010E9457049E
:100D40000E9413010E942913622F613809F408954B
:100D5000623809F40895643809F40895683419F77D
:100D60000E947101EEE5F4E00E9457040E94130115
:100D70000E942913622F613809F40895623809F43A
:100D80000895643809F40895683451F70C94930673
:100D90000E947101E2E6F3E00E945704E2E7F3E00B
:100DA00020E40E947D010E94570400ED302E08E0EF
:100DB0000F933F9200E3302E06E03A94F1F73A9415
:100DC0000A95D9F73F900F913A9491F70A9581F7D8
:100DD0000E947101E6EBF3E00E945704E6ECF3E0B9
:100DE00020E40E947D010E94570400ED302E08E0AF
:100DF0000F933F9200E3302E06E03A94F1F73A94D5
:100E00000A95D9F73F900F913A9491F70A9581F797
:100E100000E0902E0E947101E0EDF4E00E94570482
:100E2000EEEDF4E020E40E947D010E9457040E9450
:100E300013010E942913622F207809F00C945407A3
:100E4000683441F70E947101E0EFF4E00E9457041A
:100E5000E2E0F5E020E40E947D010E9457040E9438
:100E600013010E942913622F207809F00C94540773
:100E7000683441F70E947101E4E1F5E00E945704F3
:100E8000E2E2F5E020E40E947D010E9457040E9406
:100E900013010E942913622F207809F00C94540743
:100EA000683441F70C940A07E0E3F5E0C895601553
:100EB00009F468940EF493940E945B010EF00C9474
:100EC00089070E947101E4EAF3E00E94570404EFED
:100ED000302E02E00F933F9200E3302E06E03A946A
:100EE000F1F73A940A95D9F73F900F913A9491F718
:100EF0000A9581F72DE265E00E946E0529E30E94C4
:100F00006E052DE20E946E0529E30E946E050C9489
:100F1000A9070E947101EEEAF3E00E94570404EF72
:100F2000302E02E00F933F9200E3302E06E03A9419
:100F3000F1F73A940A95D9F73F900F913A9491F7C7
:100F40000A9581F721EC6EE10E946E0521EC0E946A
:100F50006E05551B442733272227292D0FE4402EE9
:100F600001E0502E0E945F0453636F72653AC01215
:100F7000000000ED302E08E00F933F9200E3302E8A
:100F800006E03A94F1F73A940A95D9F73F900F9119
:100F90003A9491F70A9581F70E947101E2E3F5E036
:100FA0000E945704ECE3F5E020E40E947D010E94DA
:100FB00057040E9413010E942913622F207809F020
:100FC0000C941608683441F70E947101E6E4F5E0DC
:100FD0000E945704E6E5F5E020E40E947D010E94AE
:100FE00057040E9413010E942913622F207809F0F0
:100FF0000C941608683441F70E947101E4E6F5E0AC
:101000000E945704E6E7F5E020E40E947D010E947B
:1010100057040E9413010E942913622F207809F0BF
:101020000C941608683441F70C94CC07E6E8F5E018
:10103000C895601509F468940EF493940E945B01BE
:101040000EF00C944B080E947101E4EAF3E00E9458
:10105000570404EF302E02E00F933F9200E3302E4E
:1010600006E03A94F1F73A940A95D9F73F900F9138
:101070003A9491F70A9581F72DE265E00E946E059A
:1010800029E30E946E052DE20E946E0529E30E946D
:101090006E050C946B080E947101EEEAF3E00E9469
:1010A000570404EF302E02E00F933F9200E3302EFE
:1010B00006E03A94F1F73A940A95D9F73F900F91E8
:1010C0003A9491F70A9581F721EC6EE10E946E0542
:1010D00021EC0E946E05551B442733272227292D1A
:1010E0000FE4402E01E0502E0E945F0453636F72A4
:1010F000653AC012000000ED302E08E00F933F92D9
:1011000000E3302E06E03A94F1F73A940A95D9F7C5
:101110003F900F913A9491F70A9581F70E947101DF
:10112000E8E8F5E00E945704EAE9F5E020E40E94CF
:101130007D010E9457040E9413010E942913622F0F
:10114000207809F00C94D808683441F70E947101A6
:10115000E6EAF5E00E945704E8EBF5E020E40E949F
:101160007D010E9457040E9413010E942913622FDF
:10117000207809F00C94D808683441F70E94710176
:10118000E8ECF5E00E945704E4EDF5E020E40E946D
:101190007D010E9457040E9413010E942913622FAF
:1011A000207809F00C94D808683441F70C948E0824
:1011B000E2EEF5E0C895601509F468940EF4939496
:1011C0000E945B010EF00C940D090E947101E4EA8B
:1011D000F3E00E94570404EF302E02E00F933F9299
:1011E00000E3302E06E03A94F1F73A940A95D9F7E5
:1011F0003F900F913A9491F70A9581F72DE265E0BF
:101200000E946E0529E30E946E052DE20E946E0584
:1012100029E30E946E050C942D090E947101EEEAEB
:10122000F3E00E94570404EF302E02E00F933F9248
:1012300000E3302E06E03A94F1F73A940A95D9F794
:101240003F900F913A9491F70A9581F721EC6EE166
:101250000E946E0521EC0E946E05551B4427332722
:101260002227292D0FE4402E01E0502E0E945F041A
:1012700053636F72653AC012000000ED302E08E033
:101280000F933F9200E3302E06E03A94F1F73A9440
:101290000A95D9F73F900F913A9491F70A9581F703
:1012A0000E947101E4EEF5E00E945704E4EFF5E0DE
:1012B00020E40E947D010E9457040E9413010E94B5
:1012C0002913622F207809F00C949A09683441F7A9
:1012D0000E947101E2E0F6E00E945704E4E1F6E0CA
:1012E00020E40E947D010E9457040E9413010E9485
:1012F0002913622F207809F00C949A09683441F779
:101300000E947101E2E2F6E00E945704EEE2F6E08C
:1013100020E40E947D010E9457040E9413010E9454
:101320002913622F207809F00C949A09683441F748
:101330000C945009ECE3F6E0C895601509F4689444
:101340000EF493940E945B010EF00C94CF090E945E
:101350007101E4EAF3E00E94570404EF302E02E04A
:101360000F933F9200E3302E06E03A94F1F73A945F
:101370000A95D9F73F900F913A9491F70A9581F722
:101380002DE265E00E946E0529E30E946E052DE2C4
:101390000E946E0529E30E946E050C94EF090E94DD
:1013A0007101EEEAF3E00E94570404EF302E02E0F0
:1013B0000F933F9200E3302E06E03A94F1F73A940F
:1013C0000A95D9F73F900F913A9491F70A9581F7D2
:1013D00021EC6EE10E946E0521EC0E946E05551B0A
:1013E000442733272227292D0FE4402E01E0502ED9
:1013F0000E945F0453636F72653AC012000000EDF3
:10140000302E08E00F933F9200E3302E06E03A942E
:10141000F1F73A940A95D9F73F900F913A9491F7E2
:101420000A9581F70E947101EEE3F6E00E945704ED
:10143000EAE4F6E020E40E947D010E9457040E9445
:1014400013010E942913622F207809F00C945C0A82
:10145000683441F70E947101E4E5F6E00E94570408
:10146000E6E6F6E020E40E947D010E9457040E9417
:1014700013010E942913622F207809F00C945C0A52
:10148000683441F70E947101E4E7F6E00E945704D6
:10149000EEE7F6E020E40E947D010E9457040E94DE
:1014A00013010E942913622F207809F00C945C0A22
:1014B000683441F70C94120AE6E8F6E0C895601526
:1014C00009F468940EF493940E945B010EF00C945E
:1014D000910A0E947101E4EAF3E00E94570404EFCC
:1014E000302E02E00F933F9200E3302E06E03A9454
:1014F000F1F73A940A95D9F73F900F913A9491F702
:101500000A9581F72DE265E00E946E0529E30E94AD
:101510006E052DE20E946E0529E30E946E050C9473
:10152000B10A0E947101EEEAF3E00E94570404EF51
:10153000302E02E00F933F9200E3302E06E03A9403
:10154000F1F73A940A95D9F73F900F913A9491F7B1
:101550000A9581F721EC6EE10E946E0521EC0E9454
:101560006E05551B442733272227292D0FE4402ED3
:1015700001E0502E0E945F0453636F72653AC012FF
:10158000000000ED302E08E00F933F9200E3302E74
:1015900006E03A94F1F73A940A95D9F73F900F9103
:1015A0003A9491F70A9581F70E947101E8E8F6E014
:1015B0000E945704EAE9F6E020E40E947D010E94BF
:1015C00057040E9413010E942913622F207809F00A
:1015D0000C941E0B683441F70E947101EAEAF6E0B0
:1015E0000E945704ECEBF6E020E40E947D010E948B
:1015F00057040E9413010E942913622F207809F0DA
:101600000C941E0B683441F70E947101ECECF6E07B
:101610000E945704EAEDF6E020E40E947D010E945A
:1016200057040E9413010E942913622F207809F0A9
:101630000C941E0B683441F70C94D40AE4EEF6E0E7
:10164000C895601509F468940EF493940E945B01A8
:101650000EF00C94530B0E947101E4EAF3E00E9437
:10166000570404EF302E02E00F933F9200E3302E38
:1016700006E03A94F1F73A940A95D9F73F900F9122
:101680003A9491F70A9581F72DE265E00E946E0584
:1016900029E30E946E052DE20E946E0529E30E9457
:1016A0006E050C94730B0E947101EEEAF3E00E9448
:1016B000570404EF302E02E00F933F9200E3302EE8
:1016C00006E03A94F1F73A940A95D9F73F900F91D2
:1016D0003A9491F70A9581F721EC6EE10E946E052C
:1016E00021EC0E946E05551B442733272227292D04
:1016F0000FE4402E01E0502E0E945F0453636F728E
:10170000653AC012000000ED302E08E00F933F92C2
:1017100000E3302E06E03A94F1F73A940A95D9F7AF
:101720003F900F913A9491F70A9581F70E947101C9
:10173000E6EEF6E00E945704E4EFF6E020E40E94B3
:101740007D010E9457040E9413010E942913622FF9
:10175000207809F00C94E00B683441F70E94710185
:10176000E0E0F7E00E945704E2E1F7E020E40E94A5
:101770007D010E9457040E9413010E942913622FC9
:10178000207809F00C94E00B683441F70E94710155
:10179000EEE1F7E00E945704E8E2F7E020E40E945F
:1017A0007D010E9457040E9413010E942913622F99
:1017B000207809F00C94E00B683441F70C94960BF8
:1017C000E2E3F7E0C895601509F468940EF4939489
:1017D0000E945B010EF00C94150C0E947101E4EA6A
:1017E000F3E00E94570404EF302E02E00F933F9283
:1017F00000E3302E06E03A94F1F73A940A95D9F7CF
:101800003F900F913A9491F70A9581F72DE265E0A8
:101810000E946E0529E30E946E052DE20E946E056E
:1018200029E30E946E050C94350C0E947101EEEACA
:10183000F3E00E94570404EF302E02E00F933F9232
:1018400000E3302E06E03A94F1F73A940A95D9F77E
:101850003F900F913A9491F70A9581F721EC6EE150
:101860000E946E0521EC0E946E05551B442733270C
:101870002227292D0FE4402E01E0502E0E945F0404
:1018800053636F72653AC012000000ED302E08E01D
:101890000F933F9200E3302E06E03A94F1F73A942A
:1018A0000A95D9F73F900F913A9491F70A9581F7ED
:1018B0000E947101E4E3F7E00E945704E6E4F7E0D8
:1018C00020E40E947D010E9457040E9413010E949F
:1018D0002913622F207809F00C94A20C683441F788
:1018E0000E947101E4E5F7E00E945704ECE5F7E09F
:1018F00020E40E947D010E9457040E9413010E946F
:101900002913622F207809F00C94A20C683441F757
:101910000E947101EAE6F7E00E945704E4E7F7E06D
:1019200020E40E947D010E9457040E9413010E943E
:101930002913622F207809F00C94A20C683441F727
:101940000C94580CE6E8F7E0C895601509F4689423
:101950000EF493940E945B010EF00C94D70C0E943D
:101960007101E4EAF3E00E94570404EF302E02E034
:101970000F933F9200E3302E06E03A94F1F73A9449
:101980000A95D9F73F900F913A9491F70A9581F70C
:101990002DE265E00E946E0529E30E946E052DE2AE
:1019A0000E946E0529E30E946E050C94F70C0E94BC
:1019B0007101EEEAF3E00E94570404EF302E02E0DA
:1019C0000F933F9200E3302E06E03A94F1F73A94F9
:1019D0000A95D9F73F900F913A9491F70A9581F7BC
:1019E00021EC6EE10E946E0521EC0E946E05551BF4
:1019F000442733272227292D0FE4402E01E0502EC3
:101A00000E945F0453636F72653AC012000000EDDC
:101A1000302E08E00F933F9200E3302E06E03A9418
:101A2000F1F73A940A95D9F73F900F913A9491F7CC
:101A30000A9581F70E947101E8E8F7E00E945704D7
:101A4000E8E9F7E020E40E947D010E9457040E942B
:101A500013010E942913622F207809F00C94640D61
:101A6000683441F70E947101EAEAF7E00E945704E6
:101A7000ECEBF7E020E40E947D010E9457040E94F5
:101A800013010E942913622F207809F00C94640D31
:101A9000683441F70E947101EAECF7E00E945704B4
:101AA000E2EDF7E020E40E947D010E9457040E94CD
:101AB00013010E942913622F207809F00C94640D01
:101AC000683441F70C941A0DE4EEF7E0C895601500
:101AD00009F468940EF493940E945B010EF00C9448
:101AE000990D0E947101E4EAF3E00E94570404EFAB
:101AF000302E02E00F933F9200E3302E06E03A943E
:101B0000F1F73A940A95D9F73F900F913A9491F7EB
:101B10000A9581F72DE265E00E946E0529E30E9497
:101B20006E052DE20E946E0529E30E946E050C945D
:101B3000B90D0E947101EEEAF3E00E94570404EF30
:101B4000302E02E00F933F9200E3302E06E03A94ED
:101B5000F1F73A940A95D9F73F900F913A9491F79B
:101B60000A9581F721EC6EE10E946E0521EC0E943E
:101B70006E05551B442733272227292D0FE4402EBD
:101B800001E0502E0E945F0453636F72653AC012E9
:101B9000000000ED302E08E00F933F9200E3302E5E
:101BA00006E03A94F1F73A940A95D9F73F900F91ED
:101BB0003A9491F70A9581F70E947101E6EEF7E0F9
:101BC0000E945704E4EFF7E020E40E947D010E94A8
:101BD00057040E9413010E942913622F207809F0F4
:101BE0000C94260E683441F70E947101E0E0F8E0A1
:101BF0000E945704EEE0F8E020E40E947D010E947C
:101C000057040E9413010E942913622F207809F0C3
:101C10000C94260E683441F70E947101E0E2F8E06E
:101C20000E945704EEE2F8E020E40E947D010E9449
:101C300057040E9413010E942913622F207809F093
:101C40000C94260E683441F70C94DC0DEEE3F8E0BA
:101C5000C895601509F468940EF493940E945B0192
:101C60000EF00C945B0E0E947101E4EAF3E00E9416
:101C7000570404EF302E02E00F933F9200E3302E22
:101C800006E03A94F1F73A940A95D9F73F900F910C
:101C90003A9491F70A9581F72DE265E00E946E056E
:101CA00029E30E946E052DE20E946E0529E30E9441
:101CB0006E050C947B0E0E947101EEEAF3E00E9427
:101CC000570404EF302E02E00F933F9200E3302ED2
:101CD00006E03A94F1F73A940A95D9F73F900F91BC
:101CE0003A9491F70A9581F721EC6EE10E946E0516
:101CF00021EC0E946E05551B442733272227292DEE
:101D00000FE4402E01E0502E0E945F0453636F7277
:101D1000653AC012000000ED302E08E00F933F92AC
:101D200000E3302E06E03A94F1F73A940A95D9F799
:101D30003F900F913A9491F70A9581F705E090163C
:101D400010F40C942E0F0E947101E4E1F4E00E9463
:101D50005704E4E2F4E020E40E947D010E9457046D
:101D600020E660E50E946E0520E86CE30E946E05A7
:101D700020E660E50E946E052CE46CE30E946E058F
:101D800020E46CE30E946E0520E36CE30E946E0584
:101D900026E26AEA0E946E0520E36AEA0E946E0566
:101DA0002BE560E50E946E0529E76CE30E946E0555
:101DB0002BE560E50E946E0528E46CE30E946E0549
:101DC0002EE16CE30E946E052DE26CE30E946E052D
:101DD00024E26AEA0E946E052DE26AEA0E946E051C
:101DE00021E560E50E946E052CE66CE30E946E051D
:101DF00021E560E50E946E0520E46CE30E946E051B
:101E000026E36CE30E946E0528E26AEA0E946E05F2
:101E100024E268EC0E946E050E947101E6EEF3E098
:101E20000E945704E0EFF3E020E40E947D010E944D
:101E3000570400EA302E00E10F933F9200E3302E6A
:101E400006E03A94F1F73A940A95D9F73F900F914A
:101E50003A9491F70A9581F70C9460060E947101FB
:101E6000ECE2F4E00E945704E6E3F4E020E40E9490
:101E70007D010E94570423E360E50E946E050CE398
:101E8000302E01E00F933F9200E3302E06E03A94AB
:101E9000F1F73A940A95D9F73F900F913A9491F758
:101EA0000A9581F724E26AE50E946E050CE3302E64
:101EB00001E00F933F9200E3302E06E03A94F1F7F1
:101EC0003A940A95D9F73F900F913A9491F70A9571
:101ED00081F724E266E40E946E050CE3302E01E0F7
:101EE0000F933F9200E3302E06E03A94F1F73A94D4
:101EF0000A95D9F73F900F913A9491F70A9581F797
:101F000024E266E40E946E050CE3302E01E00F939C
:101F10003F9200E3302E06E03A94F1F73A940A95A6
:101F2000D9F73F900F913A9491F70A9581F724E2FF
:101F300066E40E946E0526E266E40E946E052AE2CF
:101F400066E40E946E0520E36CE80E946E050CEBCF
:101F5000302E03E00F933F9200E3302E06E03A94D8
:101F6000F1F73A940A95D9F73F900F913A9491F787
:101F70000A9581F720E364E60E946E0520E464E69A
:101F80000E946E052CE464E60E946E0526E364E67A
:101F90000E946E0520E364E60E946E0526E364E677
:101FA0000E946E052CE364E60E946E0526E364E65B
:101FB0000E946E052CE364E60E946E0520E460E555
:101FC0000E946E0528E46CE30E946E0520E466E939
:101FD0000E946E050C9460060E947101E2E6F3E037
:101FE0000E945704E2E8F3E020E40E947D010E9491
:101FF000570400ED302E08E00F933F9200E3302E9F
:1020000006E03A94F1F73A940A95D9F73F900F9188
:102010003A9491F70A9581F70E947101E6EDF3E099
:102020000E94570400ED302E08E00F933F9200E32A
:10203000302E06E03A94F1F73A940A95D9F73F909A
:102040000F913A9491F70A9581F700E0902E0E9443
:102050007101E0E4F8E00E94570400ED302E08E042
:102060000F933F9200E3302E06E03A94F1F73A9452
:102070000A95D9F73F900F913A9491F70A9581F715
:102080000E94E3056C197D0928E030E062177307B0
:102090004AF10E947101E0E7F8E00E94570404EF62
:1020A000302E02E00F933F9200E3302E06E03A9488
:1020B000F1F73A940A95D9F73F900F913A9491F736
:1020C0000A9581F72DE265E00E946E0529E30E94E2
:1020D0006E052DE20E946E0529E30E946E05939421
:1020E0000C9494100E947101ECE8F8E00E945704EF
:1020F00004EF302E02E00F933F9200E3302E06E013
:102100003A94F1F73A940A95D9F73F900F913A949F
:1021100091F70A9581F721EC6EE10E946E0521ECA2
:102120000E946E050C9494100E947101E0E5F8E0A5
:102130000E94570400ED302E08E00F933F9200E319
:10214000302E06E03A94F1F73A940A95D9F73F9089
:102150000F913A9491F70A9581F70E94E3056C1963
:102160007D0928E030E06217730792F120E130E04A
:10217000621B730B0AF00C940A110E945B010E940F
:102180007101E0E7F8E00E94570404EF302E02E00E
:102190000F933F9200E3302E06E03A94F1F73A9421
:1021A0000A95D9F73F900F913A9491F70A9581F7E4
:1021B0002DE265E00E946E0529E30E946E052DE286
:1021C0000E946E0529E30E946E0593940C942C11D5
:1021D0000E947101ECE8F8E00E94570404EF302EF1
:1021E00002E00F933F9200E3302E06E03A94F1F7BD
:1021F0003A940A95D9F73F900F913A9491F70A953E
:1022000081F721EC6EE10E946E0521EC0E946E05C3
:102210000C942C110E947101ECE9F8E00E94570423
:1022200004EF302E02E00F933F9200E3302E06E0E1
:102230003A94F1F73A940A95D9F73F900F913A946E
:1022400091F70A9581F721EC6EE10E946E0521EC71
:102250000E946E050C942C110E947101E2E6F8E0D8
:102260000E94570400ED302E08E00F933F9200E3E8
:10227000302E06E03A94F1F73A940A95D9F73F9058
:102280000F913A9491F70A9581F70E94E3056C1932
:102290007D0920E130E0621773074AF10E94710165
:1022A000E0E7F8E00E94570404EF302E02E00F93BD
:1022B0003F9200E3302E06E03A94F1F73A940A9503
:1022C000D9F73F900F913A9491F70A9581F72DE253
:1022D00065E00E946E0529E30E946E052DE20E94D2
:1022E0006E0529E30E946E0593940C9499110E9447
:1022F0007101ECE8F8E00E94570404EF302E02E090
:102300000F933F9200E3302E06E03A94F1F73A94AF
:102310000A95D9F73F900F913A9491F70A9581F772
:1023200021EC6EE10E946E0521EC0E946E050C947A
:10233000991102E0901610F40C9429120E94710178
:10234000E0E7F8E00E945704EAE7F8E020E40E94A2
:102350007D010E94570420E660E50E946E0520E89A
:102360006CE30E946E0520E660E50E946E052CE499
:102370006CE30E946E0520E46CE30E946E0520E38E
:102380006CE30E946E0526E26AEA0E946E0520E375
:102390006AEA0E946E052BE560E50E946E0529E75A
:1023A0006CE30E946E052BE560E50E946E0528E453
:1023B0006CE30E946E052EE16CE30E946E052DE237
:1023C0006CE30E946E0524E26AEA0E946E052DE22B
:1023D0006AEA0E946E0521E560E50E946E052CE622
:1023E0006CE30E946E0521E560E50E946E0520E425
:1023F0006CE30E946E0526E36CE30E946E0528E202
:102400006AEA0E946E0524E268EC0E946E050E9452
:102410007101ECEFF3E00E945704E6E0F4E020E401
:102420000E947D010E94570400EA302E00E10F93C4
:102430003F9200E3302E06E03A94F1F73A940A9581
:10244000D9F73F900F913A9491F70A9581F70C9440
:1024500060060E947101ECE2F4E00E945704E6E39A
:10246000F4E020E40E947D010E94570423E360E52C
:102470000E946E050CE3302E01E00F933F9200E3C3
:10248000302E06E03A94F1F73A940A95D9F73F9046
:102490000F913A9491F70A9581F724E26AE50E9438
:1024A0006E050CE3302E01E00F933F9200E3302ED7
:1024B00006E03A94F1F73A940A95D9F73F900F91D4
:1024C0003A9491F70A9581F724E266E40E946E053A
:1024D0000CE3302E01E00F933F9200E3302E06E034
:1024E0003A94F1F73A940A95D9F73F900F913A94BC
:1024F00091F70A9581F724E266E40E946E050CE3E9
:10250000302E01E00F933F9200E3302E06E03A9424
:10251000F1F73A940A95D9F73F900F913A9491F7D1
:102520000A9581F724E266E40E946E0526E266E4DD
:102530000E946E052AE266E40E946E0520E36CE8C4
:102540000E946E050CEB302E03E00F933F9200E3E8
:10255000302E06E03A94F1F73A940A95D9F73F9075
:102560000F913A9491F70A9581F720E364E60E946F
:102570006E0520E464E60E946E052CE464E60E9489
:102580006E0526E364E60E946E0520E364E60E9481
:102590006E0526E364E60E946E052CE364E60E9465
:1025A0006E0526E364E60E946E052CE364E60E9455
:1025B0006E0520E460E50E946E0528E46CE30E944D
:1025C0006E0520E466E90E946E050C9460060E9488
:1025D0007101E2E6F3E00E945704E4E9F3E020E44D
:1025E0000E947D010E94570400ED302E08E00F93F9
:1025F0003F9200E3302E06E03A94F1F73A940A95C0
:10260000D9F73F900F913A9491F70A9581F70E947C
:102610007101E8EBF4E00E945704E4ECF4E020E4FC
:102620000E947D010E94570400ED302E08E00F93B8
:102630003F9200E3302E06E03A94F1F73A940A957F
:10264000D9F73F900F913A9491F70A9581F70C943E
:0E265000450608E1801609F40C94450608952D
:00000001FF
