:020000020000FC
:100000000C9411070C9422000C9427000C942C00E3
:040010000C9431001B
:100040000C94100101E0102E01E0E02E0FC002E040
:10005000102E02E0E02E0AC004E0102E04E0E02E94
:1000600005C008E0102E08E0E02E00C00FEF02BB34
:100070000EE1302E01E00F933F9200E3302E06E0B8
:100080003A94F1F73A940A95D9F73F900F913A9440
:1000900091F70A9581F70FE702BB0EE1302E01E0E0
:1000A0000F933F9200E3302E06E03A94F1F73A9432
:1000B0000A95D9F73F900F913A9491F70A9581F7F5
:1000C00000B30E21002319F400E4202E8CC00EE1B1
:1000D000302E01E00F933F9200E3302E06E03A9479
:1000E000F1F73A940A95D9F73F900F913A9491F726
:1000F0000A9581F70FEB02BB0EE1302E01E00F9362
:100100003F9200E3302E06E03A94F1F73A940A95D4
:10011000D9F73F900F913A9491F70A9581F700B380
:100120000E21002319F400E8202E5DC00EE1302ED0
:1001300001E00F933F9200E3302E06E03A94F1F78E
:100140003A940A95D9F73F900F913A9491F70A950E
:1001500081F70FED02BB0EE1302E01E00F933F92CD
:1001600000E3302E06E03A94F1F73A940A95D9F775
:100170003F900F913A9491F70A9581F700B30E21C1
:10018000002319F400E2202E2EC00EE1302E01E0F3
:100190000F933F9200E3302E06E03A94F1F73A9441
:1001A0000A95D9F73F900F913A9491F70A9581F704
:1001B0000FEE02BB0EE1302E01E00F933F9200E301
:1001C000302E06E03A94F1F73A940A95D9F73F9029
:1001D0000F913A9491F70A9581F700B30E2100230D
:1001E00011F400E1202E1AE00FEFF02E25E56EE16C
:1001F0000E943A0608EC302E01E00F933F9200E394
:10020000302E06E03A94F1F73A940A95D9F73F90E8
:100210000F913A9491F70A9581F70FE002BB189578
:1002200000E003BF189500EF01BB0FE002BB0FEF2A
:1002300007BB0FE009BF00E00ABF22241124FF24FE
:1002400033274427552777278827992778940C94B4
:100250002901FF20F1F3FF242227210D220D66271B
:10026000822E21FD6C5F22FD685F23FD645F25FD0A
:100270006F5F26FD6E5F27FD6D5FE62FFF27E25E55
:10028000FC4FC895602D08953090008037FCFCCF5E
:1002900003D000930080089500D0000008952D3011
:1002A00079F12A30B9F10091008007FDFCCFF4DF2D
:1002B000209300C0089501E0E7CF02E0E5CF00E120
:1002C000E3CF04E1E1CF08E1DFCF0CE1DDCF0DE0CA
:1002D000DBCF0CE0D9CF0EE0D7CF0CE0D5CF0FE0CD
:1002E000D3CF05B7006C05BF01E0CEDF06E0CCDF61
:1002F0000CE0CADF08E3C8DF0895022F0068C4CF0E
:100300000091008007FDFCCF00740068C5DF0093FA
:10031000008008952F9320E4F0DF2F91089531326B
:10032000334134353642373839432A3023440000CC
:100330003D3D3D57454C434F4D4520544F3D3D3D80
:1003400000003D3D3D3D4D43552050415254593DE7
:100350003D3D0000412E20504C41592047414D4524
:100360000000422E204F50454E205341464500008C
:100370002057656C636F6D6520746F20746865200D
:100380000000207472697669612067616D65203AAA
:1003900029200000626F617264206973206C6176AD
:1003A00061203A2900006B65797061642064616E98
:1003B0006365203A29003D3D3D3D436F72726563A0
:1003C00074213D3D3D3D00003D3D3D3D3D46616C60
:1003D0007365213D3D3D3D3D0000416E7377657283
:1003E00020352F313020636F2D0072726563746C7D
:1003F0007920746F2077696E000057696E20322F64
:100400003320746F2077696E000020202020317324
:100410007420636C75653A20202000002020205352
:100420004E4F5720574849544520202000001400C3
:1004300020202020326E6420636C75653A202020D5
:1004400000002020204D75736B6574656572732004
:1004500020200000410033726420636C75653A20EF
:1004600028326469672900004B61746E69737320D8
:10047000457665726465656E000011002100434F8A
:100480004E47524154554C4154494F4E53003D3D07
:100490003D3D3D594F552057494E3D3D3D3D0000A6
:1004A0003D3D3D3D594F55204C4F53453D3D3D3D14
:1004B00000003D3D3D3D54525920414741494E3D8C
:1004C0003D3D0000412E205452495649412051558E
:1004D000495A0000422E204C41564120424F415281
:1004E0004400432E204B45595041442044414E4343
:1004F0004500454E5445522050415353434F4445C7
:100500000000434F52524543542050415353434FF0
:10051000444500003D3D3D3D494E434F5252454309
:10052000543D3D3D00003D3D3D3D50415353434F03
:1005300044453D3D3D3D0000434F4E4752415455DB
:100540004C4154494F4E532C2000594F5520574988
:100550004E20544849532047414D4520210020203A
:10056000205448414E4B5320464F5220202000003B
:10057000202020504C4159494E4721203A44202008
:10058000000057686F2077726F746520746865008B
:10059000736F6E672027746872696C6C6572273F91
:1005A0000000412E20504C4159424F4920434152B6
:1005B00054490000422E205452414359204348419F
:1005C000504D414E0000432E20412E205343484DB4
:1005D00049440000442E204D2E204A41434B534FA6
:1005E0004E00880057686F20706C61797300486511
:1005F000726D696F6E653F00412E20454D4D412063
:10060000574154534F4E0000422E20454D4D41203E
:1006100053544F4E4500432E20504C4159424F49B0
:100620002043415254490000442E205A4F45205344
:10063000414C44414E410000810057686963682085
:1006400062616E642077726F746500002768657957
:1006500020796F7527203F00412E20504C41594290
:100660004F492043415254490000422E204C4544FA
:10067000205A4550504C494E0000432E204A4F55B9
:10068000524E45590000442E2050494E4B20464CB6
:100690004F594400880057686F2077726F74652047
:1006A0002741697200006F6E204720737472696E73
:1006B00067273F00412E20504C4159424F4920436B
:1006C000415254490000422E2042454554484F565D
:1006D000454E0000432E2053434855424552540096
:1006E000442E204A2E532E204241434800008800C9
:1006F00057686F2074656163686573004D435520CA
:10070000626573743F00412E20504C4159424F495D
:100710002043415254490000422E20412E20534391
:10072000484D49440000432E204D2E20414C4900A5
:10073000442E204352203700820057686F20776F85
:100740006E207468652032303232000046494641DE
:1007500020576F726C64204375703F00412E20500B
:100760004C4159424F492043415254490000422EC6
:1007700020535749545A45524C414E440000432E91
:1007800020415247454E54494E410000442E2046D8
:1007900052414E434500840057686963682064698C
:1007A0007368206973006E6F742073776973733F89
:1007B0000000412E20504C4159424F4920434152A4
:1007C00054490000422E205241434C4554544500A8
:1007D000432E20464F4E44554500442E20524F454F
:1007E0005354490081005768617427732074686509
:1007F00020636170692D000074616C206F66204C6D
:10080000616F733F0000412E204C414F5300422E38
:10081000205649454E5449414E450000432E20562E
:10082000454E49434500442E20504C4159424F49C2
:100830002043415254490000820057686174277375
:100840002074686520626573740073656374696FF2
:100850006E206174204550464C3F0000412E204CD4
:1008600049464520534349454E4345530000422ED7
:10087000204D4943524F544543480000432E2045E4
:100880004C454300442E20504C4159424F4920438F
:10089000415254490000840057686F2077726F748A
:1008A000652074686500736F6E672027736B792706
:1008B0003F00412E204B414E59452057455354008F
:1008C000422E20504C4159424F49204341525449F5
:1008D0000000432E20412E205343484D4944000040
:1008E000442E205441594C4F5220535749465400EE
:1008F00082002041646420302E354320696E203808
:100900007320000041646420302E352D314320696E
:100910006E20387300002020416464203143206938
:100920006E203873202000003D3D3D3D594F55203D
:1009300057494E213D3D3D3D0000434F4E475241FA
:1009400054554C4154494F4E5321000020497427BF
:100950007320667265657A696E6721200000322017
:10096000686F7420746F2068616E646C652100008C
:10097000436F6D652064616E63652C206E6F0000AF
:100980006572726F727320616C6C6F7765642100A1
:100990003D3D3D526570656174207468653D3D3D27
:1009A00000003D3D3D3D73657175656E63653D3D80
:1009B0003D3D00003D3D3D3D3D3D3537423D3D3DEA
:1009C0003D3D3D3D00002200140082003D3D3D3D87
:1009D0003D3041394333443D3D3D3D3D000028001D
:1009E000810044008400410088003D3D3D3932399A
:1009F000304244412330343D3D3D0000440021005D
:100A0000440028008200880081004800280012006D
:100A10003D3D3D3D3D3D3D3D3D3D3D3D3D3D3D3D06
:100A20000000204D6164652062792054686F6D611B
:100A300073200000202020616E642052656E756B6B
:100A4000612020200000C895002021F0202D27DC07
:100A50003196F9CF0895FF91EF91EE0FFF1FAF93FD
:100A6000BF93C8953196002021F04AF0002D13D095
:100A7000F8CF3196F695E795BF91AF91099400FABA
:100A8000002DC895A02DBB273196043879F0053884
:100A900081F015C0E6CF2F93FF93EF93E42DF52D52
:100AA000202F0995EF91FF912F9108950C91F3DF7D
:100AB000D8CF0D91002309F4D4CFEDDFFACF5F93A7
:100AC0004F933F932F939F938F937F936F932D918A
:100AD0003D914D915D9106FD06C005FD0FC004FDE1
:100AE00010C003FD19C06AE0702F7695777072957B
:100AF00080E0902F9295937093951AC062E094E0F5
:100B000003C060E194E000C0702F7695777009F41F
:100B100078E0729580E00CC06AE0C895802D31962F
:100B2000C895702D3196902F95959370939500C030
:100B3000943081F0933051F0923021F0332716F445
:100B400027FD3FEF442716F437FD4FEF552716F4E6
:100B500047FD5FEF09D06F917F918F919F912F910A
:100B60003F914F915F917DCFCF92BF92AF929F9275
:100B70008F92BB18AA249924882486F4E8945523DC
:100B80006AF46894772309F0705150954095309538
:100B900020950FEF201B300B400B500B882351F09A
:100BA0005595479537952795B794A794979487942B
:100BB0008A95B1F77F9372957F700EE20F9345D0BF
:100BC0000C2D30D00F930027201730074007500717
:100BD00029F07723A1F37A9591F707C0772329F0BD
:100BE0007A9519F000E257DFF9CF16F40DE253DFE2
:100BF0000F910E3211F04FDFFBCF7F917F70772383
:100C000059F049DF282D392D4A2D5B2D11D00C2D9F
:100C100009D041DF7A95D1F78F909F90AF90BF9028
:100C2000CF9008950A3010F4005D0895095A089590
:100C3000CC2400E2889420FDC60EC79457954795B2
:100C4000379527950A95B1F70895CC2400E2221F25
:100C5000331F441F551FCC1CC61A08F4C60E0A9534
:100C6000B1F7221F331F441F551F509540953095F3
:100C700020950895762F66273327222371F0022FBF
:100C800012D000000A95E1F71A9B02C01A9801C021
:100C90001A9A621B730B98F7089521E004D0621B27
:100CA000730BE0F7089500C000C000D000D0000032
:100CB00008950A9500000000000000000000C9F738
:100CC0000895C598BD980895BD9A00EFF2DFBD98CC
:100CD00003E2EFDF06B305FB0DECEBDF0895BD9AF1
:100CE0000CE1E7DFBD9802E0E4DF06B305FB01E0BD
:100CF000E0DF0895BD9A01E0DCDFBD980EE1D9DFA9
:100D000006B305FB01E0D5DF0895BD9A01E0D1DF10
:100D1000BD9807E0CEDF06B305FB07E1CADF089503
:100D20003F9338E0279510F4E5DF01C0D8DF3A950E
:100D3000C9F73F9108953F9338E02795E6DF27F9FB
:100D40003A95D9F73F91089509E148E0279508F4CD
:100D5000302730FB379537F94A95C1F70895B1DF51
:100D600000E002BF01E007BF08E000BF07E003BFEB
:100D7000789401E0B02E00C0A7DF2CEC0E94900612
:100D800024E40E9490060EEE302E03E00F933F9273
:100D900000E3302E06E03A94F1F73A940A95D9F739
:100DA0003F900F913A9491F70A9581F786DA8CDF9C
:100DB0002CEC0E9490062EEB0E949006BCDF822E47
:100DC000BADF722F682D0E945B0120E40E947D0132
:100DD0000FE4402E01E0502E0E942B0574656D70CB
:100DE000313D8B16044243200D0000E0B01621F087
:100DF000C62ED72E00E0B02E20E00E947D010FE429
:100E0000402E01E0502E0E942B0574656D70303D20
:100E10008B0C044243200D0083B680FC0C94BC066E
:100E200008950FEF0DBF00E10EBF5BDA0FEF07BBB8
:100E300000E001BB129A0C941D070E945B010E9406
:100E40007101E0E3F3E00E942305E2E4F3E020E433
:100E50000E947D010E9423052CE46BE40E943A0667
:100E60000CE3302E01E00F933F9200E3302E06E0BA
:100E70003A94F1F73A940A95D9F73F900F913A9442
:100E800091F70A9581F72CE46BE40E943A0606E993
:100E9000302E01E00F933F9200E3302E06E03A94AB
:100EA000F1F73A940A95D9F73F900F913A9491F758
:100EB0000A9581F72CE46AE50E943A0600E5302E97
:100EC00001E00F933F9200E3302E06E03A94F1F7F1
:100ED0003A940A95D9F73F900F913A9491F70A9571
:100EE00081F720E666E40E943A0602E3302E01E034
:100EF0000F933F9200E3302E06E03A94F1F73A94D4
:100F00000A95D9F73F900F913A9491F70A9581F796
:100F10002CE46BE40E943A0608E7302E01E00F93C0
:100F20003F9200E3302E06E03A94F1F73A940A95A6
:100F3000D9F73F900F913A9491F70A9581F720E401
:100F40006AE50E943A060EE5302E02E00F933F92CA
:100F500000E3302E06E03A94F1F73A940A95D9F777
:100F60003F900F913A9491F70A9581F720E86BE44E
:100F70000E943A0608EC302E01E00F933F9200E306
:100F8000302E06E03A94F1F73A940A95D9F73F905B
:100F90000F913A9491F70A9581F720E66BE40E944D
:100FA0003A0608EC302E01E00F933F9200E3302E1A
:100FB00006E03A94F1F73A940A95D9F73F900F91E9
:100FC0003A9491F70A9581F720E86BE40E943A067B
:100FD00004E6302E01E00F933F9200E3302E06E04E
:100FE0003A94F1F73A940A95D9F73F900F913A94D1
:100FF00091F70A9581F729E96BE40E943A0604E625
:10100000302E01E00F933F9200E3302E06E03A9439
:10101000F1F73A940A95D9F73F900F913A9491F7E6
:101020000A9581F722E76BE40E943A060CE3302E22
:1010300001E00F933F9200E3302E06E03A94F1F77F
:101040003A940A95D9F73F900F913A9491F70A95FF
:1010500081F726E66BE40E943A060CE3302E01E0AD
:101060000F933F9200E3302E06E03A94F1F73A9462
:101070000A95D9F73F900F913A9491F70A9581F725
:1010800022E76BE40E943A060CE3302E01E00F9356
:101090003F9200E3302E06E03A94F1F73A940A9535
:1010A000D9F73F900F913A9491F70A9581F720E88C
:1010B0006BE40E943A0602E3302E01E00F933F9268
:1010C00000E3302E06E03A94F1F73A940A95D9F706
:1010D0003F900F913A9491F70A9581F720E66BE4DF
:1010E0000E943A0602E3302E01E00F933F9200E3A4
:1010F000302E06E03A94F1F73A940A95D9F73F90EA
:101100000F913A9491F70A9581F72CE46BE40E94D1
:101110003A0602E3302E01E00F933F9200E3302EB7
:1011200006E03A94F1F73A940A95D9F73F900F9177
:101130003A9491F70A9581F720E46BE40E943A060D
:1011400004E1302E01E00F933F9200E3302E06E0E1
:101150003A94F1F73A940A95D9F73F900F913A945F
:1011600091F70A9581F729E36BE40E943A0600E5BE
:10117000302E01E00F933F9200E3302E06E03A94C8
:10118000F1F73A940A95D9F73F900F913A9491F775
:101190000A9581F728E46BE40E943A0602E3302EB8
:1011A00001E00F933F9200E3302E06E03A94F1F70E
:1011B0003A940A95D9F73F900F913A9491F70A958E
:1011C00081F720E46BE40E943A060EE1302E01E044
:1011D0000F933F9200E3302E06E03A94F1F73A94F1
:1011E0000A95D9F73F900F913A9491F70A9581F7B4
:1011F0002CE46BE40E943A0606E9302E01E00F93DE
:101200003F9200E3302E06E03A94F1F73A940A95C3
:10121000D9F73F900F913A9491F70A9581F725E518
:101220006BE40E943A060CE2302E02E00F933F92EC
:1012300000E3302E06E03A94F1F73A940A95D9F794
:101240003F900F913A9491F70A9581F720E46BE46F
:101250000E943A0604E0302E01E00F933F9200E333
:10126000302E06E03A94F1F73A940A95D9F73F9078
:101270000F913A9491F70A9581F724E46BE40E9468
:101280003A0604E0302E01E00F933F9200E3302E47
:1012900006E03A94F1F73A940A95D9F73F900F9106
:1012A0003A9491F70A9581F728E46BE40E943A0694
:1012B00004E0302E01E00F933F9200E3302E06E071
:1012C0003A94F1F73A940A95D9F73F900F913A94EE
:1012D00091F70A9581F72CE46BE40E943A0606E93F
:1012E000302E01E00F933F9200E3302E06E03A9457
:1012F000F1F73A940A95D9F73F900F913A9491F704
:101300000A9581F722E760E50E943A060CE3302E49
:1013100001E00F933F9200E3302E06E03A94F1F79C
:101320003A940A95D9F73F900F913A9491F70A951C
:1013300081F720E66BE40E943A060CE3302E01E0D0
:101340000F933F9200E3302E06E03A94F1F73A947F
:101350000A95D9F73F900F913A9491F70A9581F742
:1013600025E56BE40E943A0606E9302E01E00F9372
:101370003F9200E3302E06E03A94F1F73A940A9552
:10138000D9F73F900F913A9491F70A9581F721E5AB
:101390006AE50E943A0606E9302E01E00F933F927B
:1013A00000E3302E06E03A94F1F73A940A95D9F723
:1013B0003F900F913A9491F70A9581F725E56AE5F8
:1013C0000E943A0606E9302E01E00F933F9200E3B7
:1013D000302E06E03A94F1F73A940A95D9F73F9007
:1013E0000F913A9491F70A9581F720E66AE50E94F9
:1013F0003A0604E6302E01E00F933F9200E3302ED0
:1014000006E03A94F1F73A940A95D9F73F900F9194
:101410003A9491F70A9581F720E36BE40E943A062B
:1014200000E5302E01E00F933F9200E3302E06E0FE
:101430003A94F1F73A940A95D9F73F900F913A947C
:1014400091F70A9581F720E36BE40E943A0602E3E4
:10145000302E01E00F933F9200E3302E06E03A94E5
:10146000F1F73A940A95D9F73F900F913A9491F792
:101470000A9581F720E36BE40E943A0602E3302EDE
:1014800001E00F933F9200E3302E06E03A94F1F72B
:101490003A940A95D9F73F900F913A9491F70A95AB
:1014A00081F711D061FD0E947C0A60FD0E94720EDE
:1014B00060FD0E94A70E61FD0E948B1962FD0E94D3
:1014C000321E0C94510A0E947101E4E5F3E00E947F
:1014D0002305E2E6F3E020E40E947D010E9423055B
:1014E0000E9413010E949F25622F613811F062381B
:1014F00009F408950C94510A0E947101E2EFF4E09E
:101500000E94230500E0902E20E40E947D010FE45C
:10151000402E01E0502E0E942B052020202020206C
:101520002A2A2A2A20202020202000000E9413019D
:101530000E949F25E894EEE2F4E0C895201509F496
:1015400068940EF4939420E40E947D010FE4402EF1
:1015500001E0502E0E942B052020202020208516FF
:10156000000027E40E947D010E9413010E949F2534
:10157000E894E4E5F4E0C895201509F468940EF4C5
:1015800093940FE4402E01E0502E0E942B05851607
:10159000000028E40E947D010E9413010E949F2503
:1015A000E894EAE7F4E0C895201509F468940EF48D
:1015B00093940FE4402E01E0502E0E942B058516D7
:1015C000000029E40E947D010E9413010E949F25D2
:1015D000E894ECE7F4E0C895201509F468940EF45B
:1015E00093940FE4402E01E0502E0E942B058516A7
:1015F000000008EE302E04E00F933F9200E3302EFF
:1016000006E03A94F1F73A940A95D9F73F900F9192
:101610003A9491F70A9581F704E09016F9F00E9448
:101620007101E4E1F5E00E942305E6E2F5E020E443
:101630000E947D010E94230522EA6AEF0E943A0679
:101640002BEA6AEF0E943A0626EB6AEF0E943A06FE
:1016500021EC6FEF0E943A060C94510A0E9471012E
:10166000E2E0F5E00E94230528E461E40E943A06E6
:1016700004E0302E01E00F933F9200E3302E06E0AD
:101680003A94F1F73A940A95D9F73F900F913A942A
:1016900091F70A9581F728E461E40E943A0604E094
:1016A000302E01E00F933F9200E3302E06E03A9493
:1016B000F1F73A940A95D9F73F900F913A9491F740
:1016C0000A9581F728E461E40E943A0604E0302E8E
:1016D00001E00F933F9200E3302E06E03A94F1F7D9
:1016E0003A940A95D9F73F900F913A9491F70A9559
:1016F00081F726E368EC0E943A0602E3302E01E00F
:101700000F933F9200E3302E06E03A94F1F73A94BB
:101710000A95D9F73F900F913A9491F70A9581F77E
:101720002AE266E90E943A0602E3302E01E00F93B6
:101730003F9200E3302E06E03A94F1F73A940A958E
:10174000D9F73F900F913A9491F70A9581F728E4E1
:1017500061E40E943A0604E0302E01E00F933F92CC
:1017600000E3302E06E03A94F1F73A940A95D9F75F
:101770003F900F913A9491F70A9581F728E461E43C
:101780000E943A0604E0302E01E00F933F9200E3FE
:10179000302E06E03A94F1F73A940A95D9F73F9043
:1017A0000F913A9491F70A9581F728E461E40E9439
:1017B0003A0604E0302E01E00F933F9200E3302E12
:1017C00006E03A94F1F73A940A95D9F73F900F91D1
:1017D0003A9491F70A9581F726E368EC0E943A065D
:1017E00002E3302E01E00F933F9200E3302E06E03B
:1017F0003A94F1F73A940A95D9F73F900F913A94B9
:1018000091F70A9581F72AE266E90E943A0602E317
:10181000302E01E00F933F9200E3302E06E03A9421
:10182000F1F73A940A95D9F73F900F913A9491F7CE
:101830000A9581F726E361E40E943A0604E0302E1F
:1018400001E00F933F9200E3302E06E03A94F1F767
:101850003A940A95D9F73F900F913A9491F70A95E7
:1018600081F726E361E40E943A0604E0302E01E0AD
:101870000F933F9200E3302E06E03A94F1F73A944A
:101880000A95D9F73F900F913A9491F70A9581F70D
:1018900029E361E40E943A0604E0302E01E00F9350
:1018A0003F9200E3302E06E03A94F1F73A940A951D
:1018B000D9F73F900F913A9491F70A9581F729E370
:1018C00061E40E943A0604E0302E01E00F933F925B
:1018D00000E3302E06E03A94F1F73A940A95D9F7EE
:1018E0003F900F913A9491F70A9581F720E461E4D3
:1018F0000E943A0604E0302E01E00F933F9200E38D
:10190000302E06E03A94F1F73A940A95D9F73F90D1
:101910000F913A9491F70A9581F720E461E40E94CF
:101920003A0604E0302E01E00F933F9200E3302EA0
:1019300006E03A94F1F73A940A95D9F73F900F915F
:101940003A9491F70A9581F728E466E90E943A06ED
:1019500002E3302E01E00F933F9200E3302E06E0C9
:101960003A94F1F73A940A95D9F73F900F913A9447
:1019700091F70A9581F728E461E40E943A0604E0B1
:10198000302E01E00F933F9200E3302E06E03A94B0
:10199000F1F73A940A95D9F73F900F913A9491F75D
:1019A0000A9581F728E461E40E943A0604E0302EAB
:1019B00001E00F933F9200E3302E06E03A94F1F7F6
:1019C0003A940A95D9F73F900F913A9491F70A9576
:1019D00081F728E461E40E943A0604E0302E01E039
:1019E0000F933F9200E3302E06E03A94F1F73A94D9
:1019F0000A95D9F73F900F913A9491F70A9581F79C
:101A000029E368EC0E943A0602E3302E01E00F93CE
:101A10003F9200E3302E06E03A94F1F73A940A95AB
:101A2000D9F73F900F913A9491F70A9581F720E307
:101A300066E90E943A0602E3302E01E00F933F92DE
:101A400000E3302E06E03A94F1F73A940A95D9F77C
:101A50003F900F913A9491F70A9581F728E461E459
:101A60000E943A0604E0302E01E00F933F9200E31B
:101A7000302E06E03A94F1F73A940A95D9F73F9060
:101A80000F913A9491F70A9581F728E461E40E9456
:101A90003A0604E0302E01E00F933F9200E3302E2F
:101AA00006E03A94F1F73A940A95D9F73F900F91EE
:101AB0003A9491F70A9581F728E461E40E943A0686
:101AC00004E0302E01E00F933F9200E3302E06E059
:101AD0003A94F1F73A940A95D9F73F900F913A94D6
:101AE00091F70A9581F729E368EC0E943A0602E330
:101AF000302E01E00F933F9200E3302E06E03A943F
:101B0000F1F73A940A95D9F73F900F913A9491F7EB
:101B10000A9581F720E366E90E943A0602E3302E37
:101B200001E00F933F9200E3302E06E03A94F1F784
:101B30003A940A95D9F73F900F913A9491F70A9504
:101B400081F724E261E40E943A0604E0302E01E0CD
:101B50000F933F9200E3302E06E03A94F1F73A9467
:101B60000A95D9F73F900F913A9491F70A9581F72A
:101B700024E261E40E943A0604E0302E01E00F9373
:101B80003F9200E3302E06E03A94F1F73A940A953A
:101B9000D9F73F900F913A9491F70A9581F728E28F
:101BA00061E40E943A0604E0302E01E00F933F9278
:101BB00000E3302E06E03A94F1F73A940A95D9F70B
:101BC0003F900F913A9491F70A9581F728E261E4EA
:101BD0000E943A0604E0302E01E00F933F9200E3AA
:101BE000302E06E03A94F1F73A940A95D9F73F90EF
:101BF0000F913A9491F70A9581F72AE261E40E94E5
:101C00003A0604E0302E01E00F933F9200E3302EBD
:101C100006E03A94F1F73A940A95D9F73F900F917C
:101C20003A9491F70A9581F72AE261E40E943A0614
:101C300004E0302E01E00F933F9200E3302E06E0E7
:101C40003A94F1F73A940A95D9F73F900F913A9464
:101C500091F70A9581F720E361E40E943A0604E0D7
:101C6000302E01E00F933F9200E3302E06E03A94CD
:101C7000F1F73A940A95D9F73F900F913A9491F77A
:101C80000A9581F720E361E40E943A0604E0302ED1
:101C900001E00F933F9200E3302E06E03A94F1F713
:101CA0003A940A95D9F73F900F913A9491F70A9593
:101CB00081F726E366E90E943A0602E3302E01E04E
:101CC0000F933F9200E3302E06E03A94F1F73A94F6
:101CD0000A95D9F73F900F913A9491F70A9581F7B9
:101CE0000C945D250E947101E4ECF4E00E94230550
:101CF000E4EDF4E020E40E947D010E9423050E94AF
:101D000013010E949F25622F613809F408956238FB
:101D100009F40895643809F40895683419F70E94A5
:101D20007101E2EEF4E00E9423050E9413010E947B
:101D30009F25622F613809F40895623809F40895E7
:101D4000643809F40895683451F70C94720E0E94B7
:101D50007101E0E7F3E00E942305E2E8F3E020E40C
:101D60000E947D010E94230500ED302E08E00F93B4
:101D70003F9200E3302E06E03A94F1F73A940A9548
:101D8000D9F73F900F913A9491F70A9581F70E9405
:101D90007101EAEDF3E00E942305EAEEF3E020E4AE
:101DA0000E947D010E94230500ED302E08E00F9374
:101DB0003F9200E3302E06E03A94F1F73A940A9508
:101DC000D9F73F900F913A9491F70A9581F700E087
:101DD000902E0E947101E2E8F5E00E942305E0E9FF
:101DE000F5E020E40E947D010E9423050E9413017A
:101DF0000E949F25622F207809F00C94330F6834DD
:101E000041F70E947101E2EAF5E00E942305E4EB4C
:101E1000F5E020E40E947D010E9423050E94130149
:101E20000E949F25622F207809F00C94330F6834AC
:101E300041F70E947101E6ECF5E00E942305E4ED14
:101E4000F5E020E40E947D010E9423050E94130119
:101E50000E949F25622F207809F00C94330F68347C
:101E600041F70C94E90EE894E2EEF5E0C8956015B0
:101E700009F468940EF493940E945B010EF00C94A4
:101E80006B0F0E947101E6EBF3E00E94230504EF63
:101E9000302E02E00F933F9200E3302E06E03A949A
:101EA000F1F73A940A95D9F73F900F913A9491F748
:101EB0000A9581F72DE26BE40E943A0629E36BE470
:101EC0000E943A062DE26BE40E943A0629E30E9442
:101ED0003A060C948B0F0E947101E8ECF3E00E942B
:101EE000230504EF302E02E00F933F9200E3302EE3
:101EF00006E03A94F1F73A940A95D9F73F900F919A
:101F00003A9491F70A9581F721EC6EE10E943A0626
:101F100021EC0E943A06551B442733272227292DFE
:101F20000FE4402E01E0502E0E942B0553636F7288
:101F3000653AC012000000ED302E08E00F933F928A
:101F400000E3302E06E03A94F1F73A940A95D9F777
:101F50003F900F913A9491F70A9581F70E94710191
:101F6000E4EEF5E00E942305EEEEF5E020E40E94A9
:101F70007D010E9423050E9413010E949F25622F6C
:101F8000207809F00C94F80F683441F70E94710131
:101F9000E8EFF5E00E942305E8E0F6E020E40E9487
:101FA0007D010E9423050E9413010E949F25622F3C
:101FB000207809F00C94F80F683441F70E94710101
:101FC000E6E1F6E00E942305E8E2F6E020E40E9464
:101FD0007D010E9423050E9413010E949F25622F0C
:101FE000207809F00C94F80F683441F70C94AE0F88
:101FF000E894E8E3F6E0C895601509F468940EF4F7
:1020000093940E945B010EF00C9430100E947101B9
:10201000E6EBF3E00E94230504EF302E02E00F937D
:102020003F9200E3302E06E03A94F1F73A940A9595
:10203000D9F73F900F913A9491F70A9581F72DE2E5
:102040006BE40E943A0629E36BE40E943A062DE213
:102050006BE40E943A0629E30E943A060C94501061
:102060000E947101E8ECF3E00E94230504EF302E9A
:1020700002E00F933F9200E3302E06E03A94F1F72E
:102080003A940A95D9F73F900F913A9491F70A95AF
:1020900081F721EC6EE10E943A0621EC0E943A069B
:1020A000551B442733272227292D0FE4402E01E01A
:1020B000502E0E942B0553636F72653AC0120000C8
:1020C00000ED302E08E00F933F9200E3302E06E043
:1020D0003A94F1F73A940A95D9F73F900F913A94D0
:1020E00091F70A9581F70E947101EAE3F6E00E94F8
:1020F0002305ECE4F6E020E40E947D010E94230524
:102100000E9413010E949F25622F207809F00C94F1
:10211000BD10683441F70E947101E8E5F6E00E94C5
:102120002305EAE6F6E020E40E947D010E942305F3
:102130000E9413010E949F25622F207809F00C94C1
:10214000BD10683441F70E947101EAE7F6E00E9491
:102150002305E6E8F6E020E40E947D010E942305C5
:102160000E9413010E949F25622F207809F00C9491
:10217000BD10683441F70C947310E894E4E9F6E07C
:10218000C895601509F468940EF493940E945B015D
:102190000EF00C94F5100E947101E6EBF3E00E9442
:1021A000230504EF302E02E00F933F9200E3302E20
:1021B00006E03A94F1F73A940A95D9F73F900F91D7
:1021C0003A9491F70A9581F72DE26BE40E943A0662
:1021D00029E36BE40E943A062DE26BE40E943A0682
:1021E00029E30E943A060C9415110E947101E8EC53
:1021F000F3E00E94230504EF302E02E00F933F929C
:1022000000E3302E06E03A94F1F73A940A95D9F7B4
:102210003F900F913A9491F70A9581F721EC6EE186
:102220000E943A0621EC0E943A06551B44273327A8
:102230002227292D0FE4402E01E0502E0E942B056D
:1022400053636F72653AC012000000ED302E08E053
:102250000F933F9200E3302E06E03A94F1F73A9460
:102260000A95D9F73F900F913A9491F70A9581F723
:102270000E947101E6E9F6E00E942305E6EAF6E035
:1022800020E40E947D010E9423050E9413010E9408
:102290009F25622F207809F00C948211683441F751
:1022A0000E947101E4EBF6E00E942305E6ECF6E003
:1022B00020E40E947D010E9423050E9413010E94D8
:1022C0009F25622F207809F00C948211683441F721
:1022D0000E947101E4EDF6E00E942305E0EEF6E0D5
:1022E00020E40E947D010E9423050E9413010E94A8
:1022F0009F25622F207809F00C948211683441F7F1
:102300000C943811E894EEEEF6E0C895601509F4E7
:1023100068940EF493940E945B010EF00C94BA1131
:102320000E947101E6EBF3E00E94230504EF302EDA
:1023300002E00F933F9200E3302E06E03A94F1F76B
:102340003A940A95D9F73F900F913A9491F70A95EC
:1023500081F72DE26BE40E943A0629E36BE40E94C8
:102360003A062DE26BE40E943A0629E30E943A06FF
:102370000C94DA110E947101E8ECF3E00E9423054D
:1023800004EF302E02E00F933F9200E3302E06E080
:102390003A94F1F73A940A95D9F73F900F913A940D
:1023A00091F70A9581F721EC6EE10E943A0621EC43
:1023B0000E943A06551B442733272227292D0FE474
:1023C000402E01E0502E0E942B0553636F72653A38
:1023D000C012000000ED302E08E00F933F9200E3A2
:1023E000302E06E03A94F1F73A940A95D9F73F90E7
:1023F0000F913A9491F70A9581F70E947101E0EFED
:10240000F6E00E942305ECEFF6E020E40E947D0157
:102410000E9423050E9413010E949F25622F2078AD
:1024200009F00C944712683441F70E947101E6E00C
:10243000F7E00E942305E8E1F7E020E40E947D0137
:102440000E9423050E9413010E949F25622F20787D
:1024500009F00C944712683441F70E947101E6E2DA
:10246000F7E00E942305E0E3F7E020E40E947D010D
:102470000E9423050E9413010E949F25622F20784D
:1024800009F00C944712683441F70C94FD11E8945C
:10249000E8E3F7E0C895601509F468940EF49394A6
:1024A0000E945B010EF00C947F120E947101E6EB1A
:1024B000F3E00E94230504EF302E02E00F933F92D9
:1024C00000E3302E06E03A94F1F73A940A95D9F7F2
:1024D0003F900F913A9491F70A9581F72DE26BE4C2
:1024E0000E943A0629E36BE40E943A062DE26BE46F
:1024F0000E943A0629E30E943A060C949F120E9419
:102500007101E8ECF3E00E94230504EF302E02E0B5
:102510000F933F9200E3302E06E03A94F1F73A949D
:102520000A95D9F73F900F913A9491F70A9581F760
:1025300021EC6EE10E943A0621EC0E943A06551BFE
:10254000442733272227292D0FE4402E01E0502E67
:102550000E942B0553636F72653AC012000000EDB4
:10256000302E08E00F933F9200E3302E06E03A94BD
:10257000F1F73A940A95D9F73F900F913A9491F771
:102580000A9581F70E947101EAE3F7E00E942305B2
:10259000ECE4F7E020E40E947D010E9423050E9404
:1025A00013010E949F25622F207809F00C940C13D0
:1025B000683441F70E947101ECE5F7E00E942305C1
:1025C000EEE6F7E020E40E947D010E9423050E94D0
:1025D00013010E949F25622F207809F00C940C13A0
:1025E000683441F70E947101EEE7F7E00E9423058D
:1025F000ECE8F7E020E40E947D010E9423050E94A0
:1026000013010E949F25622F207809F00C940C136F
:10261000683441F70C94C212E894E6E9F7E0C895F3
:10262000601509F468940EF493940E945B010EF017
:102630000C9444130E947101E6EBF3E00E94230521
:1026400004EF302E02E00F933F9200E3302E06E0BD
:102650003A94F1F73A940A95D9F73F900F913A944A
:1026600091F70A9581F72DE26BE40E943A0629E37F
:102670006BE40E943A062DE26BE40E943A0629E3DD
:102680000E943A060C9464130E947101E8ECF3E096
:102690000E94230504EF302E02E00F933F9200E3E7
:1026A000302E06E03A94F1F73A940A95D9F73F9024
:1026B0000F913A9491F70A9581F721EC6EE10E940F
:1026C0003A0621EC0E943A06551B4427332722275D
:1026D000292D0FE4402E01E0502E0E942B0553635C
:1026E0006F72653AC012000000ED302E08E00F93C3
:1026F0003F9200E3302E06E03A94F1F73A940A95BF
:10270000D9F73F900F913A9491F70A9581F70E947B
:102710007101E8E9F7E00E942305E6EAF7E020E42A
:102720000E947D010E9423050E9413010E949F25A3
:10273000622F207809F00C94D113683441F70E947D
:102740007101E2EBF7E00E942305E4ECF7E020E4FE
:102750000E947D010E9423050E9413010E949F2573
:10276000622F207809F00C94D113683441F70E944D
:102770007101E0EDF7E00E942305EAEDF7E020E4C7
:102780000E947D010E9423050E9413010E949F2543
:10279000622F207809F00C94D113683441F70C941F
:1027A0008713E894E4EEF7E0C895601509F468949F
:1027B0000EF493940E945B010EF00C9409140E9495
:1027C0007101E6EBF3E00E94230504EF302E02E0F6
:1027D0000F933F9200E3302E06E03A94F1F73A94DB
:1027E0000A95D9F73F900F913A9491F70A9581F79E
:1027F0002DE26BE40E943A0629E36BE40E943A065C
:102800002DE26BE40E943A0629E30E943A060C94FA
:1028100029140E947101E8ECF3E00E94230504EF03
:10282000302E02E00F933F9200E3302E06E03A9400
:10283000F1F73A940A95D9F73F900F913A9491F7AE
:102840000A9581F721EC6EE10E943A0621EC0E9484
:102850003A06551B442733272227292D0FE4402E03
:1028600001E0502E0E942B0553636F72653AC0122F
:10287000000000ED302E08E00F933F9200E3302E71
:1028800006E03A94F1F73A940A95D9F73F900F9100
:102890003A9491F70A9581F70E947101E6EEF7E00C
:1028A0000E942305E8EFF7E020E40E947D010E94EA
:1028B00023050E9413010E949F25622F207809F0B2
:1028C0000C949614683441F70E947101E6E0F8E038
:1028D0000E942305EEE0F8E020E40E947D010E94C2
:1028E00023050E9413010E949F25622F207809F082
:1028F0000C949614683441F70E947101ECE1F8E001
:102900000E942305E6E2F8E020E40E947D010E9497
:1029100023050E9413010E949F25622F207809F051
:102920000C949614683441F70C944C14E894E8E342
:10293000F8E0C895601509F468940EF493940E9429
:102940005B010EF00C94CE140E947101E6EBF3E0F3
:102950000E94230504EF302E02E00F933F9200E324
:10296000302E06E03A94F1F73A940A95D9F73F9061
:102970000F913A9491F70A9581F72DE26BE40E944A
:102980003A0629E36BE40E943A062DE26BE40E94CA
:102990003A0629E30E943A060C94EE140E94710153
:1029A000E8ECF3E00E94230504EF302E02E00F93E1
:1029B0003F9200E3302E06E03A94F1F73A940A95FC
:1029C000D9F73F900F913A9491F70A9581F721EC4E
:1029D0006EE10E943A0621EC0E943A06551B4427FC
:1029E00033272227292D0FE4402E01E0502E0E948C
:1029F0002B0553636F72653AC012000000ED302E54
:102A000008E00F933F9200E3302E06E03A94F1F78E
:102A10003A940A95D9F73F900F913A9491F70A9515
:102A200081F70E947101EAE3F8E00E942305EAE4DD
:102A3000F8E020E40E947D010E9423050E9413011A
:102A40000E949F25622F207809F00C945B15683452
:102A500041F70E947101ECE5F8E00E942305EEE6E3
:102A6000F8E020E40E947D010E9423050E941301EA
:102A70000E949F25622F207809F00C945B15683422
:102A800041F70E947101ECE7F8E00E942305E4E8B9
:102A9000F8E020E40E947D010E9423050E941301BA
:102AA0000E949F25622F207809F00C945B156834F2
:102AB00041F70C941115E894E6E9F8E0C895601523
:102AC00009F468940EF493940E945B010EF00C9448
:102AD00093150E947101E6EBF3E00E94230504EFD9
:102AE000302E02E00F933F9200E3302E06E03A943E
:102AF000F1F73A940A95D9F73F900F913A9491F7EC
:102B00000A9581F72DE26BE40E943A0629E36BE413
:102B10000E943A062DE26BE40E943A0629E30E94E5
:102B20003A060C94B3150E947101E8ECF3E00E94A0
:102B3000230504EF302E02E00F933F9200E3302E86
:102B400006E03A94F1F73A940A95D9F73F900F913D
:102B50003A9491F70A9581F721EC6EE10E943A06CA
:102B600021EC0E943A06551B442733272227292DA2
:102B70000FE4402E01E0502E0E942B0553636F722C
:102B8000653AC012000000ED302E08E00F933F922E
:102B900000E3302E06E03A94F1F73A940A95D9F71B
:102BA0003F900F913A9491F70A9581F70E94710135
:102BB000E8E9F8E00E942305E6EAF8E020E40E9454
:102BC0007D010E9423050E9413010E949F25622F10
:102BD000207809F00C942016683441F70E947101A6
:102BE000E2EBF8E00E942305E0ECF8E020E40E942C
:102BF0007D010E9423050E9413010E949F25622FE0
:102C0000207809F00C942016683441F70E94710175
:102C1000E2EDF8E00E942305E0EEF8E020E40E94F7
:102C20007D010E9423050E9413010E949F25622FAF
:102C3000207809F00C942016683441F70C94D615CE
:102C4000E894E0EFF8E0C895601509F468940EF494
:102C500093940E945B010EF00C9458160E9471012F
:102C6000E6EBF3E00E94230504EF302E02E00F9321
:102C70003F9200E3302E06E03A94F1F73A940A9539
:102C8000D9F73F900F913A9491F70A9581F72DE289
:102C90006BE40E943A0629E36BE40E943A062DE2B7
:102CA0006BE40E943A0629E30E943A060C947816D7
:102CB0000E947101E8ECF3E00E94230504EF302E3E
:102CC00002E00F933F9200E3302E06E03A94F1F7D2
:102CD0003A940A95D9F73F900F913A9491F70A9553
:102CE00081F721EC6EE10E943A0621EC0E943A063F
:102CF000551B442733272227292D0FE4402E01E0BE
:102D0000502E0E942B0553636F72653AC01200006B
:102D100000ED302E08E00F933F9200E3302E06E0E6
:102D20003A94F1F73A940A95D9F73F900F913A9473
:102D300091F70A9581F705E0901610F40C94941819
:102D40000E947101EEE7F4E00E942305EEE8F4E052
:102D500020E40E947D010E94230520E661E40E9498
:102D60003A0604E0302E01E00F933F9200E3302E4C
:102D700006E03A94F1F73A940A95D9F73F900F910B
:102D80003A9491F70A9581F720E861E40E943A06A7
:102D900004E0302E01E00F933F9200E3302E06E076
:102DA0003A94F1F73A940A95D9F73F900F913A94F3
:102DB00091F70A9581F720E661E40E943A0604E063
:102DC000302E01E00F933F9200E3302E06E03A945C
:102DD000F1F73A940A95D9F73F900F913A9491F709
:102DE0000A9581F72CE461E40E943A0604E0302E53
:102DF00001E00F933F9200E3302E06E03A94F1F7A2
:102E00003A940A95D9F73F900F913A9491F70A9521
:102E100081F720E461E40E943A0604E0302E01E0EC
:102E20000F933F9200E3302E06E03A94F1F73A9484
:102E30000A95D9F73F900F913A9491F70A9581F747
:102E400020E361E40E943A0604E0302E01E00F9393
:102E50003F9200E3302E06E03A94F1F73A940A9557
:102E6000D9F73F900F913A9491F70A9581F726E2AE
:102E70006AEA0E943A0620E36AEA0E943A0602E3FE
:102E8000302E01E00F933F9200E3302E06E03A949B
:102E9000F1F73A940A95D9F73F900F913A9491F748
:102EA0000A9581F72BE561E40E943A0604E0302E92
:102EB00001E00F933F9200E3302E06E03A94F1F7E1
:102EC0003A940A95D9F73F900F913A9491F70A9561
:102ED00081F729E761E40E943A0604E0302E01E020
:102EE0000F933F9200E3302E06E03A94F1F73A94C4
:102EF0000A95D9F73F900F913A9491F70A9581F787
:102F00002BE561E40E943A0604E0302E01E00F93C5
:102F10003F9200E3302E06E03A94F1F73A940A9596
:102F2000D9F73F900F913A9491F70A9581F728E4E9
:102F300061E40E943A0604E0302E01E00F933F92D4
:102F400000E3302E06E03A94F1F73A940A95D9F767
:102F50003F900F913A9491F70A9581F72EE161E441
:102F60000E943A0604E0302E01E00F933F9200E306
:102F7000302E06E03A94F1F73A940A95D9F73F904B
:102F80000F913A9491F70A9581F72DE261E40E943E
:102F90003A0604E0302E01E00F933F9200E3302E1A
:102FA00006E03A94F1F73A940A95D9F73F900F91D9
:102FB0003A9491F70A9581F724E26AEA0E943A0668
:102FC0002DE26AEA0E943A0602E3302E01E00F93F6
:102FD0003F9200E3302E06E03A94F1F73A940A95D6
:102FE000D9F73F900F913A9491F70A9581F721E52F
:102FF00061E40E943A0604E0302E01E00F933F9214
:1030000000E3302E06E03A94F1F73A940A95D9F7A6
:103010003F900F913A9491F70A9581F72CE661E47D
:103020000E943A0604E0302E01E00F933F9200E345
:10303000302E06E03A94F1F73A940A95D9F73F908A
:103040000F913A9491F70A9581F721E561E40E9486
:103050003A0604E0302E01E00F933F9200E3302E59
:1030600006E03A94F1F73A940A95D9F73F900F9118
:103070003A9491F70A9581F720E461E40E943A06B8
:1030800004E0302E01E00F933F9200E3302E06E083
:103090003A94F1F73A940A95D9F73F900F913A9400
:1030A00091F70A9581F726E361E40E943A0604E06D
:1030B000302E01E00F933F9200E3302E06E03A9469
:1030C000F1F73A940A95D9F73F900F913A9491F716
:1030D0000A9581F728E26AEA0E943A0624E268EC3F
:1030E0000E943A060E947101EAE0F4E00E94230582
:1030F000ECE1F4E020E40E947D010E94230500EA57
:10310000302E00E10F933F9200E3302E06E03A9418
:10311000F1F73A940A95D9F73F900F913A9491F7C5
:103120000A9581F70C94510A0E947101E0EAF4E0DB
:103130000E942305E2EBF4E020E40E947D010E945E
:10314000230523E366E40E943A060CE3302E01E0F7
:103150000F933F9200E3302E06E03A94F1F73A9451
:103160000A95D9F73F900F913A9491F70A9581F714
:1031700024E266E40E943A060AE5302E01E00F934D
:103180003F9200E3302E06E03A94F1F73A940A9524
:10319000D9F73F900F913A9491F70A9581F724E27D
:1031A00066E40E943A060AE5302E01E00F933F9252
:1031B00000E3302E06E03A94F1F73A940A95D9F7F5
:1031C0003F900F913A9491F70A9581F724E266E4D3
:1031D0000E943A060AE5302E01E00F933F9200E389
:1031E000302E06E03A94F1F73A940A95D9F73F90D9
:1031F0000F913A9491F70A9581F724E266E40E94D0
:103200003A0604E0302E01E00F933F9200E3302EA7
:1032100006E03A94F1F73A940A95D9F73F900F9166
:103220003A9491F70A9581F726E266E40E943A06FD
:1032300004E0302E01E00F933F9200E3302E06E0D1
:103240003A94F1F73A940A95D9F73F900F913A944E
:1032500091F70A9581F72AE266E40E943A0604E0B3
:10326000302E01E00F933F9200E3302E06E03A94B7
:10327000F1F73A940A95D9F73F900F913A9491F764
:103280000A9581F720E36CE80E943A060CEB302E99
:1032900003E00F933F9200E3302E06E03A94F1F7FB
:1032A0003A940A95D9F73F900F913A9491F70A957D
:1032B00081F720E364E60E943A0620E464E60E9477
:1032C0003A062CE464E60E943A0626E364E60E948D
:1032D0003A0620E364E60E943A0626E364E60E948A
:1032E0003A062CE364E60E943A0626E364E60E946E
:1032F0003A062CE364E60E943A0620E460E50E9468
:103300003A0628E46CE30E943A0620E466E90E944B
:103310003A060C94510A0E947101E0E7F3E00E9422
:103320002305E4E9F3E020E40E947D010E942305E7
:1033300000ED302E08E00F933F9200E3302E06E0C0
:103340003A94F1F73A940A95D9F73F900F913A944D
:1033500091F70A9581F70E947101EAEFF3E00E946C
:10336000230500ED302E08E00F933F9200E3302E4E
:1033700006E03A94F1F73A940A95D9F73F900F9105
:103380003A9491F70A9581F700E0902E0E9471011E
:10339000E2EFF8E00E94230500ED302E08E00F93E5
:1033A0003F9200E3302E06E03A94F1F73A940A9502
:1033B000D9F73F900F913A9491F70A9581F70E94BF
:1033C000AF066C197D0928E030E0621773070AF038
:1033D0000C94EC190C94171A0E947101E8E2F9E0C0
:1033E0000E94230504EF302E02E00F933F9200E38A
:1033F000302E06E03A94F1F73A940A95D9F73F90C7
:103400000F913A9491F70A9581F72DE26BE40E94AF
:103410003A0629E36BE40E943A062DE26BE40E942F
:103420003A0629E30E943A0693940C94391A0E94B2
:103430007101ECE4F9E00E94230504EF302E02E074
:103440000F933F9200E3302E06E03A94F1F73A945E
:103450000A95D9F73F900F913A9491F70A9581F721
:1034600021EC6EE10E943A0621EC0E943A060C948F
:10347000391A0E947101E4E0F9E00E94230500ED91
:10348000302E08E00F933F9200E3302E06E03A948E
:10349000F1F73A940A95D9F73F900F913A9491F742
:1034A0000A9581F70E94AF066C197D0928E030E08B
:1034B00062177307A2F120E130E0621B730B0AF080
:1034C0000C94B11A0E945B010E947101E8E2F9E0DC
:1034D0000E94230504EF302E02E00F933F9200E399
:1034E000302E06E03A94F1F73A940A95D9F73F90D6
:1034F0000F913A9491F70A9581F72DE26BE40E94BF
:103500003A0629E36BE40E943A062DE26BE40E943E
:103510003A0629E30E943A0693940C94D31A0E9427
:103520007101ECE4F9E00E94230504EF302E02E083
:103530000F933F9200E3302E06E03A94F1F73A946D
:103540000A95D9F73F900F913A9491F70A9581F730
:1035500021EC6EE10E943A0621EC0E943A060C949E
:10356000D31A0E947101EEE5F9E00E94230504EFF1
:10357000302E02E00F933F9200E3302E06E03A94A3
:10358000F1F73A940A95D9F73F900F913A9491F751
:103590000A9581F721EC6EE10E943A0621EC0E9427
:1035A0003A060C94D31A0E947101E6E1F9E00E94F8
:1035B000230500ED302E08E00F933F9200E3302EFC
:1035C00006E03A94F1F73A940A95D9F73F900F91B3
:1035D0003A9491F70A9581F70E94AF066C197D091C
:1035E00020E130E0621773075AF10E947101E8E2AE
:1035F000F9E00E94230504EF302E02E00F933F9282
:1036000000E3302E06E03A94F1F73A940A95D9F7A0
:103610003F900F913A9491F70A9581F72DE26BE470
:103620000E943A0629E36BE40E943A062DE26BE41D
:103630000E943A0629E30E943A0693940C94421B96
:103640000E947101ECE4F9E00E94230504EF302EA2
:1036500002E00F933F9200E3302E06E03A94F1F738
:103660003A940A95D9F73F900F913A9491F70A95B9
:1036700081F721EC6EE10E943A0621EC0E943A06A5
:103680000C94421B02E0901610F40C943B1D0E9417
:103690007101E8E2F9E00E942305EAE3F9E020E4A1
:1036A0000E947D010E94230520E661E40E943A0603
:1036B00004E0302E01E00F933F9200E3302E06E04D
:1036C0003A94F1F73A940A95D9F73F900F913A94CA
:1036D00091F70A9581F720E861E40E943A0604E038
:1036E000302E01E00F933F9200E3302E06E03A9433
:1036F000F1F73A940A95D9F73F900F913A9491F7E0
:103700000A9581F720E661E40E943A0604E0302E33
:1037100001E00F933F9200E3302E06E03A94F1F778
:103720003A940A95D9F73F900F913A9491F70A95F8
:1037300081F72CE461E40E943A0604E0302E01E0B7
:103740000F933F9200E3302E06E03A94F1F73A945B
:103750000A95D9F73F900F913A9491F70A9581F71E
:1037600020E461E40E943A0604E0302E01E00F9369
:103770003F9200E3302E06E03A94F1F73A940A952E
:10378000D9F73F900F913A9491F70A9581F720E38A
:1037900061E40E943A0604E0302E01E00F933F926C
:1037A00000E3302E06E03A94F1F73A940A95D9F7FF
:1037B0003F900F913A9491F70A9581F726E26AEAD1
:1037C0000E943A0620E36AEA0E943A0602E3302E9B
:1037D00001E00F933F9200E3302E06E03A94F1F7B8
:1037E0003A940A95D9F73F900F913A9491F70A9538
:1037F00081F72BE561E40E943A0604E0302E01E0F7
:103800000F933F9200E3302E06E03A94F1F73A949A
:103810000A95D9F73F900F913A9491F70A9581F75D
:1038200029E761E40E943A0604E0302E01E00F939C
:103830003F9200E3302E06E03A94F1F73A940A956D
:10384000D9F73F900F913A9491F70A9581F72BE5BC
:1038500061E40E943A0604E0302E01E00F933F92AB
:1038600000E3302E06E03A94F1F73A940A95D9F73E
:103870003F900F913A9491F70A9581F728E461E41B
:103880000E943A0604E0302E01E00F933F9200E3DD
:10389000302E06E03A94F1F73A940A95D9F73F9022
:1038A0000F913A9491F70A9581F72EE161E40E9415
:1038B0003A0604E0302E01E00F933F9200E3302EF1
:1038C00006E03A94F1F73A940A95D9F73F900F91B0
:1038D0003A9491F70A9581F72DE261E40E943A0645
:1038E00004E0302E01E00F933F9200E3302E06E01B
:1038F0003A94F1F73A940A95D9F73F900F913A9498
:1039000091F70A9581F724E26AEA0E943A062DE2CD
:103910006AEA0E943A0602E3302E01E00F933F92DA
:1039200000E3302E06E03A94F1F73A940A95D9F77D
:103930003F900F913A9491F70A9581F721E561E460
:103940000E943A0604E0302E01E00F933F9200E31C
:10395000302E06E03A94F1F73A940A95D9F73F9061
:103960000F913A9491F70A9581F72CE661E40E9451
:103970003A0604E0302E01E00F933F9200E3302E30
:1039800006E03A94F1F73A940A95D9F73F900F91EF
:103990003A9491F70A9581F721E561E40E943A068D
:1039A00004E0302E01E00F933F9200E3302E06E05A
:1039B0003A94F1F73A940A95D9F73F900F913A94D7
:1039C00091F70A9581F720E461E40E943A0604E049
:1039D000302E01E00F933F9200E3302E06E03A9440
:1039E000F1F73A940A95D9F73F900F913A9491F7ED
:1039F0000A9581F726E361E40E943A0604E0302E3E
:103A000001E00F933F9200E3302E06E03A94F1F785
:103A10003A940A95D9F73F900F913A9491F70A9505
:103A200081F728E26AEA0E943A0624E268EC0E94E2
:103A30003A060E947101E0E3F4E00E942305E2E40B
:103A4000F4E020E40E947D010E94230500EA302E6C
:103A500000E10F933F9200E3302E06E03A94F1F735
:103A60003A940A95D9F73F900F913A9491F70A95B5
:103A700081F70C94510A0E947101E0EAF4E00E947F
:103A80002305E2EBF4E020E40E947D010E9423057F
:103A900023E366E40E943A060CE3302E01E00F9324
:103AA0003F9200E3302E06E03A94F1F73A940A95FB
:103AB000D9F73F900F913A9491F70A9581F724E254
:103AC00066E40E943A060AE5302E01E00F933F9229
:103AD00000E3302E06E03A94F1F73A940A95D9F7CC
:103AE0003F900F913A9491F70A9581F724E266E4AA
:103AF0000E943A060AE5302E01E00F933F9200E360
:103B0000302E06E03A94F1F73A940A95D9F73F90AF
:103B10000F913A9491F70A9581F724E266E40E94A6
:103B20003A060AE5302E01E00F933F9200E3302E73
:103B300006E03A94F1F73A940A95D9F73F900F913D
:103B40003A9491F70A9581F724E266E40E943A06D6
:103B500004E0302E01E00F933F9200E3302E06E0A8
:103B60003A94F1F73A940A95D9F73F900F913A9425
:103B700091F70A9581F726E266E40E943A0604E08E
:103B8000302E01E00F933F9200E3302E06E03A948E
:103B9000F1F73A940A95D9F73F900F913A9491F73B
:103BA0000A9581F72AE266E40E943A0604E0302E84
:103BB00001E00F933F9200E3302E06E03A94F1F7D4
:103BC0003A940A95D9F73F900F913A9491F70A9554
:103BD00081F720E36CE80E943A060CEB302E03E0FC
:103BE0000F933F9200E3302E06E03A94F1F73A94B7
:103BF0000A95D9F73F900F913A9491F70A9581F77A
:103C000020E364E60E943A0620E464E60E943A0655
:103C10002CE464E60E943A0626E364E60E943A0633
:103C200020E364E60E943A0626E364E60E943A0630
:103C30002CE364E60E943A0626E364E60E943A0614
:103C40002CE364E60E943A0620E460E50E943A060E
:103C500028E46CE30E943A0620E466E90E943A06F2
:103C60000C94510A0E947101E0E7F3E00E942305E1
:103C7000E6EAF3E020E40E947D010E94230500EDC6
:103C8000302E08E00F933F9200E3302E06E03A9486
:103C9000F1F73A940A95D9F73F900F913A9491F73A
:103CA0000A9581F70E947101E0E7F9E00E9423057F
:103CB000E0E8F9E020E40E947D010E94230500ED88
:103CC000302E08E00F933F9200E3302E06E03A9446
:103CD000F1F73A940A95D9F73F900F913A9491F7FA
:103CE0000A9581F70E947101E0E9F9E00E9423053D
:103CF000E2EAF9E020E40E947D010E94230500ED44
:103D0000302E08E00F933F9200E3302E06E03A9405
:103D1000F1F73A940A95D9F73F900F913A9491F7B9
:103D20000A9581F70E947101E4EBF9E00E942305F6
:103D3000E0E1FAE020E40E947D010E94230500ED0D
:103D4000302E08E00F933F9200E3302E06E03A94C5
:103D5000F1F73A940A95D9F73F900F913A9491F779
:103D60000A9581F70E945B010FE4402E01E0502E7E
:103D70000E942B052A2A2A2A2A2A2A2A2A2A2A2A79
:103D80002A2A2A2A000020E40E947D010FE4402E06
:103D900001E0502E0E942B052A2A2A2A2A2A2A2AA2
:103DA0002A2A2A2A2A2A2A2A000000E0902E00E045
:103DB000A02E0E9413010E949F25E894E6ECF9E0F2
:103DC000C895201509F468940EF4939420E40E9499
:103DD0007D010FE4402E01E0502E0E942B052A2A7F
:103DE0002A2A2A2A85162A2A2A2A2A2A2A2A000040
:103DF00027E40E947D010E9413010E949F25E89400
:103E0000E8ECF9E0C895201509F468940EF4939451
:103E10000FE4402E01E0502E0E942B058516000075
:103E200028E40E947D010E9413010E949F25E894CE
:103E3000EAECF9E0C895201509F468940EF493941F
:103E40000FE4402E01E0502E0E942B058516000045
:103E500000ED302E08E00F933F9200E3302E06E095
:103E60003A94F1F73A940A95D9F73F900F913A9422
:103E700091F70A9581F703E0901611F40C945B1FFB
:103E80000E947101E8ECF3E00E94230500ED302E62
:103E900008E00F933F9200E3302E06E03A94F1F7EA
:103EA0003A940A95D9F73F900F913A9491F70A9571
:103EB00081F70C94771F0E947101E6EBF3E00E94FA
:103EC000230500ED302E08E00F933F9200E3302EE3
:103ED00006E03A94F1F73A940A95D9F73F900F919A
:103EE0003A9491F70A9581F7A3940C94771F00E018
:103EF000902E0E947101E0E9F9E00E942305E2EAB8
:103F0000F9E020E40E947D010E94230500ED302E9F
:103F100008E00F933F9200E3302E06E03A94F1F769
:103F20003A940A95D9F73F900F913A9491F70A95F0
:103F300081F70E947101ECECF9E00E942305E0E1B9
:103F4000FAE020E40E947D010E94230500ED302E5E
:103F500008E00F933F9200E3302E06E03A94F1F729
:103F60003A940A95D9F73F900F913A9491F70A95B0
:103F700081F70E945B010FE4402E01E0502E0E9469
:103F80002B052A2A2A2A2A2A2A2A2A2A2A2A2A2AB5
:103F90002A2A000020E40E947D010FE4402E01E067
:103FA000502E0E942B052A2A2A2A2A2A2A2A2A2A1D
:103FB0002A2A2A2A2A2A00000E9413010E949F25E9
:103FC000E894EEEDF9E0C895201509F468940EF434
:103FD000939420E40E947D010FE4402E01E0502ED6
:103FE0000E942B052A2A2A2A2A85162A2A2A2A2AC0
:103FF0002A2A2A2A000026E40E947D010E94130139
:104000000E949F25E894E0EEF9E0C895201509F498
:1040100068940EF493940FE4402E01E0502E0E9419
:104020002B058516000027E40E947D010E941301E4
:104030000E949F25E894E2EEF9E0C895201509F466
:1040400068940EF493940FE4402E01E0502E0E94E9
:104050002B058516000028E40E947D010E941301B3
:104060000E949F25E894E4EEF9E0C895201509F434
:1040700068940EF493940FE4402E01E0502E0E94B9
:104080002B058516000029E40E947D010E94130182
:104090000E949F25E894E6EEF9E0C895201509F402
:1040A00068940EF493940FE4402E01E0502E0E9489
:1040B0002B05851600002AE40E947D010E94130151
:1040C0000E949F25E894E8EEF9E0C895201509F4D0
:1040D00068940EF493940FE4402E01E0502E0E9459
:1040E0002B058516000000ED302E08E00F933F925F
:1040F00000E3302E06E03A94F1F73A940A95D9F7A6
:104100003F900F913A9491F70A9581F706E0901647
:1041100011F40C94A6200E947101E8ECF3E00E94D7
:10412000230500ED302E08E00F933F9200E3302E80
:1041300006E03A94F1F73A940A95D9F73F900F9137
:104140003A9491F70A9581F70C94C2200E9471016C
:10415000E6EBF3E00E94230500ED302E08E00F931C
:104160003F9200E3302E06E03A94F1F73A940A9534
:10417000D9F73F900F913A9491F70A9581F7A3945C
:104180000C94C22000E0902E0E947101E0E9F9E059
:104190000E942305E2EAF9E020E40E947D010E94EA
:1041A000230500ED302E08E00F933F9200E3302E00
:1041B00006E03A94F1F73A940A95D9F73F900F91B7
:1041C0003A9491F70A9581F70E947101EAEEF9E0BD
:1041D0000E942305E0E1FAE020E40E947D010E94B4
:1041E000230500ED302E08E00F933F9200E3302EC0
:1041F00006E03A94F1F73A940A95D9F73F900F9177
:104200003A9491F70A9581F70E945B010FE4402EE2
:1042100001E0502E0E942B052A2A2A2A2A2A2A2A1D
:104220002A2A2A2A2A2A2A2A000020E40E947D011A
:104230000FE4402E01E0502E0E942B052A2A2A2A44
:104240002A2A2A2A2A2A2A2A2A2A2A2A00000E94D4
:1042500013010E949F25E894ECEFF9E0C895201522
:1042600009F468940EF4939420E40E947D010FE415
:10427000402E01E0502E0E942B052A2A2A85162A5C
:104280002A2A2A2A2A2A2A2A2A2A2A0024E40E94B6
:104290007D010E9413010E949F25E894EEEFF9E052
:1042A000C895201509F468940EF493940FE4402EF9
:1042B00001E0502E0E942B058516000025E40E9487
:1042C0007D010E9413010E949F25E894E0E0FAE03E
:1042D000C895201509F468940EF493940FE4402EC9
:1042E00001E0502E0E942B058516000026E40E9456
:1042F0007D010E9413010E949F25E894E2E0FAE00C
:10430000C895201509F468940EF493940FE4402E98
:1043100001E0502E0E942B058516000027E40E9424
:104320007D010E9413010E949F25E894E4E0FAE0D9
:10433000C895201509F468940EF493940FE4402E68
:1043400001E0502E0E942B058516000028E40E94F3
:104350007D010E9413010E949F25E894E6E0FAE0A7
:10436000C895201509F468940EF493940FE4402E38
:1043700001E0502E0E942B058516000029E40E94C2
:104380007D010E9413010E949F25E894E8E0FAE075
:10439000C895201509F468940EF493940FE4402E08
:1043A00001E0502E0E942B05851600002AE40E9491
:1043B0007D010E9413010E949F25E894EAE0FAE043
:1043C000C895201509F468940EF493940FE4402ED8
:1043D00001E0502E0E942B05851600002BE40E9460
:1043E0007D010E9413010E949F25E894ECE0FAE011
:1043F000C895201509F468940EF493940FE4402EA8
:1044000001E0502E0E942B05851600002CE40E942E
:104410007D010E9413010E949F25E894EEE0FAE0DE
:10442000C895201509F468940EF493940FE4402E77
:1044300001E0502E0E942B058516000000ED302E65
:1044400008E00F933F9200E3302E06E03A94F1F734
:104450003A940A95D9F73F900F913A9491F70A95BB
:1044600081F70AE0901611F40C9451220E94710118
:10447000E8ECF3E00E94230500ED302E08E00F93F6
:104480003F9200E3302E06E03A94F1F73A940A9511
:10449000D9F73F900F913A9491F70A9581F70C94D0
:1044A0006D220E947101E6EBF3E00E94230500ED0E
:1044B000302E08E00F933F9200E3302E06E03A944E
:1044C000F1F73A940A95D9F73F900F913A9491F702
:1044D0000A9581F7A3940C946D2202E0A01610F4C3
:1044E0000C9466240E947101EEE7F4E00E9423051B
:1044F000EEE8F4E020E40E947D010E94230520E61E
:1045000061E40E943A0604E0302E01E00F933F92EE
:1045100000E3302E06E03A94F1F73A940A95D9F781
:104520003F900F913A9491F70A9581F720E861E462
:104530000E943A0604E0302E01E00F933F9200E320
:10454000302E06E03A94F1F73A940A95D9F73F9065
:104550000F913A9491F70A9581F720E661E40E9461
:104560003A0604E0302E01E00F933F9200E3302E34
:1045700006E03A94F1F73A940A95D9F73F900F91F3
:104580003A9491F70A9581F72CE461E40E943A0687
:1045900004E0302E01E00F933F9200E3302E06E05E
:1045A0003A94F1F73A940A95D9F73F900F913A94DB
:1045B00091F70A9581F720E461E40E943A0604E04D
:1045C000302E01E00F933F9200E3302E06E03A9444
:1045D000F1F73A940A95D9F73F900F913A9491F7F1
:1045E0000A9581F720E361E40E943A0604E0302E48
:1045F00001E00F933F9200E3302E06E03A94F1F78A
:104600003A940A95D9F73F900F913A9491F70A9509
:1046100081F726E26AEA0E943A0620E36AEA0E94EB
:104620003A0602E3302E01E00F933F9200E3302E72
:1046300006E03A94F1F73A940A95D9F73F900F9132
:104640003A9491F70A9581F72BE561E40E943A06C6
:1046500004E0302E01E00F933F9200E3302E06E09D
:104660003A94F1F73A940A95D9F73F900F913A941A
:1046700091F70A9581F729E761E40E943A0604E080
:10468000302E01E00F933F9200E3302E06E03A9483
:10469000F1F73A940A95D9F73F900F913A9491F730
:1046A0000A9581F72BE561E40E943A0604E0302E7A
:1046B00001E00F933F9200E3302E06E03A94F1F7C9
:1046C0003A940A95D9F73F900F913A9491F70A9549
:1046D00081F728E461E40E943A0604E0302E01E00C
:1046E0000F933F9200E3302E06E03A94F1F73A94AC
:1046F0000A95D9F73F900F913A9491F70A9581F76F
:104700002EE161E40E943A0604E0302E01E00F93AE
:104710003F9200E3302E06E03A94F1F73A940A957E
:10472000D9F73F900F913A9491F70A9581F72DE2CE
:1047300061E40E943A0604E0302E01E00F933F92BC
:1047400000E3302E06E03A94F1F73A940A95D9F74F
:104750003F900F913A9491F70A9581F724E26AEA23
:104760000E943A062DE26AEA0E943A0602E3302EDF
:1047700001E00F933F9200E3302E06E03A94F1F708
:104780003A940A95D9F73F900F913A9491F70A9588
:1047900081F721E561E40E943A0604E0302E01E051
:1047A0000F933F9200E3302E06E03A94F1F73A94EB
:1047B0000A95D9F73F900F913A9491F70A9581F7AE
:1047C0002CE661E40E943A0604E0302E01E00F93EB
:1047D0003F9200E3302E06E03A94F1F73A940A95BE
:1047E000D9F73F900F913A9491F70A9581F721E517
:1047F00061E40E943A0604E0302E01E00F933F92FC
:1048000000E3302E06E03A94F1F73A940A95D9F78E
:104810003F900F913A9491F70A9581F720E461E473
:104820000E943A0604E0302E01E00F933F9200E32D
:10483000302E06E03A94F1F73A940A95D9F73F9072
:104840000F913A9491F70A9581F726E361E40E946B
:104850003A0604E0302E01E00F933F9200E3302E41
:1048600006E03A94F1F73A940A95D9F73F900F9100
:104870003A9491F70A9581F728E26AEA0E943A068B
:1048800024E268EC0E943A060E947101E6E5F4E039
:104890000E942305E8E6F4E020E40E947D010E94E6
:1048A000230500EA302E00E10F933F9200E3302E03
:1048B00006E03A94F1F73A940A95D9F73F900F91B0
:1048C0003A9491F70A9581F70C94510A0E9471016C
:1048D000E0EAF4E00E942305E2EBF4E020E40E9429
:1048E0007D010E94230523E366E40E943A060CE35F
:1048F000302E01E00F933F9200E3302E06E03A9411
:10490000F1F73A940A95D9F73F900F913A9491F7BD
:104910000A9581F724E266E40E943A060AE5302E01
:1049200001E00F933F9200E3302E06E03A94F1F756
:104930003A940A95D9F73F900F913A9491F70A95D6
:1049400081F724E266E40E943A060AE5302E01E08F
:104950000F933F9200E3302E06E03A94F1F73A9439
:104960000A95D9F73F900F913A9491F70A9581F7FC
:1049700024E266E40E943A060AE5302E01E00F9335
:104980003F9200E3302E06E03A94F1F73A940A950C
:10499000D9F73F900F913A9491F70A9581F724E265
:1049A00066E40E943A0604E0302E01E00F933F9245
:1049B00000E3302E06E03A94F1F73A940A95D9F7DD
:1049C0003F900F913A9491F70A9581F726E266E4B9
:1049D0000E943A0604E0302E01E00F933F9200E37C
:1049E000302E06E03A94F1F73A940A95D9F73F90C1
:1049F0000F913A9491F70A9581F72AE266E40E94B2
:104A00003A0604E0302E01E00F933F9200E3302E8F
:104A100006E03A94F1F73A940A95D9F73F900F914E
:104A20003A9491F70A9581F720E36CE80E943A06E0
:104A30000CEB302E03E00F933F9200E3302E06E0A4
:104A40003A94F1F73A940A95D9F73F900F913A9436
:104A500091F70A9581F720E364E60E943A0620E484
:104A600064E60E943A062CE464E60E943A0626E3D5
:104A700064E60E943A0620E364E60E943A0626E3D2
:104A800064E60E943A062CE364E60E943A0626E3B6
:104A900064E60E943A062CE364E60E943A0620E4AB
:104AA00060E50E943A0628E46CE30E943A0620E49E
:104AB00066E90E943A060C94510A0E947101EEE5E3
:104AC000F5E00E942305E0E7F5E020E40E947D0187
:104AD0000E94230500ED302E08E00F933F9200E383
:104AE000302E06E03A94F1F73A940A95D9F73F90C0
:104AF0000F913A9491F70A9581F70E947101E2E2D1
:104B0000FAE00E942305E4E3FAE020E40E947D013C
:104B10000E94230500ED302E08E00F933F9200E342
:104B2000302E06E03A94F1F73A940A95D9F73F907F
:104B30000F913A9491F70A9581F70C941107822E00
:0C4B400008E1801609F40C941107089598
:00000001FF
