:020000020000FC
:100000000FEF0DBF00E10EBFC4D10FEF07BB00E043
:1000100001BBE5C1FF91EF91EE0FFF1FAF93BF93BF
:10002000C8953196002021F04AF0002D13D0F8CF6A
:100030003196F695E795BF91AF91099400FA002D9E
:10004000C895A02DBB273196043879F0053881F08A
:1000500015C0E6CF2F93FF93EF93E42DF52D202FBE
:100060000995EF91FF912F9108950C91F3DFD8CF6F
:100070000D91002309F4D4CFEDDFFACF5F934F93B6
:100080003F932F939F938F937F936F932D913D91E8
:100090004D915D9106FD06C005FD0FC004FD10C029
:1000A00003FD19C06AE0702F76957770729580E035
:1000B000902F9295937093951AC062E094E003C0DC
:1000C00060E194E000C0702F7695777009F478E0D5
:1000D000729580E00CC06AE0C895802D3196C89575
:1000E000702D3196902F95959370939500C0943014
:1000F00081F0933051F0923021F0332716F427FD30
:100100003FEF442716F437FD4FEF552716F447FD10
:100110005FEF09D06F917F918F919F912F913F91C8
:100120004F915F917DCFCF92BF92AF929F928F926E
:10013000BB18AA249924882486F4E89455236AF4E9
:100140006894772309F0705150954095309520952B
:100150000FEF201B300B400B500B882351F05595AF
:10016000479537952795B794A794979487948A9540
:10017000B1F77F9372957F700EE20F9345D00C2DEF
:1001800030D00F930027201730074007500729F081
:100190007723A1F37A9591F707C0772329F07A9511
:1001A00019F000E257DFF9CF16F40DE253DF0F919B
:1001B0000E3211F04FDFFBCF7F917F70772359F024
:1001C00049DF282D392D4A2D5B2D11D00C2D09D05A
:1001D00041DF7A95D1F78F909F90AF90BF90CF90ED
:1001E00008950A3010F4005D0895095A0895CC244A
:1001F00000E2889420FDC60EC79457954795379521
:1002000027950A95B1F70895CC2400E2221F331FE9
:10021000441F551FCC1CC61A08F4C60E0A95B1F728
:10022000221F331F441F551F509540953095209530
:10023000089557454C434F4D4520544F20004D43A2
:100240005520504152545900312E20504C415920D4
:1002500047414D450000322E204F50454E2053411E
:1002600046450000312E20545249564941205155EF
:10027000495A0000322E20425554544F4E204441DA
:100280004E434500454E5445522050415353434F31
:1002900044450000494E434F52524543542050417B
:1002A0005353434F44450000434F4E47524154552A
:1002B0004C4154494F4E532C2000594F552057491B
:1002C0004E20544849532047414D45202100544871
:1002D000414E4B5320464F520000504C4159494E1D
:1002E0004721203A440057484F2053494E47532056
:1002F00042494C4C4945204A45414E3F0000412E61
:10030000204D49434841454C204A41434B534F4EB1
:100310000000422E20545241435920434841504D41
:10032000414E0000747269766961203A2900627555
:1003300074746F6E203A29003090008037FCFCCF37
:1003400003D000930080089500D0000008952D3060
:1003500079F12A30B9F10091008007FDFCCFF4DF7C
:10036000209300C0089501E0E7CF02E0E5CF00E16F
:10037000E3CF04E1E1CF08E1DFCF0CE1DDCF0DE019
:10038000DBCF0CE0D9CF0EE0D7CF0CE0D5CF0FE01C
:10039000D3CF05B7006C05BF01E0CEDF06E0CCDFB0
:1003A0000CE0CADF08E3C8DF0895022F0068C4CF5D
:1003B0000091008007FDFCCF00740068C5DF00934A
:1003C000008008952F9320E4F0DF2F910895C895C1
:1003D000002021F0202DBBDF3196F9CF0895C3DF37
:1003E0000E94C901E2E3F2E00E94E701EEE3F2E0DD
:1003F00020E40E94D5010E94E70100ED302E08E0C4
:100400000F933F9200E3302E06E03A94F1F73A94CE
:100410000A95D9F73F900F913A9491F70A9581F791
:1004200009D062FF78D061FF1AD061FF40D062FF2F
:1004300058D0D5CF0E94C901E8E4F2E00E94E7015C
:10044000E6E5F2E020E40E94D5010E94E70160B3F6
:1004500068BB6D3F11F06B3F09F40895EBCF0E942C
:10046000C901E4E6F2E00E94E701E4E7F2E020E4FB
:100470000E94D5010E94E70100ED302E08E00F93A5
:100480003F9200E3302E06E03A94F1F73A940A9551
:10049000D9F73F900F913A9491F70A9581F760B39D
:1004A00068BB6D3F11F06B3F09F40895D8CF0E94EF
:1004B000C901E4E2F3E00E94E70100ED302E08E01C
:1004C0000F933F9200E3302E06E03A94F1F73A940E
:1004D0000A95D9F73F900F913A9491F70A9581F7D1
:1004E000A9CF0E94C901EEE2F3E00E94E70100ED0E
:1004F000302E08E00F933F9200E3302E06E03A944E
:10050000F1F73A940A95D9F73F900F913A9491F701
:100510000A9581F78FCF0E94C901E4E8F2E00E94BA
:10052000E70100C00E94C901EEECF2E00E94E70181
:10053000EAEDF2E020E40E94D5010E94E701F2CF4B
:00000001FF
