:020000020000FC
:100000000C9400040C940A000C940F000C9414003F
:100010000C94190001E0102E01E0E02E0FC002E068
:10002000102E02E0E02E0AC004E0102E04E0E02EC4
:1000300005C008E0102E08E0E02E00C00FEF02BB64
:100040000EE1302E01E00F933F9200E3302E06E0E8
:100050003A94F1F73A940A95D9F73F900F913A9470
:1000600091F70A9581F70FE702BB0EE1302E01E010
:100070000F933F9200E3302E06E03A94F1F73A9462
:100080000A95D9F73F900F913A9491F70A9581F725
:1000900000B30E21002319F400E4202E8DC00EE1E0
:1000A000302E01E00F933F9200E3302E06E03A94A9
:1000B000F1F73A940A95D9F73F900F913A9491F756
:1000C0000A9581F70FEB02BB0EE1302E01E00F9392
:1000D0003F9200E3302E06E03A94F1F73A940A9505
:1000E000D9F73F900F913A9491F70A9581F700B3B1
:1000F0000E21002319F400E8202E5EC00EE1302E00
:1001000001E00F933F9200E3302E06E03A94F1F7BE
:100110003A940A95D9F73F900F913A9491F70A953E
:1001200081F70FED02BB0EE1302E01E00F933F92FD
:1001300000E3302E06E03A94F1F73A940A95D9F7A5
:100140003F900F913A9491F70A9581F700B30E21F1
:10015000002319F400E2202E2FC00EE1302E01E022
:100160000F933F9200E3302E06E03A94F1F73A9471
:100170000A95D9F73F900F913A9491F70A9581F734
:100180000FEE02BB0EE1302E01E00F933F9200E331
:10019000302E06E03A94F1F73A940A95D9F73F9059
:1001A0000F913A9491F70A9581F700B30E2100233D
:1001B00019F400E1202E00C01AE00FEFF02E0FE03E
:1001C00002BB18953090008037FCFCCF03D0009321
:1001D0000080089500D0000008952D3079F12A3074
:1001E000B9F10091008007FDFCCFF4DF209300C03F
:1001F000089501E0E7CF02E0E5CF00E1E3CF04E1BD
:10020000E1CF08E1DFCF0CE1DDCF0DE0DBCF0CE08B
:10021000D9CF0EE0D7CF0CE0D5CF0FE0D3CF05B7C5
:10022000006C05BF01E0CEDF06E0CCDF0CE0CADFEA
:1002300008E3C8DF0895022F0068C4CF0091008052
:1002400007FDFCCF00740068C5DF009300800895AF
:100250002F9320E4F0DF2F910895FF91EF91EE0F9F
:10026000FF1FAF93BF93C8953196002021F04AF04D
:10027000002D13D0F8CF3196F695E795BF91AF9149
:10028000099400FA002DC895A02DBB27319604389B
:1002900079F0053881F015C0E6CF2F93FF93EF93E7
:1002A000E42DF52D202F0995EF91FF912F910895C1
:1002B0000C91F3DFD8CF0D91002309F4D4CFEDDFFB
:1002C000FACF5F934F933F932F939F938F937F9397
:1002D0006F932D913D914D915D9106FD06C005FDF9
:1002E0000FC004FD10C003FD19C06AE0702F7695A1
:1002F0007770729580E0902F9295937093951AC0C5
:1003000062E094E003C060E194E000C0702F769555
:10031000777009F478E0729580E00CC06AE0C895C7
:10032000802D3196C895702D3196902F95959370AC
:10033000939500C0943081F0933051F0923021F0C9
:10034000332716F427FD3FEF442716F437FD4FEF10
:10035000552716F447FD5FEF09D06F917F918F917C
:100360009F912F913F914F915F917DCFCF92BF92FF
:10037000AF929F928F92BB18AA249924882486F466
:10038000E89455236AF46894772309F070515095E6
:100390004095309520950FEF201B300B400B500BF4
:1003A000882351F05595479537952795B794A7948D
:1003B000979487948A95B1F77F9372957F700EE238
:1003C0000F9345D00C2D30D00F9300272017300706
:1003D0004007500729F07723A1F37A9591F707C0DA
:1003E000772329F07A9519F000E257DFF9CF16F458
:1003F0000DE253DF0F910E3211F04FDFFBCF7F91F3
:100400007F70772359F049DF282D392D4A2D5B2D38
:1004100011D00C2D09D041DF7A95D1F78F909F90A4
:10042000AF90BF90CF9008950A3010F4005D08950A
:10043000095A0895CC2400E2889420FDC60EC79482
:1004400057954795379527950A95B1F70895CC2488
:1004500000E2221F331F441F551FCC1CC61A08F48C
:10046000C60E0A95B1F7221F331F441F551F509522
:08047000409530952095089598
:100800000FEF0DBF00E10EBF0ADD00EF01BB0FE0EF
:1008100002BB0FEF07BB0FE009BF00E00ABF129A4F
:100820000DEE402E00E0502E0E942D010D0D68654A
:100830006C6C6F20776F726C640022241124FF248B
:100840003327442755277727882799277894FF202F
:10085000F1F3FF242227210D220D662721FD6C5F75
:1008600022FD685F23FD645F25FD6F5F26FD6E5FDF
:1008700027FD6D5FE62FFF27EE55F74FC895602DDA
:100880000DEE402E00E0502E0E942D010D0A4B501F
:10089000443D94122061736369693D851600000030
:1008A000D6CF3132334134353642373839432A30A6
:0408B00023440000DD
:00000001FF
