:020000020000FC
:100000000C94C5050C9422000C9427000C942C0031
:040010000C9431001B
:100040000C94FD0001E0102E01E0E02E0FC002E054
:10005000102E02E0E02E0AC004E0102E04E0E02E94
:1000600005C008E0102E08E0E02E00C00FEF02BB34
:100070000EE1302E01E00F933F9200E3302E06E0B8
:100080003A94F1F73A940A95D9F73F900F913A9440
:1000900091F70A9581F70FE702BB0EE1302E01E0E0
:1000A0000F933F9200E3302E06E03A94F1F73A9432
:1000B0000A95D9F73F900F913A9491F70A9581F7F5
:1000C00000B30E21002319F400E4202E8CC00EE1B1
:1000D000302E01E00F933F9200E3302E06E03A9479
:1000E000F1F73A940A95D9F73F900F913A9491F726
:1000F0000A9581F70FEB02BB0EE1302E01E00F9362
:100100003F9200E3302E06E03A94F1F73A940A95D4
:10011000D9F73F900F913A9491F70A9581F700B380
:100120000E21002319F400E8202E5DC00EE1302ED0
:1001300001E00F933F9200E3302E06E03A94F1F78E
:100140003A940A95D9F73F900F913A9491F70A950E
:1001500081F70FED02BB0EE1302E01E00F933F92CD
:1001600000E3302E06E03A94F1F73A940A95D9F775
:100170003F900F913A9491F70A9581F700B30E21C1
:10018000002319F400E2202E2EC00EE1302E01E0F3
:100190000F933F9200E3302E06E03A94F1F73A9441
:1001A0000A95D9F73F900F913A9491F70A9581F704
:1001B0000FEE02BB0EE1302E01E00F933F9200E301
:1001C000302E06E03A94F1F73A940A95D9F73F9029
:1001D0000F913A9491F70A9581F700B30E2100230D
:1001E00011F400E1202E1AE00FEFF02E25E56EE16C
:1001F0000E9410050FE002BB189500E007BF18959C
:1002000000EF01BB0FE002BB0FEF07BB0FE009BF20
:1002100000E00ABF22241124FF2433274427552756
:1002200077278827992778940C941601FF20F1F3FB
:10023000FF242227210D220D6627822E21FD6C5FCF
:1002400022FD685F23FD645F25FD6F5F26FD6E5F05
:1002500027FD6D5FE62FFF27E850FD4FC895602D05
:1002600008953090008037FCFCCF03D000930080CD
:10027000089500D0000008952D3079F12A30B9F1A9
:100280000091008007FDFCCFF4DF209300C00895AB
:1002900001E0E7CF02E0E5CF00E1E3CF04E1E1CF09
:1002A00008E1DFCF0CE1DDCF0DE0DBCF0CE0D9CFF3
:1002B0000EE0D7CF0CE0D5CF0FE0D3CF05B7006C61
:1002C00005BF01E0CEDF06E0CCDF0CE0CADF08E3CB
:1002D000C8DF0895022F0068C4CF0091008007FD99
:1002E000FCCF00740068C5DF0093008008952F9351
:1002F00020E4F0DF2F910895313233413435364216
:10030000373839432A302344000057454C434F4D7A
:100310004520544F20004D43552050415254590020
:10032000412E20504C41592047414D450000422E5E
:10033000204F50454E2053414645000057656C63A1
:100340006F6D6520746F2074686500007472697643
:1003500069612067616D65203A290000626F6172F2
:1003600064206973206C617661203A290000436F34
:10037000727265637421000046616C736521000030
:10038000416E7377657220352F313020636F2D00F9
:1003900072726563746C7920746F2077696E0000E7
:1003A00057696E20322F3320746F2077696E0000FA
:1003B00031737420636C75653A00534E4F57205764
:1003C000484954450000434F4E47524154554C4113
:1003D00054494F4E5300594F552057494E00594FDD
:1003E00055204C4F53452C00545259204147414908
:1003F0004E00412E20545249564941205155495AE8
:100400000000422E204C41564120424F41524400B0
:10041000454E5445522050415353434F44450000EC
:10042000494E434F52524543542050415353434F3A
:1004300044450000434F4E47524154554C415449A6
:100440004F4E532C2000594F552057494E205448A9
:1004500049532047414D452021005448414E4B53BC
:1004600020464F520000504C4159494E4721203AF6
:10047000440057686F2077726F7465207468650058
:10048000736F6E672027746872696C6C6572273FA2
:100490000000412E20504C4159424F4920434152C7
:1004A00054490000422E20545241435920434841B0
:1004B000504D414E0000432E20412E205343484DC5
:1004C00049440000442E204D2E204A41434B534FB7
:1004D0004E00880057686F20706C61797300486522
:1004E000726D696F6E653F00412E20454D4D412074
:1004F000574154534F4E0000422E20454D4D412050
:1005000053544F4E4500432E20504C4159424F49C1
:100510002043415254490000442E205A4F45205355
:10052000414C44414E410000810057686963682096
:1005300062616E642077726F746500002768657968
:1005400020796F7527203F00412E20504C415942A1
:100550004F492043415254490000422E204C45440B
:10056000205A4550504C494E0000432E204A4F55CA
:10057000524E45590000442E2050494E4B20464CC7
:100580004F594400880057686F2077726F74652058
:100590002741697200006F6E204720737472696E84
:1005A00067273F00412E20504C4159424F4920437C
:1005B000415254490000422E2042454554484F566E
:1005C000454E0000432E20534348554245525400A7
:1005D000442E204A2E532E204241434800008800DA
:1005E00057686F2074656163686573004D435520DB
:1005F000626573743F00412E20504C4159424F496F
:100600002043415254490000422E20412E205343A2
:10061000484D49440000432E204D2E20414C4900B6
:10062000442E204352203700820057686F20776F96
:100630006E207468652032303232000046494641EF
:1006400020576F726C64204375703F00412E20501C
:100650004C4159424F492043415254490000422ED7
:1006600020535749545A45524C414E440000432EA2
:1006700020415247454E54494E410000442E2046E9
:1006800052414E434500840057686963682064699D
:100690007368206973006E6F742073776973733F9A
:1006A0000000412E20504C4159424F4920434152B5
:1006B00054490000422E205241434C4554544500B9
:1006C000432E20464F4E44554500442E20524F4560
:1006D000535449008100576861742773207468651A
:1006E00020636170692D000074616C206F66204C7E
:1006F000616F733F0000412E204C414F5300422E4A
:10070000205649454E5449414E450000432E20563F
:10071000454E49434500442E20504C4159424F49D3
:100720002043415254490000820057686174277386
:100730002074686520626573740073656374696F03
:100740006E206174204550464C3F0000412E204CE5
:1007500049464520534349454E4345530000422EE8
:10076000204D4943524F544543480000432E2045F5
:100770004C454300442E20504C4159424F492043A0
:10078000415254490000840057686F2077726F749B
:10079000652074686500736F6E672027736B792717
:1007A0003F00412E204B414E5945205745535400A0
:1007B000422E20504C4159424F4920434152544906
:1007C0000000432E20412E205343484D4944000051
:1007D000442E205441594C4F5220535749465400FF
:1007E000820052656163682032354320696E20358E
:1007F0007300C895002021F0202D3EDD3196F9CF01
:100800000895FF91EF91EE0FFF1FAF93BF93C8952F
:100810003196002021F04AF0002D13D0F8CF319608
:10082000F695E795BF91AF91099400FA002DC89510
:10083000A02DBB273196043879F0053881F015C01A
:10084000E6CF2F93FF93EF93E42DF52D202F0995FD
:10085000EF91FF912F9108950C91F3DFD8CF0D9177
:10086000002309F4D4CFEDDFFACF5F934F933F938A
:100870002F939F938F937F936F932D913D914D91E4
:100880005D9106FD06C005FD0FC004FD10C003FD0F
:1008900019C06AE0702F76957770729580E0902F7E
:1008A0009295937093951AC062E094E003C060E162
:1008B00094E000C0702F7695777009F478E0729517
:1008C00080E00CC06AE0C895802D3196C895702DE7
:1008D0003196902F95959370939500C0943081F048
:1008E000933051F0923021F0332716F427FD3FEF7B
:1008F000442716F437FD4FEF552716F447FD5FEFF9
:1009000009D06F917F918F919F912F913F914F913E
:100910005F917DCFCF92BF92AF929F928F92BB1883
:10092000AA249924882486F4E89455236AF46894C8
:10093000772309F0705150954095309520950FEF31
:10094000201B300B400B500B882351F055954795D9
:1009500037952795B794A794979487948A95B1F77C
:100960007F9372957F700EE20F9345D00C2D30D09F
:100970000F930027201730074007500729F07723EF
:10098000A1F37A9591F707C0772329F07A9519F0AA
:1009900000E257DFF9CF16F40DE253DF0F910E326C
:1009A00011F04FDFFBCF7F917F70772359F049DF44
:1009B000282D392D4A2D5B2D11D00C2D09D041DF6A
:1009C0007A95D1F78F909F90AF90BF90CF90089578
:1009D0000A3010F4005D0895095A0895CC2400E20D
:1009E000889420FDC60EC79457954795379527954F
:1009F0000A95B1F70895CC2400E2221F331F441F4B
:100A0000551FCC1CC61A08F4C60E0A95B1F7221F52
:100A1000331F441F551F50954095309520950895DC
:100A2000762F66273327222371F0022F12D0000081
:100A30000A95E1F71A9B02C01A9801C01A9A621B24
:100A4000730B98F7089521E004D0621B730BE0F755
:100A5000089500C000C000D000D0000008950A959D
:100A600000000000000000000000C9F70895C598CC
:100A7000BD980895BD9A00EFF2DFBD9803E2EFDF65
:100A800006B305FB0DECEBDF0895BD9A0CE1E7DF43
:100A9000BD9802E0E4DF06B305FB01E0E0DF089566
:100AA000BD9A01E0DCDFBD980EE1D9DF06B305FB9E
:100AB00001E0D5DF0895BD9A01E0D1DFBD9807E0E0
:100AC000CEDF06B305FB07E1CADF08953F9338E0A8
:100AD000279510F4E5DF01C0D8DF3A95C9F73F91BB
:100AE00008953F9338E02795E6DF27F93A95D9F73F
:100AF0003F91089509E148E0279508F4302730FB3D
:100B0000379537F94A95C1F70895B1DF01E007BF7E
:100B100008E000BF07E003BF789400C0ABDF2CEC17
:100B2000D5DF24E4D3DF0EEE302E03E00F933F92A7
:100B300000E3302E06E03A94F1F73A940A95D9F79B
:100B40003F900F913A9491F70A9581F7A3DB92DFDA
:100B50002CECBCDF2EEBBADFC4DF822EC2DF322FDB
:100B6000282D20E4B7DB0CE3402E01E0502E0E943C
:100B7000010474656D703D8B12044243200D00002A
:100B800087B680FC0C948E0508950FEF0DBF00E131
:100B90000EBF94DB0FEF07BB00E001BB129A0C9471
:100BA000D1050E9448010E945E01EAE0F3E00E9444
:100BB000F903E6E1F3E020E40E946A010E94F903F0
:100BC0000ED061FD0E94080660FD0E94100660FDC7
:100BD0000E94290661FD0E944D0F0C94E0050E94C1
:100BE0005E01E0E2F3E00E94F903EEE2F3E020E4CC
:100BF0000E946A010E94F9030E9400010E94D00F26
:100C0000622F613811F0623809F408950C94EF05F1
:100C10000E945E01E0E1F4E00E94F9030C94AE0F43
:100C20000E945E01E2EFF3E00E94F903E2E0F4E0EB
:100C300020E40E946A010E94F9030E9400010E94C0
:100C4000D00F622F613811F0623809F408950C94C6
:100C500010060E945E01ECE3F3E00E94F903ECE46D
:100C6000F3E020E40E946A010E94F90300ED302EB7
:100C700008E00F933F9200E3302E06E03A94F1F73C
:100C80003A940A95D9F73F900F913A9491F70A95C3
:100C900081F70E945E01E0E8F3E00E94F903E0E9D9
:100CA000F3E020E40E946A010E94F90300ED302E77
:100CB00008E00F933F9200E3302E06E03A94F1F7FC
:100CC0003A940A95D9F73F900F913A9491F70A9583
:100CD00081F700E0902E0E945E01E2E7F4E00E94BE
:100CE000F903E0E8F4E020E40E946A010E94F903BD
:100CF0000E9400010E94D00F622F207809F00C940E
:100D0000B506683441F70E945E01E2E9F4E00E9412
:100D1000F903E4EAF4E020E40E946A010E94F90386
:100D20000E9400010E94D00F622F207809F00C94DD
:100D3000B506683441F70E945E01E6EBF4E00E94DC
:100D4000F903E4ECF4E020E40E946A010E94F90354
:100D50000E9400010E94D00F622F207809F00C94AD
:100D6000B506683441F70C946B06E2EDF4E0C895E3
:100D7000601509F468940EF493940E9448010EF0F3
:100D80000C94EA060E945E01EEE6F3E00E94F9038D
:100D900004EF302E02E00F933F9200E3302E06E086
:100DA0003A94F1F73A940A95D9F73F900F913A9413
:100DB00091F70A9581F72DE265E00E94100529E37D
:100DC0000E9410052DE20E94100529E30E941005E3
:100DD0000C940A070E945E01E8E7F3E00E94F90321
:100DE00004EF302E02E00F933F9200E3302E06E036
:100DF0003A94F1F73A940A95D9F73F900F913A94C3
:100E000091F70A9581F721EC6EE10E94100521EC23
:100E10000E941005551B442733272227292D0CE358
:100E2000402E01E0502E0E94010453636F72653A18
:100E3000C012000000ED302E08E00F933F9200E357
:100E4000302E06E03A94F1F73A940A95D9F73F909C
:100E50000F913A9491F70A9581F70E945E01E4EDB3
:100E6000F4E00E94F903EEEDF4E020E40E946A0150
:100E70000E94F9030E9400010E94D00F622F207887
:100E800009F00C947707683441F70E945E01E8EEA0
:100E9000F4E00E94F903E8EFF4E020E40E946A0124
:100EA0000E94F9030E9400010E94D00F622F207857
:100EB00009F00C947707683441F70E945E01E6E080
:100EC000F5E00E94F903E8E1F5E020E40E946A0100
:100ED0000E94F9030E9400010E94D00F622F207827
:100EE00009F00C947707683441F70C942D07E8E279
:100EF000F5E0C895601509F468940EF493940E9487
:100F000048010EF00C94AC070E945E01EEE6F3E09F
:100F10000E94F90304EF302E02E00F933F9200E3AA
:100F2000302E06E03A94F1F73A940A95D9F73F90BB
:100F30000F913A9491F70A9581F72DE265E00E94AE
:100F4000100529E30E9410052DE20E94100529E3F7
:100F50000E9410050C94CC070E945E01E8E7F3E0C4
:100F60000E94F90304EF302E02E00F933F9200E35A
:100F7000302E06E03A94F1F73A940A95D9F73F906B
:100F80000F913A9491F70A9581F721EC6EE10E9456
:100F9000100521EC0E941005551B442733272227FA
:100FA000292D0CE3402E01E0502E0E9401045363D2
:100FB0006F72653AC012000000ED302E08E00F930A
:100FC0003F9200E3302E06E03A94F1F73A940A9506
:100FD000D9F73F900F913A9491F70A9581F70E94C3
:100FE0005E01EAE2F5E00E94F903ECE3F5E020E4BB
:100FF0000E946A010E94F9030E9400010E94D00F22
:10100000622F207809F00C943908683441F70E9467
:101010005E01E8E4F5E00E94F903EAE5F5E020E48A
:101020000E946A010E94F9030E9400010E94D00FF1
:10103000622F207809F00C943908683441F70E9437
:101040005E01EAE6F5E00E94F903E6E7F5E020E458
:101050000E946A010E94F9030E9400010E94D00FC1
:10106000622F207809F00C943908683441F70C9409
:10107000EF07E4E8F5E0C895601509F468940EF40C
:1010800093940E9448010EF00C946E080E945E0139
:10109000EEE6F3E00E94F90304EF302E02E00F9336
:1010A0003F9200E3302E06E03A94F1F73A940A9525
:1010B000D9F73F900F913A9491F70A9581F72DE275
:1010C00065E00E94100529E30E9410052DE20E94B0
:1010D000100529E30E9410050C948E080E945E0101
:1010E000E8E7F3E00E94F90304EF302E02E00F93EB
:1010F0003F9200E3302E06E03A94F1F73A940A95D5
:10110000D9F73F900F913A9491F70A9581F721EC26
:101110006EE10E94100521EC0E941005551B44272A
:1011200033272227292D0CE3402E01E0502E0E9468
:10113000010453636F72653AC012000000ED302E57
:1011400008E00F933F9200E3302E06E03A94F1F767
:101150003A940A95D9F73F900F913A9491F70A95EE
:1011600081F70E945E01E6E8F5E00E94F903E6E9F6
:10117000F5E020E40E946A010E94F9030E94000148
:101180000E94D00F622F207809F00C94FB0868347D
:1011900041F70E945E01E4EAF5E00E94F903E6EB04
:1011A000F5E020E40E946A010E94F9030E94000118
:1011B0000E94D00F622F207809F00C94FB0868344D
:1011C00041F70E945E01E4ECF5E00E94F903E0EDD6
:1011D000F5E020E40E946A010E94F9030E940001E8
:1011E0000E94D00F622F207809F00C94FB0868341D
:1011F00041F70C94B108EEEDF5E0C895601509F4DF
:1012000068940EF493940E9448010EF00C943009F7
:101210000E945E01EEE6F3E00E94F90304EF302E37
:1012200002E00F933F9200E3302E06E03A94F1F78C
:101230003A940A95D9F73F900F913A9491F70A950D
:1012400081F72DE265E00E94100529E30E94100558
:101250002DE20E94100529E30E9410050C9450090C
:101260000E945E01E8E7F3E00E94F90304EF302EEC
:1012700002E00F933F9200E3302E06E03A94F1F73C
:101280003A940A95D9F73F900F913A9491F70A95BD
:1012900081F721EC6EE10E94100521EC0E941005FF
:1012A000551B442733272227292D0CE3402E01E02C
:1012B000502E0E94010453636F72653AC012000001
:1012C00000ED302E08E00F933F9200E3302E06E051
:1012D0003A94F1F73A940A95D9F73F900F913A94DE
:1012E00091F70A9581F70E945E01E0EEF5E00E9419
:1012F000F903ECEEF5E020E40E946A010E94F90394
:101300000E9400010E94D00F622F207809F00C94F7
:10131000BD09683441F70E945E01E6EFF5E00E94E6
:10132000F903E8E0F6E020E40E946A010E94F90374
:101330000E9400010E94D00F622F207809F00C94C7
:10134000BD09683441F70E945E01E6E1F6E00E94C3
:10135000F903E0E2F6E020E40E946A010E94F9034A
:101360000E9400010E94D00F622F207809F00C9497
:10137000BD09683441F70C947309E8E2F6E0C895BA
:10138000601509F468940EF493940E9448010EF0DD
:101390000C94F2090E945E01EEE6F3E00E94F9036C
:1013A00004EF302E02E00F933F9200E3302E06E070
:1013B0003A94F1F73A940A95D9F73F900F913A94FD
:1013C00091F70A9581F72DE265E00E94100529E367
:1013D0000E9410052DE20E94100529E30E941005CD
:1013E0000C94120A0E945E01E8E7F3E00E94F90300
:1013F00004EF302E02E00F933F9200E3302E06E020
:101400003A94F1F73A940A95D9F73F900F913A94AC
:1014100091F70A9581F721EC6EE10E94100521EC0D
:101420000E941005551B442733272227292D0CE342
:10143000402E01E0502E0E94010453636F72653A02
:10144000C012000000ED302E08E00F933F9200E341
:10145000302E06E03A94F1F73A940A95D9F73F9086
:101460000F913A9491F70A9581F70E945E01EAE2A2
:10147000F6E00E94F903ECE3F6E020E40E946A0142
:101480000E94F9030E9400010E94D00F622F207871
:1014900009F00C947F0A683441F70E945E01ECE485
:1014A000F6E00E94F903EEE5F6E020E40E946A010E
:1014B0000E94F9030E9400010E94D00F622F207841
:1014C00009F00C947F0A683441F70E945E01EEE651
:1014D000F6E00E94F903ECE7F6E020E40E946A01DE
:1014E0000E94F9030E9400010E94D00F622F207811
:1014F00009F00C947F0A683441F70C94350AE6E849
:10150000F6E0C895601509F468940EF493940E946F
:1015100048010EF00C94B40A0E945E01EEE6F3E07E
:101520000E94F90304EF302E02E00F933F9200E394
:10153000302E06E03A94F1F73A940A95D9F73F90A5
:101540000F913A9491F70A9581F72DE265E00E9498
:10155000100529E30E9410052DE20E94100529E3E1
:101560000E9410050C94D40A0E945E01E8E7F3E0A3
:101570000E94F90304EF302E02E00F933F9200E344
:10158000302E06E03A94F1F73A940A95D9F73F9055
:101590000F913A9491F70A9581F721EC6EE10E9440
:1015A000100521EC0E941005551B442733272227E4
:1015B000292D0CE3402E01E0502E0E9401045363BC
:1015C0006F72653AC012000000ED302E08E00F93F4
:1015D0003F9200E3302E06E03A94F1F73A940A95F0
:1015E000D9F73F900F913A9491F70A9581F70E94AD
:1015F0005E01E8E8F6E00E94F903E6E9F6E020E49F
:101600000E946A010E94F9030E9400010E94D00F0B
:10161000622F207809F00C94410B683441F70E9446
:101620005E01E2EAF6E00E94F903E4EBF6E020E472
:101630000E946A010E94F9030E9400010E94D00FDB
:10164000622F207809F00C94410B683441F70E9416
:101650005E01E0ECF6E00E94F903EAECF6E020E43B
:101660000E946A010E94F9030E9400010E94D00FAB
:10167000622F207809F00C94410B683441F70C94E8
:10168000F70AE4EDF6E0C895601509F468940EF4E5
:1016900093940E9448010EF00C94760B0E945E0118
:1016A000EEE6F3E00E94F90304EF302E02E00F9320
:1016B0003F9200E3302E06E03A94F1F73A940A950F
:1016C000D9F73F900F913A9491F70A9581F72DE25F
:1016D00065E00E94100529E30E9410052DE20E949A
:1016E000100529E30E9410050C94960B0E945E01E0
:1016F000E8E7F3E00E94F90304EF302E02E00F93D5
:101700003F9200E3302E06E03A94F1F73A940A95BE
:10171000D9F73F900F913A9491F70A9581F721EC10
:101720006EE10E94100521EC0E941005551B442714
:1017300033272227292D0CE3402E01E0502E0E9452
:10174000010453636F72653AC012000000ED302E41
:1017500008E00F933F9200E3302E06E03A94F1F751
:101760003A940A95D9F73F900F913A9491F70A95D8
:1017700081F70E945E01E6EDF6E00E94F903E8EED3
:10178000F6E020E40E946A010E94F9030E94000131
:101790000E94D00F622F207809F00C94030C68345B
:1017A00041F70E945E01E6EFF6E00E94F903EEEFDA
:1017B000F6E020E40E946A010E94F9030E94000101
:1017C0000E94D00F622F207809F00C94030C68342B
:1017D00041F70E945E01ECE0F7E00E94F903E6E1C8
:1017E000F7E020E40E946A010E94F9030E940001D0
:1017F0000E94D00F622F207809F00C94030C6834FB
:1018000041F70C94B90BE8E2F7E0C895601509F4CC
:1018100068940EF493940E9448010EF00C94380CD6
:101820000E945E01EEE6F3E00E94F90304EF302E21
:1018300002E00F933F9200E3302E06E03A94F1F776
:101840003A940A95D9F73F900F913A9491F70A95F7
:1018500081F72DE265E00E94100529E30E94100542
:101860002DE20E94100529E30E9410050C94580CEB
:101870000E945E01E8E7F3E00E94F90304EF302ED6
:1018800002E00F933F9200E3302E06E03A94F1F726
:101890003A940A95D9F73F900F913A9491F70A95A7
:1018A00081F721EC6EE10E94100521EC0E941005E9
:1018B000551B442733272227292D0CE3402E01E016
:1018C000502E0E94010453636F72653AC0120000EB
:1018D00000ED302E08E00F933F9200E3302E06E03B
:1018E0003A94F1F73A940A95D9F73F900F913A94C8
:1018F00091F70A9581F70E945E01EAE2F7E00E9403
:10190000F903EAE3F7E020E40E946A010E94F90388
:101910000E9400010E94D00F622F207809F00C94E1
:10192000C50C683441F70E945E01ECE4F7E00E94C8
:10193000F903EEE5F7E020E40E946A010E94F90352
:101940000E9400010E94D00F622F207809F00C94B1
:10195000C50C683441F70E945E01ECE6F7E00E9496
:10196000F903E4E7F7E020E40E946A010E94F9032A
:101970000E9400010E94D00F622F207809F00C9481
:10198000C50C683441F70C947B0CE6E8F7E0C89589
:10199000601509F468940EF493940E9448010EF0C7
:1019A0000C94FA0C0E945E01EEE6F3E00E94F9034B
:1019B00004EF302E02E00F933F9200E3302E06E05A
:1019C0003A94F1F73A940A95D9F73F900F913A94E7
:1019D00091F70A9581F72DE265E00E94100529E351
:1019E0000E9410052DE20E94100529E30E941005B7
:1019F0000C941A0D0E945E01E8E7F3E00E94F903DF
:101A000004EF302E02E00F933F9200E3302E06E009
:101A10003A94F1F73A940A95D9F73F900F913A9496
:101A200091F70A9581F721EC6EE10E94100521ECF7
:101A30000E941005551B442733272227292D0CE32C
:101A4000402E01E0502E0E94010453636F72653AEC
:101A5000C012000000ED302E08E00F933F9200E32B
:101A6000302E06E03A94F1F73A940A95D9F73F9070
:101A70000F913A9491F70A9581F70E945E01E8E888
:101A8000F7E00E94F903E6E9F7E020E40E946A012A
:101A90000E94F9030E9400010E94D00F622F20785B
:101AA00009F00C94870D683441F70E945E01E2EA68
:101AB000F7E00E94F903E0EBF7E020E40E946A01FE
:101AC0000E94F9030E9400010E94D00F622F20782B
:101AD00009F00C94870D683441F70E945E01E2EC36
:101AE000F7E00E94F903E0EDF7E020E40E946A01CC
:101AF0000E94F9030E9400010E94D00F622F2078FB
:101B000009F00C94870D683441F70C943D0DE0EE1C
:101B1000F7E0C895601509F468940EF493940E9458
:101B200048010EF00C94BC0D0E945E01EEE6F3E05D
:101B30000E94F90304EF302E02E00F933F9200E37E
:101B4000302E06E03A94F1F73A940A95D9F73F908F
:101B50000F913A9491F70A9581F72DE265E00E9482
:101B6000100529E30E9410052DE20E94100529E3CB
:101B70000E9410050C94DC0D0E945E01E8E7F3E082
:101B80000E94F90304EF302E02E00F933F9200E32E
:101B9000302E06E03A94F1F73A940A95D9F73F903F
:101BA0000F913A9491F70A9581F721EC6EE10E942A
:101BB000100521EC0E941005551B442733272227CE
:101BC000292D0CE3402E01E0502E0E9401045363A6
:101BD0006F72653AC012000000ED302E08E00F93DE
:101BE0003F9200E3302E06E03A94F1F73A940A95DA
:101BF000D9F73F900F913A9491F70A9581F705E054
:101C0000901610F40C948F0E0E945E01E6ECF3E047
:101C10000E94F903E6EDF3E020E40E946A010E94CD
:101C2000F90320E660E50E94100520E86CE30E94BD
:101C3000100520E660E50E9410052CE46CE30E948C
:101C4000100520E46CE30E94100520E36CE30E9481
:101C5000100526E26AEA0E94100520E36AEA0E9463
:101C600010052BE560E50E94100529E76CE30E9452
:101C700010052BE560E50E94100528E46CE30E9446
:101C800010052EE16CE30E9410052DE26CE30E942A
:101C9000100524E26AEA0E9410052DE26AEA0E9419
:101CA000100521E560E50E9410052CE66CE30E941A
:101CB000100521E560E50E94100520E46CE30E9418
:101CC000100526E36CE30E94100528E26AEA0E94F0
:101CD000100524E268EC0E9410050E945E01E0EB12
:101CE000F3E00E94F903EAEBF3E020E40E946A01CA
:101CF0000E94F90300EA302E00E10F933F9200E3C7
:101D0000302E06E03A94F1F73A940A95D9F73F90CD
:101D10000F913A9491F70A9581F70C94E0050E948F
:101D20005E01EEEDF3E00E94F903E8EEF3E020E45B
:101D30000E946A010E94F90323E360E50E941005F6
:101D40000CE3302E01E00F933F9200E3302E06E0CB
:101D50003A94F1F73A940A95D9F73F900F913A9453
:101D600091F70A9581F724E26AE50E9410050CE3D9
:101D7000302E01E00F933F9200E3302E06E03A94BC
:101D8000F1F73A940A95D9F73F900F913A9491F769
:101D90000A9581F724E266E40E9410050CE3302ED8
:101DA00001E00F933F9200E3302E06E03A94F1F702
:101DB0003A940A95D9F73F900F913A9491F70A9582
:101DC00081F724E266E40E9410050CE3302E01E066
:101DD0000F933F9200E3302E06E03A94F1F73A94E5
:101DE0000A95D9F73F900F913A9491F70A9581F7A8
:101DF00024E266E40E94100526E266E40E941005D3
:101E00002AE266E40E94100520E36CE80E941005B7
:101E10000CEB302E03E00F933F9200E3302E06E0F0
:101E20003A94F1F73A940A95D9F73F900F913A9482
:101E300091F70A9581F720E364E60E94100520E4FB
:101E400064E60E9410052CE464E60E94100526E377
:101E500064E60E94100520E364E60E94100526E374
:101E600064E60E9410052CE364E60E94100526E358
:101E700064E60E9410052CE364E60E94100520E44D
:101E800060E50E94100528E46CE30E94100520E440
:101E900066E90E9410050C94E0050E945E01ECE3E7
:101EA000F3E00E94F903ECE5F3E020E40E946A010C
:101EB0000E94F90300ED302E08E00F933F9200E3FB
:101EC000302E06E03A94F1F73A940A95D9F73F900C
:101ED0000F913A9491F70A9581F70E945E01E0EA2A
:101EE000F3E00E94F90300ED302E08E00F933F92DB
:101EF00000E3302E06E03A94F1F73A940A95D9F7C8
:101F00003F900F913A9491F70A9581F700E0902E57
:101F10000E945E01E2EEF7E00E94F9030E9485054F
:101F20002058314012F00E945E01E0EBF3E00E9485
:101F3000F90300ED302E08E00F933F9200E3302EBE
:101F400006E03A94F1F73A940A95D9F73F900F9149
:101F50003A9491F70A9581F70C94E0050E945E018E
:101F6000EAE5F4E00E94F903E6E6F4E020E40E94EA
:101F70006A010E94F90300ED302E08E00F933F92B2
:101F800000E3302E06E03A94F1F73A940A95D9F737
:101F90003F900F913A9491F70A9581F70C94C505FB
:0C1FA00008E1801609F40C94C5050895B2
:00000001FF
