:020000020000FC
:100000000C94BC060C9422000C9427000C942C0039
:040010000C9431001B
:100040000C94100101E0102E01E0E02E0FC002E040
:10005000102E02E0E02E0AC004E0102E04E0E02E94
:1000600005C008E0102E08E0E02E00C00FEF02BB34
:100070000EE1302E01E00F933F9200E3302E06E0B8
:100080003A94F1F73A940A95D9F73F900F913A9440
:1000900091F70A9581F70FE702BB0EE1302E01E0E0
:1000A0000F933F9200E3302E06E03A94F1F73A9432
:1000B0000A95D9F73F900F913A9491F70A9581F7F5
:1000C00000B30E21002319F400E4202E8CC00EE1B1
:1000D000302E01E00F933F9200E3302E06E03A9479
:1000E000F1F73A940A95D9F73F900F913A9491F726
:1000F0000A9581F70FEB02BB0EE1302E01E00F9362
:100100003F9200E3302E06E03A94F1F73A940A95D4
:10011000D9F73F900F913A9491F70A9581F700B380
:100120000E21002319F400E8202E5DC00EE1302ED0
:1001300001E00F933F9200E3302E06E03A94F1F78E
:100140003A940A95D9F73F900F913A9491F70A950E
:1001500081F70FED02BB0EE1302E01E00F933F92CD
:1001600000E3302E06E03A94F1F73A940A95D9F775
:100170003F900F913A9491F70A9581F700B30E21C1
:10018000002319F400E2202E2EC00EE1302E01E0F3
:100190000F933F9200E3302E06E03A94F1F73A9441
:1001A0000A95D9F73F900F913A9491F70A9581F704
:1001B0000FEE02BB0EE1302E01E00F933F9200E301
:1001C000302E06E03A94F1F73A940A95D9F73F9029
:1001D0000F913A9491F70A9581F700B30E2100230D
:1001E00011F400E1202E1AE00FEFF02E25E56EE16C
:1001F0000E94E50508EC302E01E00F933F9200E3EA
:10020000302E06E03A94F1F73A940A95D9F73F90E8
:100210000F913A9491F70A9581F70FE002BB189578
:1002200000E003BF189500EF01BB0FE002BB0FEF2A
:1002300007BB0FE009BF00E00ABF22241124FF24FE
:1002400033274427552777278827992778940C94B4
:100250002901FF20F1F3FF242227210D220D66271B
:10026000822E21FD6C5F22FD685F23FD645F25FD0A
:100270006F5F26FD6E5F27FD6D5FE62FFF27E25E55
:10028000FC4FC895602D08953090008037FCFCCF5E
:1002900003D000930080089500D0000008952D3011
:1002A00079F12A30B9F10091008007FDFCCFF4DF2D
:1002B000209300C0089501E0E7CF02E0E5CF00E120
:1002C000E3CF04E1E1CF08E1DFCF0CE1DDCF0DE0CA
:1002D000DBCF0CE0D9CF0EE0D7CF0CE0D5CF0FE0CD
:1002E000D3CF05B7006C05BF01E0CEDF06E0CCDF61
:1002F0000CE0CADF08E3C8DF0895022F0068C4CF0E
:100300000091008007FDFCCF00740068C5DF0093FA
:10031000008008952F9320E4F0DF2F91089531326B
:10032000334134353642373839432A3023440000CC
:1003300057454C434F4D4520544F20004D435520C9
:10034000504152545900412E20504C4159204741B0
:100350004D450000422E204F50454E20534146450A
:10036000000057656C636F6D6520746F207468655D
:1003700000007472697669612067616D65203A29B1
:100380000000626F617264206973206C6176612085
:100390003A2900006B65797061642064616E636561
:1003A000203A2900436F7272656374210000466130
:1003B0006C7365210000416E7377657220352F31B3
:1003C0003020636F2D0072726563746C7920746FD6
:1003D0002077696E000057696E20322F3320746FCA
:1003E0002077696E000031737420636C75653A0084
:1003F000534E4F5720574849544500001400326E61
:100400006420636C75653A004D75736B6574656542
:1004100072730000410033726420636C75653A208A
:1004200028326469672900004B61746E6973732018
:10043000457665726465656E000011002100434FCA
:100440004E47524154554C4154494F4E5300594F19
:10045000552057494E00594F55204C4F53452C00BD
:1004600054525920414741494E00412E205452498F
:10047000564941205155495A0000422E204C4156C0
:100480004120424F41524400432E204B4559504198
:10049000442044414E434500454E5445522050416E
:1004A0005353434F44450000434F52524543542059
:1004B00050415353434F44450000494E434F52521D
:1004C0004543540050415353434F44450000434F6C
:1004D0004E47524154554C4154494F4E532C2000E5
:1004E000594F552057494E20544849532047414DB4
:1004F000452021005448414E4B5320464F520000A6
:10050000504C4159494E4721203A440057686F20CA
:1005100077726F74652074686500736F6E6720274B
:10052000746872696C6C6572273F0000412E205020
:100530004C4159424F492043415254490000422EF8
:1005400020545241435920434841504D414E0000F0
:10055000432E20412E205343484D49440000442E51
:10056000204D2E204A41434B534F4E008800576880
:100570006F20706C617973004865726D696F6E658C
:100580003F00412E20454D4D4120574154534F4E81
:100590000000422E20454D4D412053544F4E450002
:1005A000432E20504C4159424F4920434152544917
:1005B0000000442E205A4F452053414C44414E41A7
:1005C0000000810057686963682062616E6420776B
:1005D000726F746500002768657920796F75272030
:1005E0003F00412E20504C4159424F492043415237
:1005F00054490000422E204C4544205A4550504C4E
:10060000494E0000432E204A4F55524E4559000096
:10061000442E2050494E4B20464C4F5944008800F0
:1006200057686F2077726F746520274169720000E8
:100630006F6E204720737472696E67273F00412EEA
:1006400020504C4159424F492043415254490000E7
:10065000422E2042454554484F56454E0000432EF9
:1006600020534348554245525400442E204A2E53AD
:100670002E20424143480000880057686F2074656F
:100680006163686573004D435520626573743F0074
:10069000412E20504C4159424F4920434152544928
:1006A0000000422E20412E205343484D4944000073
:1006B000432E204D2E20414C4900442E20435220F1
:1006C0003700820057686F20776F6E20746865204E
:1006D0003230323200004649464120576F726C6416
:1006E000204375703F00412E20504C4159424F49E4
:1006F0002043415254490000422E20535749545A36
:1007000045524C414E440000432E20415247454E35
:1007100054494E410000442E204652414E4345006C
:10072000840057686963682064697368206973008E
:100730006E6F742073776973733F0000412E2050F1
:100740004C4159424F492043415254490000422EE6
:10075000205241434C4554544500432E20464F4EB1
:1007600044554500442E20524F45535449008100C2
:100770005768617427732074686520636170692D00
:10078000000074616C206F66204C616F733F000045
:10079000412E204C414F5300422E205649454E5485
:1007A00049414E450000432E2056454E49434500E1
:1007B000442E20504C4159424F4920434152544904
:1007C0000000820057686174277320746865206296
:1007D0006573740073656374696F6E20617420457E
:1007E00050464C3F0000412E204C49464520534383
:1007F00049454E4345530000422E204D4943524F38
:10080000544543480000432E20454C454300442EA8
:1008100020504C4159424F49204341525449000015
:10082000840057686F2077726F7465207468650064
:10083000736F6E672027736B79273F00412E204B23
:10084000414E5945205745535400422E20504C41AB
:1008500059424F492043415254490000432E204100
:100860002E205343484D49440000442E2054415902
:100870004C4F522053574946540082004164642033
:10088000302E354320696E203873000041646420A7
:10089000302E352D314320696E20387300004164BD
:1008A0006420314320696E2038730000594F552071
:1008B00057494E210000434F4E47524154554C4139
:1008C00054494F4E532100004974277320667265C6
:1008D000657A696E672100003220686F7420746F3A
:1008E0002068616E646C65210000436F6D65206453
:1008F000616E63652C206E6F00006572726F72739B
:1009000020616C6C6F77656421003D3D3D526570E0
:10091000656174207468653D3D3D00003D3D3D3D91
:1009200073657175656E63653D3D3D3D00003D3D00
:100930003D3D3D3D3537423D3D3D3D3D3D3D00006A
:100940002200140082003D3D3D3D3D30413943339E
:10095000443D3D3D3D3D00002800810044008400B1
:10096000410088003D3D3D39323930424441233019
:10097000343D3D3D00004400210044002800820039
:10098000880081004800280012003D3D3D3D3D3D6E
:100990003D3D3D3D3D3D3D3D3D3D0000C895002078
:1009A00021F0202D7CDC3196F9CF0895FF91EF9155
:1009B000EE0FFF1FAF93BF93C8953196002021F033
:1009C0004AF0002D13D0F8CF3196F695E795BF91F8
:1009D000AF91099400FA002DC895A02DBB27319640
:1009E000043879F0053881F015C0E6CF2F93FF93D6
:1009F000EF93E42DF52D202F0995EF91FF912F9185
:100A000008950C91F3DFD8CF0D91002309F4D4CFD2
:100A1000EDDFFACF5F934F933F932F939F938F9385
:100A20007F936F932D913D914D915D9106FD06C091
:100A300005FD0FC004FD10C003FD19C06AE0702F52
:100A400076957770729580E0902F9295937093953C
:100A50001AC062E094E003C060E194E000C0702F2F
:100A60007695777009F478E0729580E00CC06AE0C2
:100A7000C895802D3196C895702D3196902F9595FB
:100A80009370939500C0943081F0933051F0923080
:100A900021F0332716F427FD3FEF442716F437FDE6
:100AA0004FEF552716F447FD5FEF09D06F917F9107
:100AB0008F919F912F913F914F915F917DCFCF92D9
:100AC000BF92AF929F928F92BB18AA249924882438
:100AD00086F4E89455236AF46894772309F07051FA
:100AE00050954095309520950FEF201B300B400B13
:100AF000500B882351F05595479537952795B79416
:100B0000A794979487948A95B1F77F9372957F7095
:100B10000EE20F9345D00C2D30D00F9300272017F5
:100B200030074007500729F07723A1F37A9591F712
:100B300007C0772329F07A9519F000E257DFF9CF43
:100B400016F40DE253DF0F910E3211F04FDFFBCFA1
:100B50007F917F70772359F049DF282D392D4A2D59
:100B60005B2D11D00C2D09D041DF7A95D1F78F90F4
:100B70009F90AF90BF90CF9008950A3010F4005D21
:100B80000895095A0895CC2400E2889420FDC60EE9
:100B9000C79457954795379527950A95B1F70895C6
:100BA000CC2400E2221F331F441F551FCC1CC61A41
:100BB00008F4C60E0A95B1F7221F331F441F551FB4
:100BC00050954095309520950895762F66273327C8
:100BD000222371F0022F12D000000A95E1F71A9B30
:100BE00002C01A9801C01A9A621B730B98F70895F5
:100BF00021E004D0621B730BE0F7089500C000C031
:100C000000D000D0000008950A9500000000000008
:100C100000000000C9F70895C598BD980895BD9AD1
:100C200000EFF2DFBD9803E2EFDF06B305FB0DEC4A
:100C3000EBDF0895BD9A0CE1E7DFBD9802E0E4DF49
:100C400006B305FB01E0E0DF0895BD9A01E0DCDFBB
:100C5000BD980EE1D9DF06B305FB01E0D5DF0895AD
:100C6000BD9A01E0D1DFBD9807E0CEDF06B305FBFA
:100C700007E1CADF08953F9338E0279510F4E5DFD8
:100C800001C0D8DF3A95C9F73F9108953F9338E006
:100C90002795E6DF27F93A95D9F73F91089509E1BD
:100CA00048E0279508F4302730FB379537F94A9507
:100CB000C1F70895B1DF00E002BF01E007BF08E01F
:100CC00000BF07E003BF789401E0B02E00C0A7DFAB
:100CD0002CEC0E943B0624E40E943B060EEE302ED4
:100CE00003E00F933F9200E3302E06E03A94F1F7D1
:100CF0003A940A95D9F73F900F913A9491F70A9553
:100D000081F7DBDA8CDF2CEC0E943B062EEB0E9495
:100D10003B06BCDF822EBADF722F682D0E945B017A
:100D200020E40E947D010FE4402E01E0502E0E943D
:100D3000D60474656D70313D8B16044243200D005E
:100D400000E0B01621F0C62ED72E00E0B02E20E035
:100D50000E947D010FE4402E01E0502E0E94D60437
:100D600074656D70303D8B0C044243200D0083B6DA
:100D700080FC0C94670608950FEF0DBF00E10EBFD5
:100D8000B0DA0FEF07BB00E001BB129A0C94C80663
:100D90000E945B010E947101E0E3F3E00E94CE0437
:100DA000ECE3F3E020E40E947D010E94CE0411D028
:100DB00061FD0E94020760FD0E94D20760FD0E9453
:100DC000070861FD0E94351162FD0E9430140C94E9
:100DD000D7060E947101E6E4F3E00E94CE04E4E548
:100DE000F3E020E40E947D010E94CE040E941301E2
:100DF0000E94DB19622F613811F0623809F40895FE
:100E00000C94D7060E947101E8E9F4E00E94CE0438
:100E100000E0902E20E40E947D010FE4402E01E0CE
:100E2000502E0E94D6042020202020202A2A2A2A60
:100E300020202020202000000E9413010E94DB19A6
:100E4000E894ECEFF3E0C895201509F468940EF4EB
:100E5000939420E40E947D010FE4402E01E0502E87
:100E60000E94D6042020202020208516000027E4A0
:100E70000E947D010E9413010E94DB19E894E4E1C5
:100E8000F4E0C895201509F468940EF493940FE4E7
:100E9000402E01E0502E0E94D6048516000028E462
:100EA0000E947D010E9413010E94DB19E894EAE38D
:100EB000F4E0C895201509F468940EF493940FE4B7
:100EC000402E01E0502E0E94D6048516000029E431
:100ED0000E947D010E9413010E94DB19E894ECE35B
:100EE000F4E0C895201509F468940EF493940FE487
:100EF000402E01E0502E0E94D6048516000008EE18
:100F0000302E04E00F933F9200E3302E06E03A9437
:100F1000F1F73A940A95D9F73F900F913A9491F7E7
:100F20000A9581F704E09016D9F40E947101E8EA6D
:100F3000F4E00E94CE0400ED302E08E00F933F92C3
:100F400000E3302E06E03A94F1F73A940A95D9F787
:100F50003F900F913A9491F70A9581F70C94B91943
:100F60000E947101EAEBF4E00E94CE04E4ECF4E0AC
:100F700020E40E947D010E94CE0400ED302E08E0A6
:100F80000F933F9200E3302E06E03A94F1F73A9443
:100F90000A95D9F73F900F913A9491F70A9581F706
:100FA0000C94D7060E947101EAE6F4E00E94CE0498
:100FB000EAE7F4E020E40E947D010E94CE040E9452
:100FC00013010E94DB19622F613809F40895623819
:100FD00009F40895643809F40895683419F70E94F3
:100FE0007101E8E8F4E00E94CE040E9413010E941F
:100FF000DB19622F613809F40895623809F4089505
:10100000643809F40895683451F70C94D2070E94AB
:101010007101E2E6F3E00E94CE04E2E7F3E020E4AF
:101020000E947D010E94CE0400ED302E08E00F9357
:101030003F9200E3302E06E03A94F1F73A940A9595
:10104000D9F73F900F913A9491F70A9581F70E9452
:101050007101E6EBF3E00E94CE04E6ECF3E020E45D
:101060000E947D010E94CE0400ED302E08E00F9317
:101070003F9200E3302E06E03A94F1F73A940A9555
:10108000D9F73F900F913A9491F70A9581F700E0D4
:10109000902E0E947101ECE0F5E00E94CE04EAE19E
:1010A000F5E020E40E947D010E94CE040E9413011D
:1010B0000E94DB19622F207809F00C9493086834A1
:1010C00041F70E947101ECE2F5E00E94CE04EEE3EC
:1010D000F5E020E40E947D010E94CE040E941301ED
:1010E0000E94DB19622F207809F00C949308683471
:1010F00041F70E947101E0E5F5E00E94CE04EEE5C3
:10110000F5E020E40E947D010E94CE040E941301BC
:101110000E94DB19622F207809F00C949308683440
:1011200041F70C944908E894ECE6F5E0C8956015A1
:1011300009F468940EF493940E945B010EF00C94F1
:10114000C9080E947101E4EAF3E00E94CE0404EFB2
:10115000302E02E00F933F9200E3302E06E03A94E7
:10116000F1F73A940A95D9F73F900F913A9491F795
:101170000A9581F72DE265E00E94E50529E30E94CA
:10118000E5052DE20E94E50529E30E94E5050C94A2
:10119000E9080E947101EEEAF3E00E94CE0404EF38
:1011A000302E02E00F933F9200E3302E06E03A9497
:1011B000F1F73A940A95D9F73F900F913A9491F745
:1011C0000A9581F721EC6EE10E94E50521EC0E9471
:1011D000E505551B442733272227292D0FE4402EF0
:1011E00001E0502E0E94D60453636F72653AC0121C
:1011F000000000ED302E08E00F933F9200E3302E08
:1012000006E03A94F1F73A940A95D9F73F900F9196
:101210003A9491F70A9581F70E947101EEE6F5E0A4
:101220000E94CE04E8E7F5E020E40E947D010E94E0
:10123000CE040E9413010E94DB19622F207809F06E
:101240000C945609683441F70E947101E2E8F5E018
:101250000E94CE04E2E9F5E020E40E947D010E94B4
:10126000CE040E9413010E94DB19622F207809F03E
:101270000C945609683441F70E947101E0EAF5E0E8
:101280000E94CE04E2EBF5E020E40E947D010E9482
:10129000CE040E9413010E94DB19622F207809F00E
:1012A0000C945609683441F70C940C09E894E2EC6C
:1012B000F5E0C895601509F468940EF493940E94C3
:1012C0005B010EF00C948C090E947101E4EAF3E0DA
:1012D0000E94CE0404EF302E02E00F933F9200E311
:1012E000302E06E03A94F1F73A940A95D9F73F90F8
:1012F0000F913A9491F70A9581F72DE265E00E94EB
:10130000E50529E30E94E5052DE20E94E50529E3B4
:101310000E94E5050C94AC090E947101EEEAF3E02D
:101320000E94CE0404EF302E02E00F933F9200E3C0
:10133000302E06E03A94F1F73A940A95D9F73F90A7
:101340000F913A9491F70A9581F721EC6EE10E9492
:10135000E50521EC0E94E505551B4427332722278C
:10136000292D0FE4402E01E0502E0E94D604536335
:101370006F72653AC012000000ED302E08E00F9346
:101380003F9200E3302E06E03A94F1F73A940A9542
:10139000D9F73F900F913A9491F70A9581F70E94FF
:1013A0007101E4ECF5E00E94CE04E6EDF5E020E406
:1013B0000E947D010E94CE040E9413010E94DB194D
:1013C000622F207809F00C94190A683441F70E94C2
:1013D0007101E2EEF5E00E94CE04E4EFF5E020E4D6
:1013E0000E947D010E94CE040E9413010E94DB191D
:1013F000622F207809F00C94190A683441F70E9492
:101400007101E4E0F6E00E94CE04E0E1F6E020E4C1
:101410000E947D010E94CE040E9413010E94DB19EC
:10142000622F207809F00C94190A683441F70C9463
:10143000CF09E894EEE1F6E0C895601509F46894E8
:101440000EF493940E945B010EF00C944F0A0E94DC
:101450007101E4EAF3E00E94CE0404EF302E02E0D2
:101460000F933F9200E3302E06E03A94F1F73A945E
:101470000A95D9F73F900F913A9491F70A9581F721
:101480002DE265E00E94E50529E30E94E5052DE2D5
:101490000E94E50529E30E94E5050C946F0A0E946D
:1014A0007101EEEAF3E00E94CE0404EF302E02E078
:1014B0000F933F9200E3302E06E03A94F1F73A940E
:1014C0000A95D9F73F900F913A9491F70A9581F7D1
:1014D00021EC6EE10E94E50521EC0E94E505551B1B
:1014E000442733272227292D0FE4402E01E0502ED8
:1014F0000E94D60453636F72653AC012000000ED7B
:10150000302E08E00F933F9200E3302E06E03A942D
:10151000F1F73A940A95D9F73F900F913A9491F7E1
:101520000A9581F70E947101E0E2F6E00E94CE0484
:10153000E0E3F6E020E40E947D010E94CE040E94D8
:1015400013010E94DB19622F207809F00C94DC0A49
:10155000683441F70E947101EEE3F6E00E94CE0488
:10156000E0E5F6E020E40E947D010E94CE040E94A6
:1015700013010E94DB19622F207809F00C94DC0A19
:10158000683441F70E947101EEE5F6E00E94CE0456
:10159000EAE6F6E020E40E947D010E94CE040E946B
:1015A00013010E94DB19622F207809F00C94DC0AE9
:1015B000683441F70C94920AE894E8E7F6E0C8959D
:1015C000601509F468940EF493940E945B010EF088
:1015D0000C94120B0E947101E4EAF3E00E94CE0425
:1015E00004EF302E02E00F933F9200E3302E06E02E
:1015F0003A94F1F73A940A95D9F73F900F913A94BB
:1016000091F70A9581F72DE265E00E94E50529E34F
:101610000E94E5052DE20E94E50529E30E94E5050B
:101620000C94320B0E947101EEEAF3E00E94CE04AA
:1016300004EF302E02E00F933F9200E3302E06E0DD
:101640003A94F1F73A940A95D9F73F900F913A946A
:1016500091F70A9581F721EC6EE10E94E50521ECF6
:101660000E94E505551B442733272227292D0FE427
:10167000402E01E0502E0E94D60453636F72653AEB
:10168000C012000000ED302E08E00F933F9200E3FF
:10169000302E06E03A94F1F73A940A95D9F73F9044
:1016A0000F913A9491F70A9581F70E947101EAE748
:1016B000F6E00E94CE04E6E8F6E020E40E947D0118
:1016C0000E94CE040E9413010E94DB19622F207831
:1016D00009F00C949F0B683441F70E947101E0E916
:1016E000F6E00E94CE04E2EAF6E020E40E947D01EA
:1016F0000E94CE040E9413010E94DB19622F207801
:1017000009F00C949F0B683441F70E947101E0EBE3
:10171000F6E00E94CE04EAEBF6E020E40E947D01B0
:101720000E94CE040E9413010E94DB19622F2078D0
:1017300009F00C949F0B683441F70C94550BE89416
:10174000E2ECF6E0C895601509F468940EF4939401
:101750000E945B010EF00C94D50B0E947101E4EA2B
:10176000F3E00E94CE0404EF302E02E00F933F928C
:1017700000E3302E06E03A94F1F73A940A95D9F74F
:101780003F900F913A9491F70A9581F72DE265E029
:101790000E94E50529E30E94E5052DE20E94E5058A
:1017A00029E30E94E5050C94F50B0E947101EEEA15
:1017B000F3E00E94CE0404EF302E02E00F933F923C
:1017C00000E3302E06E03A94F1F73A940A95D9F7FF
:1017D0003F900F913A9491F70A9581F721EC6EE1D1
:1017E0000E94E50521EC0E94E505551B442733279F
:1017F0002227292D0FE4402E01E0502E0E94D6040E
:1018000053636F72653AC012000000ED302E08E09D
:101810000F933F9200E3302E06E03A94F1F73A94AA
:101820000A95D9F73F900F913A9491F70A9581F76D
:101830000E947101E4ECF6E00E94CE04E6EDF6E0D1
:1018400020E40E947D010E94CE040E9413010E94A8
:10185000DB19622F207809F00C94620C683441F790
:101860000E947101E6EEF6E00E94CE04E8EFF6E099
:1018700020E40E947D010E94CE040E9413010E9478
:10188000DB19622F207809F00C94620C683441F760
:101890000E947101E8E0F7E00E94CE04E6E1F7E083
:1018A00020E40E947D010E94CE040E9413010E9448
:1018B000DB19622F207809F00C94620C683441F730
:1018C0000C94180CE894E0E2F7E0C895601509F470
:1018D00068940EF493940E945B010EF00C94980CA3
:1018E0000E947101E4EAF3E00E94CE0404EF302E7E
:1018F00002E00F933F9200E3302E06E03A94F1F7B6
:101900003A940A95D9F73F900F913A9491F70A9536
:1019100081F72DE265E00E94E50529E30E94E505D7
:101920002DE20E94E50529E30E94E5050C94B80C20
:101930000E947101EEEAF3E00E94CE0404EF302E23
:1019400002E00F933F9200E3302E06E03A94F1F765
:101950003A940A95D9F73F900F913A9491F70A95E6
:1019600081F721EC6EE10E94E50521EC0E94E5057E
:10197000551B442733272227292D0FE4402E01E051
:10198000502E0E94D60453636F72653AC012000055
:1019900000ED302E08E00F933F9200E3302E06E07A
:1019A0003A94F1F73A940A95D9F73F900F913A9407
:1019B00091F70A9581F70E947101E2E2F7E00E9437
:1019C000CE04E0E3F7E020E40E947D010E94CE0413
:1019D0000E9413010E94DB19622F207809F00C94F9
:1019E000250D683441F70E947101ECE3F7E00E9495
:1019F000CE04EEE4F7E020E40E947D010E94CE04D4
:101A00000E9413010E94DB19622F207809F00C94C8
:101A1000250D683441F70E947101EAE5F7E00E9464
:101A2000CE04E4E6F7E020E40E947D010E94CE04AB
:101A30000E9413010E94DB19622F207809F00C9498
:101A4000250D683441F70C94DB0CE894EEE6F7E0E2
:101A5000C895601509F468940EF493940E945B0194
:101A60000EF00C945B0D0E947101E4EAF3E00E9419
:101A7000CE0404EF302E02E00F933F9200E3302EAD
:101A800006E03A94F1F73A940A95D9F73F900F910E
:101A90003A9491F70A9581F72DE265E00E94E505F9
:101AA00029E30E94E5052DE20E94E50529E30E9455
:101AB000E5050C947B0D0E947101EEEAF3E00E94B3
:101AC000CE0404EF302E02E00F933F9200E3302E5D
:101AD00006E03A94F1F73A940A95D9F73F900F91BE
:101AE0003A9491F70A9581F721EC6EE10E94E505A1
:101AF00021EC0E94E505551B442733272227292D79
:101B00000FE4402E01E0502E0E94D60453636F7202
:101B1000653AC012000000ED302E08E00F933F92AE
:101B200000E3302E06E03A94F1F73A940A95D9F79B
:101B30003F900F913A9491F70A9581F70E947101B5
:101B4000E0E7F7E00E94CE04E2E8F7E020E40E943C
:101B50007D010E94CE040E9413010E94DB19622FB6
:101B6000207809F00C94E80D683441F70E94710167
:101B7000E0E9F7E00E94CE04E8E9F7E020E40E9403
:101B80007D010E94CE040E9413010E94DB19622F86
:101B9000207809F00C94E80D683441F70E94710137
:101BA000E6EAF7E00E94CE04E0EBF7E020E40E94D2
:101BB0007D010E94CE040E9413010E94DB19622F56
:101BC000207809F00C94E80D683441F70C949E0DD0
:101BD000E894E2ECF7E0C895601509F468940EF417
:101BE00093940E945B010EF00C941E0E0E947101F2
:101BF000E4EAF3E00E94CE0404EF302E02E00F93FB
:101C00003F9200E3302E06E03A94F1F73A940A95B9
:101C1000D9F73F900F913A9491F70A9581F72DE209
:101C200065E00E94E50529E30E94E5052DE20E949A
:101C3000E50529E30E94E5050C943E0E0E94710122
:101C4000EEEAF3E00E94CE0404EF302E02E00F93A0
:101C50003F9200E3302E06E03A94F1F73A940A9569
:101C6000D9F73F900F913A9491F70A9581F721ECBB
:101C70006EE10E94E50521EC0E94E505551B442715
:101C800033272227292D0FE4402E01E0502E0E94F9
:101C9000D60453636F72653AC012000000ED302E17
:101CA00008E00F933F9200E3302E06E03A94F1F7FC
:101CB0003A940A95D9F73F900F913A9491F70A9583
:101CC00081F70E947101E4ECF7E00E94CE04E4ED9C
:101CD000F7E020E40E947D010E94CE040E941301DF
:101CE0000E94DB19622F207809F00C94AB0E683447
:101CF00041F70E947101E6EEF7E00E94CE04E8EFA2
:101D0000F7E020E40E947D010E94CE040E941301AE
:101D10000E94DB19622F207809F00C94AB0E683416
:101D200041F70E947101E6E0F8E00E94CE04EEE087
:101D3000F8E020E40E947D010E94CE040E9413017D
:101D40000E94DB19622F207809F00C94AB0E6834E6
:101D500041F70C94610EE894E0E2F8E0C895601554
:101D600009F468940EF493940E945B010EF00C94B5
:101D7000E10E0E947101E4EAF3E00E94CE0404EF58
:101D8000302E02E00F933F9200E3302E06E03A94AB
:101D9000F1F73A940A95D9F73F900F913A9491F759
:101DA0000A9581F72DE265E00E94E50529E30E948E
:101DB000E5052DE20E94E50529E30E94E5050C9466
:101DC000010F0E947101EEEAF3E00E94CE0404EFDD
:101DD000302E02E00F933F9200E3302E06E03A945B
:101DE000F1F73A940A95D9F73F900F913A9491F709
:101DF0000A9581F721EC6EE10E94E50521EC0E9435
:101E0000E505551B442733272227292D0FE4402EB3
:101E100001E0502E0E94D60453636F72653AC012DF
:101E2000000000ED302E08E00F933F9200E3302ECB
:101E300006E03A94F1F73A940A95D9F73F900F915A
:101E40003A9491F70A9581F70E947101E2E2F8E075
:101E50000E94CE04E0E3F8E020E40E947D010E94AD
:101E6000CE040E9413010E94DB19622F207809F032
:101E70000C946E0F683441F70E947101ECE3F8E0B6
:101E80000E94CE04EAE4F8E020E40E947D010E9472
:101E9000CE040E9413010E94DB19622F207809F002
:101EA0000C946E0F683441F70E947101ECE5F8E084
:101EB0000E94CE04EAE6F8E020E40E947D010E9440
:101EC000CE040E9413010E94DB19622F207809F0D2
:101ED0000C946E0F683441F70C94240FE894EAE7F1
:101EE000F8E0C895601509F468940EF493940E9484
:101EF0005B010EF00C94A40F0E947101E4EAF3E080
:101F00000E94CE0404EF302E02E00F933F9200E3D4
:101F1000302E06E03A94F1F73A940A95D9F73F90BB
:101F20000F913A9491F70A9581F72DE265E00E94AE
:101F3000E50529E30E94E5052DE20E94E50529E378
:101F40000E94E5050C94C40F0E947101EEEAF3E0D3
:101F50000E94CE0404EF302E02E00F933F9200E384
:101F6000302E06E03A94F1F73A940A95D9F73F906B
:101F70000F913A9491F70A9581F721EC6EE10E9456
:101F8000E50521EC0E94E505551B44273327222750
:101F9000292D0FE4402E01E0502E0E94D6045363F9
:101FA0006F72653AC012000000ED302E08E00F930A
:101FB0003F9200E3302E06E03A94F1F73A940A9506
:101FC000D9F73F900F913A9491F70A9581F705E080
:101FD000901610F40C9477100E947101EEE3F4E077
:101FE0000E94CE04EEE4F4E020E40E947D010E9411
:101FF000CE0420E660E50E94E50520E86CE30E943F
:10200000E50520E660E50E94E5052CE46CE30E940E
:10201000E50520E46CE30E94E50520E36CE30E9403
:10202000E50526E26AEA0E94E50520E36AEA0E94E5
:10203000E5052BE560E50E94E50529E76CE30E94D4
:10204000E5052BE560E50E94E50528E46CE30E94C8
:10205000E5052EE16CE30E94E5052DE26CE30E94AC
:10206000E50524E26AEA0E94E5052DE26AEA0E949B
:10207000E50521E560E50E94E5052CE66CE30E949C
:10208000E50521E560E50E94E50520E46CE30E949A
:10209000E50526E36CE30E94E50528E26AEA0E9472
:1020A000E50524E268EC0E94E5050E947101E6EE78
:1020B000F3E00E94CE04E0EFF3E020E40E947D0113
:1020C0000E94CE0400EA302E00E10F933F9200E31D
:1020D000302E06E03A94F1F73A940A95D9F73F90FA
:1020E0000F913A9491F70A9581F70C94D7060E94C4
:1020F0007101E6E5F4E00E94CE04E0E6F4E020E4BD
:102100000E947D010E94CE0423E360E50E94E50564
:102110000CE3302E01E00F933F9200E3302E06E0F7
:102120003A94F1F73A940A95D9F73F900F913A947F
:1021300091F70A9581F724E26AE50E94E5050CE330
:10214000302E01E00F933F9200E3302E06E03A94E8
:10215000F1F73A940A95D9F73F900F913A9491F795
:102160000A9581F724E266E40E94E5050CE3302E2F
:1021700001E00F933F9200E3302E06E03A94F1F72E
:102180003A940A95D9F73F900F913A9491F70A95AE
:1021900081F724E266E40E94E5050CE3302E01E0BD
:1021A0000F933F9200E3302E06E03A94F1F73A9411
:1021B0000A95D9F73F900F913A9491F70A9581F7D4
:1021C00024E266E40E94E50526E266E40E94E50555
:1021D0002AE266E40E94E50520E36CE80E94E5053A
:1021E0000CEB302E03E00F933F9200E3302E06E01D
:1021F0003A94F1F73A940A95D9F73F900F913A94AF
:1022000091F70A9581F720E364E60E94E50520E452
:1022100064E60E94E5052CE464E60E94E50526E3F9
:1022200064E60E94E50520E364E60E94E50526E3F6
:1022300064E60E94E5052CE364E60E94E50526E3DA
:1022400064E60E94E5052CE364E60E94E50520E4CF
:1022500060E50E94E50528E46CE30E94E50520E4C2
:1022600066E90E94E5050C94D7060E947101E2E63A
:10227000F3E00E94CE04E2E8F3E020E40E947D0156
:102280000E94CE0400ED302E08E00F933F9200E351
:10229000302E06E03A94F1F73A940A95D9F73F9038
:1022A0000F913A9491F70A9581F70E947101E6ED3A
:1022B000F3E00E94CE0400ED302E08E00F933F9231
:1022C00000E3302E06E03A94F1F73A940A95D9F7F4
:1022D0003F900F913A9491F70A9581F700E0902E84
:1022E0000E947101ECE7F8E00E94CE0400ED302E70
:1022F00008E00F933F9200E3302E06E03A94F1F7A6
:102300003A940A95D9F73F900F913A9491F70A952C
:1023100081F70E945A066C197D0928E030E06217A7
:1023200073074AF10E947101ECEAF8E00E94CE04C2
:1023300004EF302E02E00F933F9200E3302E06E0D0
:102340003A94F1F73A940A95D9F73F900F913A945D
:1023500091F70A9581F72DE265E00E94E50529E3F2
:102360000E94E5052DE20E94E50529E30E94E505AE
:1023700093940C94DD110E947101E8ECF8E00E9446
:10238000CE0404EF302E02E00F933F9200E3302E94
:1023900006E03A94F1F73A940A95D9F73F900F91F5
:1023A0003A9491F70A9581F721EC6EE10E94E505D8
:1023B00021EC0E94E5050C94DD110E947101ECE80E
:1023C000F8E00E94CE0400ED302E08E00F933F921B
:1023D00000E3302E06E03A94F1F73A940A95D9F7E3
:1023E0003F900F913A9491F70A9581F70E945A060F
:1023F0006C197D0928E030E06217730792F120E143
:1024000030E0621B730B0AF00C9453120E945B01C4
:102410000E947101ECEAF8E00E94CE0404EF302E35
:1024200002E00F933F9200E3302E06E03A94F1F77A
:102430003A940A95D9F73F900F913A9491F70A95FB
:1024400081F72DE265E00E94E50529E30E94E5059C
:102450002DE20E94E50529E30E94E50593940C9482
:1024600075120E947101E8ECF8E00E94CE0404EFBE
:10247000302E02E00F933F9200E3302E06E03A94B4
:10248000F1F73A940A95D9F73F900F913A9491F762
:102490000A9581F721EC6EE10E94E50521EC0E948E
:1024A000E5050C9475120E947101E8EDF8E00E94B8
:1024B000CE0404EF302E02E00F933F9200E3302E63
:1024C00006E03A94F1F73A940A95D9F73F900F91C4
:1024D0003A9491F70A9581F721EC6EE10E94E505A7
:1024E00021EC0E94E5050C9475120E947101EEE941
:1024F000F8E00E94CE0400ED302E08E00F933F92EA
:1025000000E3302E06E03A94F1F73A940A95D9F7B1
:102510003F900F913A9491F70A9581F70E945A06DD
:102520006C197D0920E130E0621773074AF10E94BF
:102530007101ECEAF8E00E94CE0404EF302E02E0D4
:102540000F933F9200E3302E06E03A94F1F73A946D
:102550000A95D9F73F900F913A9491F70A9581F730
:102560002DE265E00E94E50529E30E94E5052DE2E4
:102570000E94E50529E30E94E50593940C94E2127C
:102580000E947101E8ECF8E00E94CE0404EF302EC6
:1025900002E00F933F9200E3302E06E03A94F1F709
:1025A0003A940A95D9F73F900F913A9491F70A958A
:1025B00081F721EC6EE10E94E50521EC0E94E50522
:1025C0000C94E21202E0901610F40C9472130E9424
:1025D0007101ECEAF8E00E94CE04E6EBF8E020E4BA
:1025E0000E947D010E94CE0420E660E50E94E50580
:1025F00020E86CE30E94E50520E660E50E94E50521
:102600002CE46CE30E94E50520E46CE30E94E50500
:1026100020E36CE30E94E50526E26AEA0E94E505F4
:1026200020E36AEA0E94E5052BE560E50E94E505E6
:1026300029E76CE30E94E5052BE560E50E94E505CE
:1026400028E46CE30E94E5052EE16CE30E94E505B9
:102650002DE26CE30E94E50524E26AEA0E94E505AA
:102660002DE26AEA0E94E50521E560E50E94E505A4
:102670002CE66CE30E94E50521E560E50E94E50596
:1026800020E46CE30E94E50526E36CE30E94E50587
:1026900028E26AEA0E94E50524E268EC0E94E5056A
:1026A0000E947101EEEFF3E00E94CE04E8E0F4E056
:1026B00020E40E947D010E94CE0400EA302E00E159
:1026C0000F933F9200E3302E06E03A94F1F73A94EC
:1026D0000A95D9F73F900F913A9491F70A9581F7AF
:1026E0000C94D7060E947101E6E5F4E00E94CE0446
:1026F000E0E6F4E020E40E947D010E94CE0423E3A2
:1027000060E50E94E5050CE3302E01E00F933F9257
:1027100000E3302E06E03A94F1F73A940A95D9F79F
:102720003F900F913A9491F70A9581F724E26AE578
:102730000E94E5050CE3302E01E00F933F9200E389
:10274000302E06E03A94F1F73A940A95D9F73F9083
:102750000F913A9491F70A9581F724E266E40E947A
:10276000E5050CE3302E01E00F933F9200E3302E9D
:1027700006E03A94F1F73A940A95D9F73F900F9111
:102780003A9491F70A9581F724E266E40E94E50500
:102790000CE3302E01E00F933F9200E3302E06E071
:1027A0003A94F1F73A940A95D9F73F900F913A94F9
:1027B00091F70A9581F724E266E40E94E50526E296
:1027C00066E40E94E5052AE266E40E94E50520E34E
:1027D0006CE80E94E5050CEB302E03E00F933F926E
:1027E00000E3302E06E03A94F1F73A940A95D9F7CF
:1027F0003F900F913A9491F70A9581F720E364E6B0
:102800000E94E50520E464E60E94E5052CE464E608
:102810000E94E50526E364E60E94E50520E364E600
:102820000E94E50526E364E60E94E5052CE364E6E4
:102830000E94E50526E364E60E94E5052CE364E6D4
:102840000E94E50520E460E50E94E50528E46CE3CC
:102850000E94E50520E466E90E94E5050C94D70690
:102860000E947101E2E6F3E00E94CE04E4E9F3E0A5
:1028700020E40E947D010E94CE0400ED302E08E08D
:102880000F933F9200E3302E06E03A94F1F73A942A
:102890000A95D9F73F900F913A9491F70A9581F7ED
:1028A0000E947101EAEEF8E00E94CE04EAEFF8E03F
:1028B00020E40E947D010E94CE0400ED302E08E04D
:1028C0000F933F9200E3302E06E03A94F1F73A94EA
:1028D0000A95D9F73F900F913A9491F70A9581F7AD
:1028E0000E947101EAE0F9E00E94CE04ECE1F9E017
:1028F00020E40E947D010E94CE0400ED302E08E00D
:102900000F933F9200E3302E06E03A94F1F73A94A9
:102910000A95D9F73F900F913A9491F70A9581F76C
:102920000E947101EEE2F9E00E94CE04EAE8F9E0CB
:1029300020E40E947D010E94CE0400ED302E08E0CC
:102940000F933F9200E3302E06E03A94F1F73A9469
:102950000A95D9F73F900F913A9491F70A9581F72C
:102960000E945B010FE4402E01E0502E0E94D6042D
:102970002A2A2A2A2A2A2A2A2A2A2A2A2A2A2A2AB7
:10298000000020E40E947D010FE4402E01E0502E63
:102990000E94D6042A2A2A2A2A2A2A2A2A2A2A2AC3
:1029A0002A2A2A2A000000E0902E00E0A02E0E9491
:1029B00013010E94DB19E894E0E4F9E0C8952015C2
:1029C00009F468940EF4939420E40E947D010FE4CE
:1029D000402E01E0502E0E94D6042A2A2A2A2A2AB2
:1029E00085162A2A2A2A2A2A2A2A000027E40E944F
:1029F0007D010E9413010E94DB19E894E2E4F9E0F2
:102A0000C895201509F468940EF493940FE4402EB1
:102A100001E0502E0E94D6048516000028E40E9492
:102A20007D010E9413010E94DB19E894E4E4F9E0BF
:102A3000C895201509F468940EF493940FE4402E81
:102A400001E0502E0E94D6048516000000ED302EC5
:102A500008E00F933F9200E3302E06E03A94F1F73E
:102A60003A940A95D9F73F900F913A9491F70A95C5
:102A700081F703E0901611F40C9459150E9471012E
:102A8000EEEAF3E00E94CE0400ED302E08E00F9352
:102A90003F9200E3302E06E03A94F1F73A940A951B
:102AA000D9F73F900F913A9491F70A9581F70C94DA
:102AB00075150E947101E4EAF3E00E94CE0400ED76
:102AC000302E08E00F933F9200E3302E06E03A9458
:102AD000F1F73A940A95D9F73F900F913A9491F70C
:102AE0000A9581F7A3940C94751500E0902E0E942E
:102AF0007101EAE0F9E00E94CE04ECE1F9E020E4A3
:102B00000E947D010E94CE0400ED302E08E00F935C
:102B10003F9200E3302E06E03A94F1F73A940A959A
:102B2000D9F73F900F913A9491F70A9581F70E9457
:102B30007101E6E4F9E00E94CE04EAE8F9E020E45D
:102B40000E947D010E94CE0400ED302E08E00F931C
:102B50003F9200E3302E06E03A94F1F73A940A955A
:102B6000D9F73F900F913A9491F70A9581F70E9417
:102B70005B010FE4402E01E0502E0E94D6042A2A69
:102B80002A2A2A2A2A2A2A2A2A2A2A2A2A2A0000F9
:102B900020E40E947D010FE4402E01E0502E0E94AF
:102BA000D6042A2A2A2A2A2A2A2A2A2A2A2A2A2AFF
:102BB0002A2A00000E9413010E94DB19E894E8E52C
:102BC000F9E0C895201509F468940EF4939420E474
:102BD0000E947D010FE4402E01E0502E0E94D60499
:102BE0002A2A2A2A2A85162A2A2A2A2A2A2A2A2AFE
:102BF000000026E40E947D010E9413010E94DB195F
:102C0000E894EAE5F9E0C895201509F468940EF413
:102C100093940FE4402E01E0502E0E94D6048516B6
:102C2000000027E40E947D010E9413010E94DB192D
:102C3000E894ECE5F9E0C895201509F468940EF4E1
:102C400093940FE4402E01E0502E0E94D604851686
:102C5000000028E40E947D010E9413010E94DB19FC
:102C6000E894EEE5F9E0C895201509F468940EF4AF
:102C700093940FE4402E01E0502E0E94D604851656
:102C8000000029E40E947D010E9413010E94DB19CB
:102C9000E894E0E6F9E0C895201509F468940EF48C
:102CA00093940FE4402E01E0502E0E94D604851626
:102CB00000002AE40E947D010E9413010E94DB199A
:102CC000E894E2E6F9E0C895201509F468940EF45A
:102CD00093940FE4402E01E0502E0E94D6048516F6
:102CE000000000ED302E08E00F933F9200E3302EFD
:102CF00006E03A94F1F73A940A95D9F73F900F918C
:102D00003A9491F70A9581F706E0901611F40C9425
:102D1000A4160E947101EEEAF3E00E94CE0400EDD9
:102D2000302E08E00F933F9200E3302E06E03A94F5
:102D3000F1F73A940A95D9F73F900F913A9491F7A9
:102D40000A9581F70C94C0160E947101E4EAF3E041
:102D50000E94CE0400ED302E08E00F933F9200E376
:102D6000302E06E03A94F1F73A940A95D9F73F905D
:102D70000F913A9491F70A9581F7A3940C94C01699
:102D800000E0902E0E947101EAE0F9E00E94CE047A
:102D9000ECE1F9E020E40E947D010E94CE0400ED08
:102DA000302E08E00F933F9200E3302E06E03A9475
:102DB000F1F73A940A95D9F73F900F913A9491F729
:102DC0000A9581F70E947101E4E6F9E00E94CE04C1
:102DD000EAE8F9E020E40E947D010E94CE0400EDC3
:102DE000302E08E00F933F9200E3302E06E03A9435
:102DF000F1F73A940A95D9F73F900F913A9491F7E9
:102E00000A9581F70E945B010FE4402E01E0502EED
:102E10000E94D6042A2A2A2A2A2A2A2A2A2A2A2A3E
:102E20002A2A2A2A000020E40E947D010FE4402E75
:102E300001E0502E0E94D6042A2A2A2A2A2A2A2A67
:102E40002A2A2A2A2A2A2A2A00000E9413010E94DA
:102E5000DB19E894E6E7F9E0C895201509F46894D1
:102E60000EF4939420E40E947D010FE4402E01E0D3
:102E7000502E0E94D6042A2A2A85162A2A2A2A2A6D
:102E80002A2A2A2A2A2A2A0024E40E947D010E9452
:102E900013010E94DB19E894E8E7F9E0C8952015D2
:102EA00009F468940EF493940FE4402E01E0502E40
:102EB0000E94D6048516000025E40E947D010E9430
:102EC00013010E94DB19E894EAE7F9E0C8952015A0
:102ED00009F468940EF493940FE4402E01E0502E10
:102EE0000E94D6048516000026E40E947D010E94FF
:102EF00013010E94DB19E894ECE7F9E0C89520156E
:102F000009F468940EF493940FE4402E01E0502EDF
:102F10000E94D6048516000027E40E947D010E94CD
:102F200013010E94DB19E894EEE7F9E0C89520153B
:102F300009F468940EF493940FE4402E01E0502EAF
:102F40000E94D6048516000028E40E947D010E949C
:102F500013010E94DB19E894E0E8F9E0C895201518
:102F600009F468940EF493940FE4402E01E0502E7F
:102F70000E94D6048516000029E40E947D010E946B
:102F800013010E94DB19E894E2E8F9E0C8952015E6
:102F900009F468940EF493940FE4402E01E0502E4F
:102FA0000E94D604851600002AE40E947D010E943A
:102FB00013010E94DB19E894E4E8F9E0C8952015B4
:102FC00009F468940EF493940FE4402E01E0502E1F
:102FD0000E94D604851600002BE40E947D010E9409
:102FE00013010E94DB19E894E6E8F9E0C895201582
:102FF00009F468940EF493940FE4402E01E0502EEF
:103000000E94D604851600002CE40E947D010E94D7
:1030100013010E94DB19E894E8E8F9E0C89520154F
:1030200009F468940EF493940FE4402E01E0502EBE
:103030000E94D6048516000000ED302E08E00F93A4
:103040003F9200E3302E06E03A94F1F73A940A9565
:10305000D9F73F900F913A9491F70A9581F70AE0DA
:10306000901611F40C944F180E947101EEEAF3E0EF
:103070000E94CE0400ED302E08E00F933F9200E353
:10308000302E06E03A94F1F73A940A95D9F73F903A
:103090000F913A9491F70A9581F70C946B180E945E
:1030A0007101E4EAF3E00E94CE0400ED302E08E066
:1030B0000F933F9200E3302E06E03A94F1F73A94F2
:1030C0000A95D9F73F900F913A9491F70A9581F7B5
:1030D000A3940C946B1802E0A01610F40C94FB1847
:1030E0000E947101EEE3F4E00E94CE04EEE4F4E00D
:1030F00020E40E947D010E94CE0420E660E50E944B
:10310000E50520E86CE30E94E50520E660E50E9405
:10311000E5052CE46CE30E94E50520E46CE30E94E5
:10312000E50520E36CE30E94E50526E26AEA0E94D9
:10313000E50520E36AEA0E94E5052BE560E50E94CB
:10314000E50529E76CE30E94E5052BE560E50E94B3
:10315000E50528E46CE30E94E5052EE16CE30E949E
:10316000E5052DE26CE30E94E50524E26AEA0E948F
:10317000E5052DE26AEA0E94E50521E560E50E9489
:10318000E5052CE66CE30E94E50521E560E50E947B
:10319000E50520E46CE30E94E50526E36CE30E946C
:1031A000E50528E26AEA0E94E50524E268EC0E944F
:1031B000E5050E947101E6E1F4E00E94CE04E8E238
:1031C000F4E020E40E947D010E94CE0400EA302E4B
:1031D00000E10F933F9200E3302E06E03A94F1F7BE
:1031E0003A940A95D9F73F900F913A9491F70A953E
:1031F00081F70C94D7060E947101E6E5F4E00E9485
:10320000CE04E0E6F4E020E40E947D010E94CE04BA
:1032100023E360E50E94E5050CE3302E01E00F9307
:103220003F9200E3302E06E03A94F1F73A940A9583
:10323000D9F73F900F913A9491F70A9581F724E2DC
:103240006AE50E94E5050CE3302E01E00F933F9202
:1032500000E3302E06E03A94F1F73A940A95D9F754
:103260003F900F913A9491F70A9581F724E266E432
:103270000E94E5050CE3302E01E00F933F9200E33E
:10328000302E06E03A94F1F73A940A95D9F73F9038
:103290000F913A9491F70A9581F724E266E40E942F
:1032A000E5050CE3302E01E00F933F9200E3302E52
:1032B00006E03A94F1F73A940A95D9F73F900F91C6
:1032C0003A9491F70A9581F724E266E40E94E505B5
:1032D00026E266E40E94E5052AE266E40E94E5052E
:1032E00020E36CE80E94E5050CEB302E03E00F9321
:1032F0003F9200E3302E06E03A94F1F73A940A95B3
:10330000D9F73F900F913A9491F70A9581F720E30E
:1033100064E60E94E50520E464E60E94E5052CE4ED
:1033200064E60E94E50526E364E60E94E50520E3E5
:1033300064E60E94E50526E364E60E94E5052CE3C9
:1033400064E60E94E50526E364E60E94E5052CE3B9
:1033500064E60E94E50520E460E50E94E50528E4B6
:103360006CE30E94E50520E466E90E94E5050C9403
:10337000D7060E947101E4EFF4E00E94CE04E0E081
:10338000F5E020E40E947D010E94CE0400ED302E85
:1033900008E00F933F9200E3302E06E03A94F1F7F5
:1033A0003A940A95D9F73F900F913A9491F70A957C
:1033B00081F70C94BC06822E08E1801609F40C9467
:0433C000BC060895AA
:00000001FF
