:020000020000FC
:1000000057454C434F4D4520544F20004D494352D6
:100010004F434F4E54524F4C4C4552205041525436
:10002000590043484F4F534520504C415945525376
:100030000000504C41592047414D45004F50454E1E
:10004000205341464500484F57204D414E592050BE
:100050004C4159455253000057494C4C20424520D1
:100060005041525459494E473F00454E5445522045
:1000700050415353434F44450000494E434F525261
:100080004543542050415353434F44450000434F90
:100090004E47524154554C4154494F4E532C200029
:1000A000594F552057494E20544849532047414DF8
:1000B0004520210057484F2053494E47532042497D
:1000C0004C4C4945204A45414E3F0000412E204DB1
:1000D00049434841454C204A41434B534F4E000051
:1000E000422E20545241435920434841504D414EE5
:1000F0000000C895002021F0202D0ED03196F9CFB8
:1001000008953090008037FCFCCF03D0009300802E
:10011000089500D0000008952D3069F12A30A9F12A
:100120000091008007FDFCCFF4DF209300C008950C
:1001300001E0E7CF02E0E5CF00E1E3CF04E1E1CF6A
:1001400008E1DFCF0CE1DDCF0DE0DBCF0CE0D9CF54
:100150000EE0D7CF0CE0D5CF05B7006C05BF01E0AE
:10016000D0DF06E0CEDF0CE0CCDF08E3CADF089585
:10017000022F0068C6CF0091008007FDFCCF0074FD
:100180000068C7DF0093008008952F9320E4F0DF1C
:100190002F9108950FEF0DBF00E10EBFDDDF30E0BE
:1001A00030FB00C00E94AC00E0E0F0E00E9479006B
:1001B000ECE0F0E020E40E94B8000E94790000ED3D
:1001C000302E08E00F933F9200E3302E06E03A9481
:1001D000F1F73A940A95D9F73F900F913A9491F735
:1001E0000A9581F70E94AC00E2E2F0E00E947900FB
:1001F000E2E3F0E020E40E94B8000E94790000ED04
:10020000302E08E00F933F9200E3302E06E03A9440
:10021000F1F73A940A95D9F73F900F913A9491F7F4
:100220000A9581F70E94AC00ECE3F0E00E947900AF
:1002300000E1302E08E20F933F9200E3302E06E0FB
:100240003A94F1F73A940A95D9F73F900F913A947E
:0602500091F70A9581F709
:00000001FF
