:020000020000FC
:100000000C9408070C9422000C9427000C942C00EC
:040010000C9431001B
:100040000C94100101E0102E01E0E02E0FC002E040
:10005000102E02E0E02E0AC004E0102E04E0E02E94
:1000600005C008E0102E08E0E02E00C00FEF02BB34
:100070000EE1302E01E00F933F9200E3302E06E0B8
:100080003A94F1F73A940A95D9F73F900F913A9440
:1000900091F70A9581F70FE702BB0EE1302E01E0E0
:1000A0000F933F9200E3302E06E03A94F1F73A9432
:1000B0000A95D9F73F900F913A9491F70A9581F7F5
:1000C00000B30E21002319F400E4202E8CC00EE1B1
:1000D000302E01E00F933F9200E3302E06E03A9479
:1000E000F1F73A940A95D9F73F900F913A9491F726
:1000F0000A9581F70FEB02BB0EE1302E01E00F9362
:100100003F9200E3302E06E03A94F1F73A940A95D4
:10011000D9F73F900F913A9491F70A9581F700B380
:100120000E21002319F400E8202E5DC00EE1302ED0
:1001300001E00F933F9200E3302E06E03A94F1F78E
:100140003A940A95D9F73F900F913A9491F70A950E
:1001500081F70FED02BB0EE1302E01E00F933F92CD
:1001600000E3302E06E03A94F1F73A940A95D9F775
:100170003F900F913A9491F70A9581F700B30E21C1
:10018000002319F400E2202E2EC00EE1302E01E0F3
:100190000F933F9200E3302E06E03A94F1F73A9441
:1001A0000A95D9F73F900F913A9491F70A9581F704
:1001B0000FEE02BB0EE1302E01E00F933F9200E301
:1001C000302E06E03A94F1F73A940A95D9F73F9029
:1001D0000F913A9491F70A9581F700B30E2100230D
:1001E00011F400E1202E1AE00FEFF02E25E56EE16C
:1001F0000E94310608EC302E01E00F933F9200E39D
:10020000302E06E03A94F1F73A940A95D9F73F90E8
:100210000F913A9491F70A9581F70FE002BB189578
:1002200000E003BF189500EF01BB0FE002BB0FEF2A
:1002300007BB0FE009BF00E00ABF22241124FF24FE
:1002400033274427552777278827992778940C94B4
:100250002901FF20F1F3FF242227210D220D66271B
:10026000822E21FD6C5F22FD685F23FD645F25FD0A
:100270006F5F26FD6E5F27FD6D5FE62FFF27E25E55
:10028000FC4FC895602D08953090008037FCFCCF5E
:1002900003D000930080089500D0000008952D3011
:1002A00079F12A30B9F10091008007FDFCCFF4DF2D
:1002B000209300C0089501E0E7CF02E0E5CF00E120
:1002C000E3CF04E1E1CF08E1DFCF0CE1DDCF0DE0CA
:1002D000DBCF0CE0D9CF0EE0D7CF0CE0D5CF0FE0CD
:1002E000D3CF05B7006C05BF01E0CEDF06E0CCDF61
:1002F0000CE0CADF08E3C8DF0895022F0068C4CF0E
:100300000091008007FDFCCF00740068C5DF0093FA
:10031000008008952F9320E4F0DF2F91089531326B
:10032000334134353642373839432A3023440000CC
:100330003D3D3D57454C434F4D4520544F3D3D3D80
:1003400000003D3D3D3D4D43552050415254593DE7
:100350003D3D0000412E20504C41592047414D4524
:100360000000422E204F50454E205341464500008C
:100370002057656C636F6D6520746F20746865200D
:100380000000207472697669612067616D65203AAA
:1003900029200000626F617264206973206C6176AD
:1003A00061203A2900006B65797061642064616E98
:1003B0006365203A2900436F7272656374210000FF
:1003C00046616C7365210000416E7377657220355C
:1003D0002F313020636F2D0072726563746C792049
:1003E000746F2077696E000057696E20322F3320BA
:1003F000746F2077696E00002020202031737420F4
:10040000636C75653A2020200000202020534E4F59
:100410005720574849544520202000001400202030
:100420002020326E6420636C75653A202020000025
:100430002020204D75736B657465657273202020D4
:100440000000410033726420636C75653A202832E5
:100450006469672900004B61746E69737320457687
:1004600065726465656E000011002100434F4E47C0
:10047000524154554C4154494F4E53003D3D3D3D32
:100480003D594F552057494E3D3D3D3D00003D3DB6
:100490003D3D594F55204C4F53453D3D3D3D00009E
:1004A0003D3D3D3D54525920414741494E3D3D3D22
:1004B0000000412E20545249564941205155495A75
:1004C0000000422E204C41564120424F41524400F0
:1004D000432E204B45595041442044414E43450052
:1004E000454E5445522050415353434F444500001C
:1004F000434F52524543542050415353434F444578
:1005000000003D3D3D3D494E434F52524543543D11
:100510003D3D00003D3D3D3D50415353434F44451B
:100520003D3D3D3D0000434F4E47524154554C41E7
:1005300054494F4E532C2000594F552057494E20B7
:10054000544849532047414D452021002020205444
:1005500048414E4B5320464F52202020000020207F
:1005600020504C4159494E4721203A442020000058
:1005700057686F2077726F74652074686500736FB9
:100580006E672027746872696C6C6572273F000083
:10059000412E20504C4159424F4920434152544929
:1005A0000000422E20545241435920434841504DAF
:1005B000414E0000432E20412E205343484D4944D4
:1005C0000000442E204D2E204A41434B534F4E00F5
:1005D000880057686F20706C617973004865726D90
:1005E000696F6E653F00412E20454D4D41205741BA
:1005F00054534F4E0000422E20454D4D4120535440
:100600004F4E4500432E20504C4159424F49204304
:10061000415254490000442E205A4F452053414C2A
:1006200044414E410000810057686963682062615F
:100630006E642077726F7465000027686579207991
:100640006F7527203F00412E20504C4159424F49A1
:100650002043415254490000422E204C4544205A28
:100660004550504C494E0000432E204A4F55524EA3
:1006700045590000442E2050494E4B20464C4F59BE
:100680004400880057686F2077726F746520274197
:10069000697200006F6E204720737472696E67275D
:1006A0003F00412E20504C4159424F492043415276
:1006B00054490000422E2042454554484F56454E6D
:1006C0000000432E20534348554245525400442EC7
:1006D000204A2E532E20424143480000880057688C
:1006E0006F2074656163686573004D4355206265D2
:1006F00073743F00412E20504C4159424F492043D2
:10070000415254490000422E20412E205343484D6F
:1007100049440000432E204D2E20414C4900442ED8
:10072000204352203700820057686F20776F6E2079
:100730007468652032303232000046494641205705
:100740006F726C64204375703F00412E20504C4105
:1007500059424F492043415254490000422E2053F0
:100760005749545A45524C414E440000432E2041B3
:100770005247454E54494E410000442E20465241B6
:100780004E43450084005768696368206469736854
:10079000206973006E6F742073776973733F000074
:1007A000412E20504C4159424F4920434152544917
:1007B0000000422E205241434C4554544500432EE4
:1007C00020464F4E44554500442E20524F45535429
:1007D000490081005768617427732074686520633D
:1007E0006170692D000074616C206F66204C616F30
:1007F000733F0000412E204C414F5300422E2056A3
:1008000049454E5449414E450000432E2056454E21
:1008100049434500442E20504C4159424F49204302
:100820004152544900008200576861742773207454
:10083000686520626573740073656374696F6E2008
:100840006174204550464C3F0000412E204C4946E3
:100850004520534349454E4345530000422E204D09
:100860004943524F544543480000432E20454C45D0
:100870004300442E20504C4159424F49204341529D
:1008800054490000840057686F2077726F746520A8
:1008900074686500736F6E672027736B79273F005C
:1008A000412E204B414E5945205745535400422E6E
:1008B00020504C4159424F49204341525449000075
:1008C000432E20412E205343484D49440000442EDE
:1008D000205441594C4F52205357494654008200EE
:1008E0002041646420302E354320696E2038732007
:1008F000000041646420302E352D314320696E2084
:1009000038730000202041646420314320696E2048
:100910003873202000003D3D3D3D594F552057493B
:100920004E213D3D3D3D0000434F4E475241545501
:100930004C4154494F4E53210000204974277320E5
:10094000667265657A696E67212000003220686FE3
:100950007420746F2068616E646C65210000436FC1
:100960006D652064616E63652C206E6F000065729A
:10097000726F727320616C6C6F77656421003D3D0E
:100980003D526570656174207468653D3D3D0000B1
:100990003D3D3D3D73657175656E63653D3D3D3D16
:1009A00000003D3D3D3D3D3D3537423D3D3D3D3DFA
:1009B0003D3D00002200140082003D3D3D3D3D30A4
:1009C00041394333443D3D3D3D3D00002800810019
:1009D00044008400410088003D3D3D3932393042B9
:1009E00044412330343D3D3D00004400210044009B
:1009F00028008200880081004800280012003D3D48
:100A00003D3D3D3D3D3D3D3D3D3D3D3D3D3D000090
:100A1000204D6164652062792054686F6D61732098
:100A20000000202020616E642052656E756B61208D
:100A300020200000C895002021F0202D30DC3196C8
:100A4000F9CF0895FF91EF91EE0FFF1FAF93BF9382
:100A5000C8953196002021F04AF0002D13D0F8CF30
:100A60003196F695E795BF91AF91099400FA002D64
:100A7000C895A02DBB273196043879F0053881F050
:100A800015C0E6CF2F93FF93EF93E42DF52D202F84
:100A90000995EF91FF912F9108950C91F3DFD8CF35
:100AA0000D91002309F4D4CFEDDFFACF5F934F937C
:100AB0003F932F939F938F937F936F932D913D91AE
:100AC0004D915D9106FD06C005FD0FC004FD10C0EF
:100AD00003FD19C06AE0702F76957770729580E0FB
:100AE000902F9295937093951AC062E094E003C0A2
:100AF00060E194E000C0702F7695777009F478E09B
:100B0000729580E00CC06AE0C895802D3196C8953A
:100B1000702D3196902F95959370939500C09430D9
:100B200081F0933051F0923021F0332716F427FDF5
:100B30003FEF442716F437FD4FEF552716F447FDD6
:100B40005FEF09D06F917F918F919F912F913F918E
:100B50004F915F917DCFCF92BF92AF929F928F9234
:100B6000BB18AA249924882486F4E89455236AF4AF
:100B70006894772309F070515095409530952095F1
:100B80000FEF201B300B400B500B882351F0559575
:100B9000479537952795B794A794979487948A9506
:100BA000B1F77F9372957F700EE20F9345D00C2DB5
:100BB00030D00F930027201730074007500729F047
:100BC0007723A1F37A9591F707C0772329F07A95D7
:100BD00019F000E257DFF9CF16F40DE253DF0F9161
:100BE0000E3211F04FDFFBCF7F917F70772359F0EA
:100BF00049DF282D392D4A2D5B2D11D00C2D09D020
:100C000041DF7A95D1F78F909F90AF90BF90CF90B2
:100C100008950A3010F4005D0895095A0895CC240F
:100C200000E2889420FDC60EC794579547953795E6
:100C300027950A95B1F70895CC2400E2221F331FAF
:100C4000441F551FCC1CC61A08F4C60E0A95B1F7EE
:100C5000221F331F441F551F5095409530952095F6
:100C60000895762F66273327222371F0022F12D0A2
:100C700000000A95E1F71A9B02C01A9801C01A9A5F
:100C8000621B730B98F7089521E004D0621B730B6D
:100C9000E0F7089500C000C000D000D00000089523
:100CA0000A9500000000000000000000C9F7089548
:100CB000C598BD980895BD9A00EFF2DFBD9803E294
:100CC000EFDF06B305FB0DECEBDF0895BD9A0CE1F9
:100CD000E7DFBD9802E0E4DF06B305FB01E0E0DFFB
:100CE0000895BD9A01E0DCDFBD980EE1D9DF06B3BF
:100CF00005FB01E0D5DF0895BD9A01E0D1DFBD9885
:100D000007E0CEDF06B305FB07E1CADF08953F9396
:100D100038E0279510F4E5DF01C0D8DF3A95C9F730
:100D20003F9108953F9338E02795E6DF27F93A95FC
:100D3000D9F73F91089509E148E0279508F4302755
:100D400030FB379537F94A95C1F70895B1DF00E0D8
:100D500002BF01E007BF08E000BF07E003BF7894CF
:100D600001E0B02E00C0A7DF2CEC0E94870624E42F
:100D70000E9487060EEE302E03E00F933F9200E3B1
:100D8000302E06E03A94F1F73A940A95D9F73F905D
:100D90000F913A9491F70A9581F78FDA8CDF2CEC5A
:100DA0000E9487062EEB0E948706BCDF822EBADFE8
:100DB000722F682D0E945B0120E40E947D010FE4E8
:100DC000402E01E0502E0E94220574656D70313D69
:100DD0008B16044243200D0000E0B01621F0C62E11
:100DE000D72E00E0B02E20E00E947D010FE4402EBF
:100DF00001E0502E0E94220574656D70303D8B0C11
:100E0000044243200D0083B680FC0C94B306089581
:100E10000FEF0DBF00E10EBF64DA0FEF07BB00E07C
:100E200001BB129A0C9414070E945B010E9471018D
:100E3000E0E3F3E00E941A05E2E4F3E020E40E941C
:100E40007D010E941A052CE46BE40E9431060CE33C
:100E5000302E01E00F933F9200E3302E06E03A94EB
:100E6000F1F73A940A95D9F73F900F913A9491F798
:100E70000A9581F72CE46BE40E94310606E9302ED6
:100E800001E00F933F9200E3302E06E03A94F1F731
:100E90003A940A95D9F73F900F913A9491F70A95B1
:100EA00081F72CE46AE50E94310600E5302E01E06E
:100EB0000F933F9200E3302E06E03A94F1F73A9414
:100EC0000A95D9F73F900F913A9491F70A9581F7D7
:100ED00020E666E40E94310602E3302E01E00F9323
:100EE0003F9200E3302E06E03A94F1F73A940A95E7
:100EF000D9F73F900F913A9491F70A9581F72CE436
:100F00006BE40E94310608E7302E01E00F933F9218
:100F100000E3302E06E03A94F1F73A940A95D9F7B7
:100F20003F900F913A9491F70A9581F720E46AE592
:100F30000E9431060EE5302E02E00F933F9200E34F
:100F4000302E06E03A94F1F73A940A95D9F73F909B
:100F50000F913A9491F70A9581F720E86BE40E948B
:100F6000310608EC302E01E00F933F9200E3302E63
:100F700006E03A94F1F73A940A95D9F73F900F9129
:100F80003A9491F70A9581F720E66BE40E943106C6
:100F900008EC302E01E00F933F9200E3302E06E084
:100FA0003A94F1F73A940A95D9F73F900F913A9411
:100FB00091F70A9581F720E86BE40E94310604E678
:100FC000302E01E00F933F9200E3302E06E03A947A
:100FD000F1F73A940A95D9F73F900F913A9491F727
:100FE0000A9581F729E96BE40E94310604E6302E68
:100FF00001E00F933F9200E3302E06E03A94F1F7C0
:101000003A940A95D9F73F900F913A9491F70A953F
:1010100081F722E76BE40E9431060CE3302E01E0F9
:101020000F933F9200E3302E06E03A94F1F73A94A2
:101030000A95D9F73F900F913A9491F70A9581F765
:1010400026E66BE40E9431060CE3302E01E00F939C
:101050003F9200E3302E06E03A94F1F73A940A9575
:10106000D9F73F900F913A9491F70A9581F722E7CB
:101070006BE40E9431060CE3302E01E00F933F92A7
:1010800000E3302E06E03A94F1F73A940A95D9F746
:101090003F900F913A9491F70A9581F720E86BE41D
:1010A0000E94310602E3302E01E00F933F9200E3ED
:1010B000302E06E03A94F1F73A940A95D9F73F902A
:1010C0000F913A9491F70A9581F720E66BE40E941C
:1010D000310602E3302E01E00F933F9200E3302E01
:1010E00006E03A94F1F73A940A95D9F73F900F91B8
:1010F0003A9491F70A9581F72CE46BE40E9431064B
:1011000002E3302E01E00F933F9200E3302E06E021
:101110003A94F1F73A940A95D9F73F900F913A949F
:1011200091F70A9581F720E46BE40E94310604E10F
:10113000302E01E00F933F9200E3302E06E03A9408
:10114000F1F73A940A95D9F73F900F913A9491F7B5
:101150000A9581F729E36BE40E94310600E5302E01
:1011600001E00F933F9200E3302E06E03A94F1F74E
:101170003A940A95D9F73F900F913A9491F70A95CE
:1011800081F728E46BE40E94310602E3302E01E08F
:101190000F933F9200E3302E06E03A94F1F73A9431
:1011A0000A95D9F73F900F913A9491F70A9581F7F4
:1011B00020E46BE40E9431060EE1302E01E00F9333
:1011C0003F9200E3302E06E03A94F1F73A940A9504
:1011D000D9F73F900F913A9491F70A9581F72CE453
:1011E0006BE40E94310606E9302E01E00F933F9236
:1011F00000E3302E06E03A94F1F73A940A95D9F7D5
:101200003F900F913A9491F70A9581F725E56BE4A9
:101210000E9431060CE2302E02E00F933F9200E371
:10122000302E06E03A94F1F73A940A95D9F73F90B8
:101230000F913A9491F70A9581F720E46BE40E94AC
:10124000310604E0302E01E00F933F9200E3302E90
:1012500006E03A94F1F73A940A95D9F73F900F9146
:101260003A9491F70A9581F724E46BE40E943106E1
:1012700004E0302E01E00F933F9200E3302E06E0B1
:101280003A94F1F73A940A95D9F73F900F913A942E
:1012900091F70A9581F728E46BE40E94310604E097
:1012A000302E01E00F933F9200E3302E06E03A9497
:1012B000F1F73A940A95D9F73F900F913A9491F744
:1012C0000A9581F72CE46BE40E94310606E9302E82
:1012D00001E00F933F9200E3302E06E03A94F1F7DD
:1012E0003A940A95D9F73F900F913A9491F70A955D
:1012F00081F722E760E50E9431060CE3302E01E021
:101300000F933F9200E3302E06E03A94F1F73A94BF
:101310000A95D9F73F900F913A9491F70A9581F782
:1013200020E66BE40E9431060CE3302E01E00F93BF
:101330003F9200E3302E06E03A94F1F73A940A9592
:10134000D9F73F900F913A9491F70A9581F725E5E7
:101350006BE40E94310606E9302E01E00F933F92C4
:1013600000E3302E06E03A94F1F73A940A95D9F763
:101370003F900F913A9491F70A9581F721E56AE53C
:101380000E94310606E9302E01E00F933F9200E300
:10139000302E06E03A94F1F73A940A95D9F73F9047
:1013A0000F913A9491F70A9581F725E56AE50E9435
:1013B000310606E9302E01E00F933F9200E3302E14
:1013C00006E03A94F1F73A940A95D9F73F900F91D5
:1013D0003A9491F70A9581F720E66AE50E94310672
:1013E00004E6302E01E00F933F9200E3302E06E03A
:1013F0003A94F1F73A940A95D9F73F900F913A94BD
:1014000091F70A9581F720E36BE40E94310600E52D
:10141000302E01E00F933F9200E3302E06E03A9425
:10142000F1F73A940A95D9F73F900F913A9491F7D2
:101430000A9581F720E36BE40E94310602E3302E27
:1014400001E00F933F9200E3302E06E03A94F1F76B
:101450003A940A95D9F73F900F913A9491F70A95EB
:1014600081F720E36BE40E94310602E3302E01E0B5
:101470000F933F9200E3302E06E03A94F1F73A944E
:101480000A95D9F73F900F913A9491F70A9581F711
:1014900011D061FD0E94730A60FD0E94690E60FD1B
:1014A0000E949E0E61FD0E94821962FD0E94291E0B
:1014B0000C94480A0E947101E4E5F3E00E941A05C9
:1014C000E2E6F3E020E40E947D010E941A050E94FA
:1014D00013010E94EB25622F613811F0623809F484
:1014E00008950C94480A0E947101E0EEF4E00E9415
:1014F0001A0500E0902E20E40E947D010FE4402EAA
:1015000001E0502E0E9422052020202020202A2A9F
:101510002A2A20202020202000000E9413010E945F
:10152000EB25E894ECE1F4E0C895201509F4689403
:101530000EF4939420E40E947D010FE4402E01E01C
:10154000502E0E94220520202020202085160000F9
:1015500027E40E947D010E9413010E94EB25E8947C
:10156000E2E4F4E0C895201509F468940EF493942D
:101570000FE4402E01E0502E0E9422058516000047
:1015800028E40E947D010E9413010E94EB25E8944B
:10159000E8E6F4E0C895201509F468940EF49394F5
:1015A0000FE4402E01E0502E0E9422058516000017
:1015B00029E40E947D010E9413010E94EB25E8941A
:1015C000EAE6F4E0C895201509F468940EF49394C3
:1015D0000FE4402E01E0502E0E94220585160000E7
:1015E00008EE302E04E00F933F9200E3302E06E029
:1015F0003A94F1F73A940A95D9F73F900F913A94BB
:1016000091F70A9581F704E09016F9F00E947101B4
:10161000E2E0F5E00E941A05E4E1F5E020E40E9432
:101620007D010E941A0522EA6AEF0E9431062BEA28
:101630006AEF0E94310626EB6AEF0E94310621EC28
:101640006FEF0E9431060C94480A0E947101E0EF8E
:10165000F4E00E941A0528E461E40E94310604E0E7
:10166000302E01E00F933F9200E3302E06E03A94D3
:10167000F1F73A940A95D9F73F900F913A9491F780
:101680000A9581F728E461E40E94310604E0302ED7
:1016900001E00F933F9200E3302E06E03A94F1F719
:1016A0003A940A95D9F73F900F913A9491F70A9599
:1016B00081F728E461E40E94310604E0302E01E065
:1016C0000F933F9200E3302E06E03A94F1F73A94FC
:1016D0000A95D9F73F900F913A9491F70A9581F7BF
:1016E00026E368EC0E94310602E3302E01E00F93FE
:1016F0003F9200E3302E06E03A94F1F73A940A95CF
:10170000D9F73F900F913A9491F70A9581F72AE221
:1017100066E90E94310602E3302E01E00F933F920A
:1017200000E3302E06E03A94F1F73A940A95D9F79F
:101730003F900F913A9491F70A9581F728E461E47C
:101740000E94310604E0302E01E00F933F9200E347
:10175000302E06E03A94F1F73A940A95D9F73F9083
:101760000F913A9491F70A9581F728E461E40E9479
:10177000310604E0302E01E00F933F9200E3302E5B
:1017800006E03A94F1F73A940A95D9F73F900F9111
:101790003A9491F70A9581F728E461E40E943106B2
:1017A00004E0302E01E00F933F9200E3302E06E07C
:1017B0003A94F1F73A940A95D9F73F900F913A94F9
:1017C00091F70A9581F726E368EC0E94310602E35F
:1017D000302E01E00F933F9200E3302E06E03A9462
:1017E000F1F73A940A95D9F73F900F913A9491F70F
:1017F0000A9581F72AE266E90E94310602E3302E5B
:1018000001E00F933F9200E3302E06E03A94F1F7A7
:101810003A940A95D9F73F900F913A9491F70A9527
:1018200081F726E361E40E94310604E0302E01E0F6
:101830000F933F9200E3302E06E03A94F1F73A948A
:101840000A95D9F73F900F913A9491F70A9581F74D
:1018500026E361E40E94310604E0302E01E00F939C
:101860003F9200E3302E06E03A94F1F73A940A955D
:10187000D9F73F900F913A9491F70A9581F729E3B0
:1018800061E40E94310604E0302E01E00F933F92A4
:1018900000E3302E06E03A94F1F73A940A95D9F72E
:1018A0003F900F913A9491F70A9581F729E361E40B
:1018B0000E94310604E0302E01E00F933F9200E3D6
:1018C000302E06E03A94F1F73A940A95D9F73F9012
:1018D0000F913A9491F70A9581F720E461E40E9410
:1018E000310604E0302E01E00F933F9200E3302EEA
:1018F00006E03A94F1F73A940A95D9F73F900F91A0
:101900003A9491F70A9581F720E461E40E94310648
:1019100004E0302E01E00F933F9200E3302E06E00A
:101920003A94F1F73A940A95D9F73F900F913A9487
:1019300091F70A9581F728E466E90E94310602E3EF
:10194000302E01E00F933F9200E3302E06E03A94F0
:10195000F1F73A940A95D9F73F900F913A9491F79D
:101960000A9581F728E461E40E94310604E0302EF4
:1019700001E00F933F9200E3302E06E03A94F1F736
:101980003A940A95D9F73F900F913A9491F70A95B6
:1019900081F728E461E40E94310604E0302E01E082
:1019A0000F933F9200E3302E06E03A94F1F73A9419
:1019B0000A95D9F73F900F913A9491F70A9581F7DC
:1019C00028E461E40E94310604E0302E01E00F9328
:1019D0003F9200E3302E06E03A94F1F73A940A95EC
:1019E000D9F73F900F913A9491F70A9581F729E33F
:1019F00068EC0E94310602E3302E01E00F933F9223
:101A000000E3302E06E03A94F1F73A940A95D9F7BC
:101A10003F900F913A9491F70A9581F720E366E998
:101A20000E94310602E3302E01E00F933F9200E363
:101A3000302E06E03A94F1F73A940A95D9F73F90A0
:101A40000F913A9491F70A9581F728E461E40E9496
:101A5000310604E0302E01E00F933F9200E3302E78
:101A600006E03A94F1F73A940A95D9F73F900F912E
:101A70003A9491F70A9581F728E461E40E943106CF
:101A800004E0302E01E00F933F9200E3302E06E099
:101A90003A94F1F73A940A95D9F73F900F913A9416
:101AA00091F70A9581F728E461E40E94310604E089
:101AB000302E01E00F933F9200E3302E06E03A947F
:101AC000F1F73A940A95D9F73F900F913A9491F72C
:101AD0000A9581F729E368EC0E94310602E3302E73
:101AE00001E00F933F9200E3302E06E03A94F1F7C5
:101AF0003A940A95D9F73F900F913A9491F70A9545
:101B000081F720E366E90E94310602E3302E01E00E
:101B10000F933F9200E3302E06E03A94F1F73A94A7
:101B20000A95D9F73F900F913A9491F70A9581F76A
:101B300024E261E40E94310604E0302E01E00F93BC
:101B40003F9200E3302E06E03A94F1F73A940A957A
:101B5000D9F73F900F913A9491F70A9581F724E2D3
:101B600061E40E94310604E0302E01E00F933F92C1
:101B700000E3302E06E03A94F1F73A940A95D9F74B
:101B80003F900F913A9491F70A9581F728E261E42A
:101B90000E94310604E0302E01E00F933F9200E3F3
:101BA000302E06E03A94F1F73A940A95D9F73F902F
:101BB0000F913A9491F70A9581F728E261E40E9427
:101BC000310604E0302E01E00F933F9200E3302E07
:101BD00006E03A94F1F73A940A95D9F73F900F91BD
:101BE0003A9491F70A9581F72AE261E40E9431065E
:101BF00004E0302E01E00F933F9200E3302E06E028
:101C00003A94F1F73A940A95D9F73F900F913A94A4
:101C100091F70A9581F72AE261E40E94310604E017
:101C2000302E01E00F933F9200E3302E06E03A940D
:101C3000F1F73A940A95D9F73F900F913A9491F7BA
:101C40000A9581F720E361E40E94310604E0302E1A
:101C500001E00F933F9200E3302E06E03A94F1F753
:101C60003A940A95D9F73F900F913A9491F70A95D3
:101C700081F720E361E40E94310604E0302E01E0A8
:101C80000F933F9200E3302E06E03A94F1F73A9436
:101C90000A95D9F73F900F913A9491F70A9581F7F9
:101CA00026E366E90E94310602E3302E01E00F933D
:101CB0003F9200E3302E06E03A94F1F73A940A9509
:101CC000D9F73F900F913A9491F70A9581F70C94C8
:101CD000A9250E947101E2EBF4E00E941A05E2ECF2
:101CE000F4E020E40E947D010E941A050E94130185
:101CF0000E94EB25622F613809F40895623809F4D7
:101D00000895643809F40895683419F70E94710140
:101D1000E0EDF4E00E941A050E9413010E94EB25F9
:101D2000622F613809F40895623809F4089564381F
:101D300009F40895683451F70C94690E0E947101FA
:101D4000E0E7F3E00E941A05E2E8F3E020E40E94F5
:101D50007D010E941A0500ED302E08E00F933F929E
:101D600000E3302E06E03A94F1F73A940A95D9F759
:101D70003F900F913A9491F70A9581F70E94710173
:101D8000E8ECF3E00E941A05E8EDF3E020E40E949D
:101D90007D010E941A0500ED302E08E00F933F925E
:101DA00000E3302E06E03A94F1F73A940A95D9F719
:101DB0003F900F913A9491F70A9581F700E0902EA9
:101DC0000E947101E0E7F5E00E941A05EEE7F5E0F8
:101DD00020E40E947D010E941A050E9413010E94C6
:101DE000EB25622F207809F00C942A0F683441F714
:101DF0000E947101E0E9F5E00E941A05E2EAF5E0CF
:101E000020E40E947D010E941A050E9413010E9495
:101E1000EB25622F207809F00C942A0F683441F7E3
:101E20000E947101E4EBF5E00E941A05E2ECF5E096
:101E300020E40E947D010E941A050E9413010E9465
:101E4000EB25622F207809F00C942A0F683441F7B3
:101E50000C94E00EE894E0EDF5E0C895601509F407
:101E600068940EF493940E945B010EF00C94620F40
:101E70000E947101E6EBF3E00E941A0504EF302E98
:101E800002E00F933F9200E3302E06E03A94F1F720
:101E90003A940A95D9F73F900F913A9491F70A95A1
:101EA00081F72DE26BE40E94310629E36BE40E9486
:101EB00031062DE26BE40E94310629E30E943106CF
:101EC0000C94820F0E947101E0ECF3E00E941A056D
:101ED00004EF302E02E00F933F9200E3302E06E035
:101EE0003A94F1F73A940A95D9F73F900F913A94C2
:101EF00091F70A9581F721EC6EE10E94310621EC01
:101F00000E943106551B442733272227292D0FE431
:101F1000402E01E0502E0E94220553636F72653AF5
:101F2000C012000000ED302E08E00F933F9200E356
:101F3000302E06E03A94F1F73A940A95D9F73F909B
:101F40000F913A9491F70A9581F70E947101E2EDA1
:101F5000F5E00E941A05ECEDF5E020E40E947D0119
:101F60000E941A050E9413010E94EB25622F20781F
:101F700009F00C94EF0F683441F70E947101E6EE0E
:101F8000F5E00E941A05E6EFF5E020E40E947D01ED
:101F90000E941A050E9413010E94EB25622F2078EF
:101FA00009F00C94EF0F683441F70E947101E4E0EE
:101FB000F6E00E941A05E6E1F6E020E40E947D01C9
:101FC0000E941A050E9413010E94EB25622F2078BF
:101FD00009F00C94EF0F683441F70C94A50FE894C6
:101FE000E6E2F6E0C895601509F468940EF493945F
:101FF0000E945B010EF00C9427100E947101E6EB29
:10200000F3E00E941A0504EF302E02E00F933F9296
:1020100000E3302E06E03A94F1F73A940A95D9F7A6
:102020003F900F913A9491F70A9581F72DE26BE476
:102030000E94310629E36BE40E9431062DE26BE435
:102040000E94310629E30E9431060C9447100E9439
:102050007101E0ECF3E00E941A0504EF302E02E07B
:102060000F933F9200E3302E06E03A94F1F73A9452
:102070000A95D9F73F900F913A9491F70A9581F715
:1020800021EC6EE10E94310621EC0E943106551BC5
:10209000442733272227292D0FE4402E01E0502E1C
:1020A0000E94220553636F72653AC012000000ED72
:1020B000302E08E00F933F9200E3302E06E03A9472
:1020C000F1F73A940A95D9F73F900F913A9491F726
:1020D0000A9581F70E947101E8E2F6E00E941A0574
:1020E000EAE3F6E020E40E947D010E941A050E94C6
:1020F00013010E94EB25622F207809F00C94B41094
:10210000683441F70E947101E6E4F6E00E941A0586
:10211000E8E5F6E020E40E947D010E941A050E9495
:1021200013010E94EB25622F207809F00C94B41063
:10213000683441F70E947101E8E6F6E00E941A0552
:10214000E4E7F6E020E40E947D010E941A050E9467
:1021500013010E94EB25622F207809F00C94B41033
:10216000683441F70C946A10E894E2E8F6E0C89508
:10217000601509F468940EF493940E945B010EF0CC
:102180000C94EC100E947101E6EBF3E00E941A053A
:1021900004EF302E02E00F933F9200E3302E06E072
:1021A0003A94F1F73A940A95D9F73F900F913A94FF
:1021B00091F70A9581F72DE26BE40E94310629E33D
:1021C0006BE40E9431062DE26BE40E94310629E3A4
:1021D0000E9431060C940C110E947101E0ECF3E0B6
:1021E0000E941A0504EF302E02E00F933F9200E3A5
:1021F000302E06E03A94F1F73A940A95D9F73F90D9
:102200000F913A9491F70A9581F721EC6EE10E94C3
:10221000310621EC0E943106551B44273327222723
:10222000292D0FE4402E01E0502E0E942205536319
:102230006F72653AC012000000ED302E08E00F9377
:102240003F9200E3302E06E03A94F1F73A940A9573
:10225000D9F73F900F913A9491F70A9581F70E9430
:102260007101E4E8F6E00E941A05E4E9F6E020E4F2
:102270000E947D010E941A050E9413010E94EB2515
:10228000622F207809F00C947911683441F70E948C
:102290007101E2EAF6E00E941A05E4EBF6E020E4C0
:1022A0000E947D010E941A050E9413010E94EB25E5
:1022B000622F207809F00C947911683441F70E945C
:1022C0007101E2ECF6E00E941A05EEECF6E020E483
:1022D0000E947D010E941A050E9413010E94EB25B5
:1022E000622F207809F00C947911683441F70C942E
:1022F0002F11E894ECEDF6E0C895601509F46894A8
:102300000EF493940E945B010EF00C94B1110E94A4
:102310007101E6EBF3E00E941A0504EF302E02E0B3
:102320000F933F9200E3302E06E03A94F1F73A948F
:102330000A95D9F73F900F913A9491F70A9581F752
:102340002DE26BE40E94310629E36BE40E94310622
:102350002DE26BE40E94310629E30E9431060C94C1
:10236000D1110E947101E0ECF3E00E941A0504EF24
:10237000302E02E00F933F9200E3302E06E03A94B5
:10238000F1F73A940A95D9F73F900F913A9491F763
:102390000A9581F721EC6EE10E94310621EC0E9442
:1023A0003106551B442733272227292D0FE4402EC1
:1023B00001E0502E0E94220553636F72653AC012ED
:1023C000000000ED302E08E00F933F9200E3302E26
:1023D00006E03A94F1F73A940A95D9F73F900F91B5
:1023E0003A9491F70A9581F70E947101EEEDF6E0BB
:1023F0000E941A05EAEEF6E020E40E947D010E94A8
:102400001A050E9413010E94EB25622F207809F023
:102410000C943E12683441F70E947101E4EFF6E03B
:102420000E941A05E6E0F7E020E40E947D010E9488
:102430001A050E9413010E94EB25622F207809F0F3
:102440000C943E12683441F70E947101E4E1F7E018
:102450000E941A05EEE1F7E020E40E947D010E944F
:102460001A050E9413010E94EB25622F207809F0C3
:102470000C943E12683441F70C94F411E894E6E2AF
:10248000F7E0C895601509F468940EF493940E94DF
:102490005B010EF00C9476120E947101E6EBF3E002
:1024A0000E941A0504EF302E02E00F933F9200E3E2
:1024B000302E06E03A94F1F73A940A95D9F73F9016
:1024C0000F913A9491F70A9581F72DE26BE40E94FF
:1024D000310629E36BE40E9431062DE26BE40E9491
:1024E000310629E30E9431060C9496120E94710174
:1024F000E0ECF3E00E941A0504EF302E02E00F93A7
:102500003F9200E3302E06E03A94F1F73A940A95B0
:10251000D9F73F900F913A9491F70A9581F721EC02
:102520006EE10E94310621EC0E943106551B4427C2
:1025300033272227292D0FE4402E01E0502E0E9440
:10254000220553636F72653AC012000000ED302E11
:1025500008E00F933F9200E3302E06E03A94F1F743
:102560003A940A95D9F73F900F913A9491F70A95CA
:1025700081F70E947101E8E2F7E00E941A05EAE3A0
:10258000F7E020E40E947D010E941A050E941301D9
:102590000E94EB25622F207809F00C940313683415
:1025A00041F70E947101EAE4F7E00E941A05ECE5A8
:1025B000F7E020E40E947D010E941A050E941301A9
:1025C0000E94EB25622F207809F00C9403136834E5
:1025D00041F70E947101ECE6F7E00E941A05EAE774
:1025E000F7E020E40E947D010E941A050E94130179
:1025F0000E94EB25622F207809F00C9403136834B5
:1026000041F70C94B912E894E4E8F7E0C895601536
:1026100009F468940EF493940E945B010EF00C94FC
:102620003B130E947101E6EBF3E00E941A0504EFF0
:10263000302E02E00F933F9200E3302E06E03A94F2
:10264000F1F73A940A95D9F73F900F913A9491F7A0
:102650000A9581F72DE26BE40E94310629E36BE4D1
:102660000E9431062DE26BE40E94310629E30E94AC
:1026700031060C945B130E947101E0ECF3E00E94C0
:102680001A0504EF302E02E00F933F9200E3302E44
:1026900006E03A94F1F73A940A95D9F73F900F91F2
:1026A0003A9491F70A9581F721EC6EE10E94310688
:1026B00021EC0E943106551B442733272227292D60
:1026C0000FE4402E01E0502E0E94220553636F72EA
:1026D000653AC012000000ED302E08E00F933F92E3
:1026E00000E3302E06E03A94F1F73A940A95D9F7D0
:1026F0003F900F913A9491F70A9581F70E947101EA
:10270000E6E8F7E00E941A05E4E9F7E020E40E9419
:102710007D010E941A050E9413010E94EB25622F81
:10272000207809F00C94C813683441F70E947101B5
:10273000E0EAF7E00E941A05E2EBF7E020E40E94ED
:102740007D010E941A050E9413010E94EB25622F51
:10275000207809F00C94C813683441F70E94710185
:10276000EEEBF7E00E941A05E8ECF7E020E40E94A7
:102770007D010E941A050E9413010E94EB25622F21
:10278000207809F00C94C813683441F70C947E1338
:10279000E894E2EDF7E0C895601509F468940EF44A
:1027A00093940E945B010EF00C9400140E9471013E
:1027B000E6EBF3E00E941A0504EF302E02E00F93DF
:1027C0003F9200E3302E06E03A94F1F73A940A95EE
:1027D000D9F73F900F913A9491F70A9581F72DE23E
:1027E0006BE40E94310629E36BE40E9431062DE27E
:1027F0006BE40E94310629E30E9431060C942014F8
:102800000E947101E0ECF3E00E941A0504EF302E03
:1028100002E00F933F9200E3302E06E03A94F1F786
:102820003A940A95D9F73F900F913A9491F70A9507
:1028300081F721EC6EE10E94310621EC0E94310605
:10284000551B442733272227292D0FE4402E01E072
:10285000502E0E94220553636F72653AC012000029
:1028600000ED302E08E00F933F9200E3302E06E09B
:102870003A94F1F73A940A95D9F73F900F913A9428
:1028800091F70A9581F70E947101E4EDF7E00E944B
:102890001A05E6EEF7E020E40E947D010E941A0589
:1028A0000E9413010E94EB25622F207809F00C94FE
:1028B0008D14683441F70E947101E4EFF7E00E9443
:1028C0001A05ECEFF7E020E40E947D010E941A0552
:1028D0000E9413010E94EB25622F207809F00C94CE
:1028E0008D14683441F70E947101EAE0F8E00E941B
:1028F0001A05E4E1F8E020E40E947D010E941A0537
:102900000E9413010E94EB25622F207809F00C949D
:102910008D14683441F70C944314E894E6E2F8E02F
:10292000C895601509F468940EF493940E945B01B5
:102930000EF00C94C5140E947101E6EBF3E00E94C6
:102940001A0504EF302E02E00F933F9200E3302E81
:1029500006E03A94F1F73A940A95D9F73F900F912F
:102960003A9491F70A9581F72DE26BE40E943106C3
:1029700029E36BE40E9431062DE26BE40E943106EC
:1029800029E30E9431060C94E5140E947101E0ECE9
:10299000F3E00E941A0504EF302E02E00F933F92FD
:1029A00000E3302E06E03A94F1F73A940A95D9F70D
:1029B0003F900F913A9491F70A9581F721EC6EE1DF
:1029C0000E94310621EC0E943106551B4427332713
:1029D0002227292D0FE4402E01E0502E0E942205CF
:1029E00053636F72653AC012000000ED302E08E0AC
:1029F0000F933F9200E3302E06E03A94F1F73A94B9
:102A00000A95D9F73F900F913A9491F70A9581F77B
:102A10000E947101E8E2F8E00E941A05E8E3F8E09C
:102A200020E40E947D010E941A050E9413010E9469
:102A3000EB25622F207809F00C945215683441F789
:102A40000E947101EAE4F8E00E941A05ECE5F8E062
:102A500020E40E947D010E941A050E9413010E9439
:102A6000EB25622F207809F00C945215683441F759
:102A70000E947101EAE6F8E00E941A05E2E7F8E038
:102A800020E40E947D010E941A050E9413010E9409
:102A9000EB25622F207809F00C945215683441F729
:102AA0000C940815E894E4E8F8E0C895601509F47A
:102AB00068940EF493940E945B010EF00C948A15B6
:102AC0000E947101E6EBF3E00E941A0504EF302E3C
:102AD00002E00F933F9200E3302E06E03A94F1F7C4
:102AE0003A940A95D9F73F900F913A9491F70A9545
:102AF00081F72DE26BE40E94310629E36BE40E942A
:102B000031062DE26BE40E94310629E30E94310672
:102B10000C94AA150E947101E0ECF3E00E941A05E2
:102B200004EF302E02E00F933F9200E3302E06E0D8
:102B30003A94F1F73A940A95D9F73F900F913A9465
:102B400091F70A9581F721EC6EE10E94310621ECA4
:102B50000E943106551B442733272227292D0FE4D5
:102B6000402E01E0502E0E94220553636F72653A99
:102B7000C012000000ED302E08E00F933F9200E3FA
:102B8000302E06E03A94F1F73A940A95D9F73F903F
:102B90000F913A9491F70A9581F70E947101E6E846
:102BA000F8E00E941A05E4E9F8E020E40E947D01C3
:102BB0000E941A050E9413010E94EB25622F2078C3
:102BC00009F00C941716683441F70E947101E0EA8D
:102BD000F8E00E941A05EEEAF8E020E40E947D0188
:102BE0000E941A050E9413010E94EB25622F207893
:102BF00009F00C941716683441F70E947101E0EC5B
:102C0000F8E00E941A05EEECF8E020E40E947D0155
:102C10000E941A050E9413010E94EB25622F207862
:102C200009F00C941716683441F70C94CD15E8940C
:102C3000EEEDF8E0C895601509F468940EF49394ED
:102C40000E945B010EF00C944F160E947101E6EB9E
:102C5000F3E00E941A0504EF302E02E00F933F923A
:102C600000E3302E06E03A94F1F73A940A95D9F74A
:102C70003F900F913A9491F70A9581F72DE26BE41A
:102C80000E94310629E36BE40E9431062DE26BE4D9
:102C90000E94310629E30E9431060C946F160E94AF
:102CA0007101E0ECF3E00E941A0504EF302E02E01F
:102CB0000F933F9200E3302E06E03A94F1F73A94F6
:102CC0000A95D9F73F900F913A9491F70A9581F7B9
:102CD00021EC6EE10E94310621EC0E943106551B69
:102CE000442733272227292D0FE4402E01E0502EC0
:102CF0000E94220553636F72653AC012000000ED16
:102D0000302E08E00F933F9200E3302E06E03A9415
:102D1000F1F73A940A95D9F73F900F913A9491F7C9
:102D20000A9581F705E0901610F40C948B180E9418
:102D30007101ECE6F4E00E941A05ECE7F4E020E40F
:102D40000E947D010E941A0520E661E40E9431067E
:102D500004E0302E01E00F933F9200E3302E06E0B6
:102D60003A94F1F73A940A95D9F73F900F913A9433
:102D700091F70A9581F720E861E40E94310604E0AA
:102D8000302E01E00F933F9200E3302E06E03A949C
:102D9000F1F73A940A95D9F73F900F913A9491F749
:102DA0000A9581F720E661E40E94310604E0302EA6
:102DB00001E00F933F9200E3302E06E03A94F1F7E2
:102DC0003A940A95D9F73F900F913A9491F70A9562
:102DD00081F72CE461E40E94310604E0302E01E02A
:102DE0000F933F9200E3302E06E03A94F1F73A94C5
:102DF0000A95D9F73F900F913A9491F70A9581F788
:102E000020E461E40E94310604E0302E01E00F93DB
:102E10003F9200E3302E06E03A94F1F73A940A9597
:102E2000D9F73F900F913A9491F70A9581F720E3F3
:102E300061E40E94310604E0302E01E00F933F92DE
:102E400000E3302E06E03A94F1F73A940A95D9F768
:102E50003F900F913A9491F70A9581F726E26AEA3A
:102E60000E94310620E36AEA0E94310602E3302E16
:102E700001E00F933F9200E3302E06E03A94F1F721
:102E80003A940A95D9F73F900F913A9491F70A95A1
:102E900081F72BE561E40E94310604E0302E01E069
:102EA0000F933F9200E3302E06E03A94F1F73A9404
:102EB0000A95D9F73F900F913A9491F70A9581F7C7
:102EC00029E761E40E94310604E0302E01E00F930F
:102ED0003F9200E3302E06E03A94F1F73A940A95D7
:102EE000D9F73F900F913A9491F70A9581F72BE526
:102EF00061E40E94310604E0302E01E00F933F921E
:102F000000E3302E06E03A94F1F73A940A95D9F7A7
:102F10003F900F913A9491F70A9581F728E461E484
:102F20000E94310604E0302E01E00F933F9200E34F
:102F3000302E06E03A94F1F73A940A95D9F73F908B
:102F40000F913A9491F70A9581F72EE161E40E947E
:102F5000310604E0302E01E00F933F9200E3302E63
:102F600006E03A94F1F73A940A95D9F73F900F9119
:102F70003A9491F70A9581F72DE261E40E943106B7
:102F800004E0302E01E00F933F9200E3302E06E084
:102F90003A94F1F73A940A95D9F73F900F913A9401
:102FA00091F70A9581F724E26AEA0E9431062DE240
:102FB0006AEA0E94310602E3302E01E00F933F924D
:102FC00000E3302E06E03A94F1F73A940A95D9F7E7
:102FD0003F900F913A9491F70A9581F721E561E4CA
:102FE0000E94310604E0302E01E00F933F9200E38F
:102FF000302E06E03A94F1F73A940A95D9F73F90CB
:103000000F913A9491F70A9581F72CE661E40E94BA
:10301000310604E0302E01E00F933F9200E3302EA2
:1030200006E03A94F1F73A940A95D9F73F900F9158
:103030003A9491F70A9581F721E561E40E943106FF
:1030400004E0302E01E00F933F9200E3302E06E0C3
:103050003A94F1F73A940A95D9F73F900F913A9440
:1030600091F70A9581F720E461E40E94310604E0BB
:10307000302E01E00F933F9200E3302E06E03A94A9
:10308000F1F73A940A95D9F73F900F913A9491F756
:103090000A9581F726E361E40E94310604E0302EB0
:1030A00001E00F933F9200E3302E06E03A94F1F7EF
:1030B0003A940A95D9F73F900F913A9491F70A956F
:1030C00081F728E26AEA0E94310624E268EC0E9455
:1030D00031060E947101E8EFF3E00E941A05EAE070
:1030E000F4E020E40E947D010E941A0500EA302EDF
:1030F00000E10F933F9200E3302E06E03A94F1F79F
:103100003A940A95D9F73F900F913A9491F70A951E
:1031100081F70C94480A0E947101EEE8F4E00E94E5
:103120001A05E0EAF4E020E40E947D010E941A05FD
:1031300023E366E40E9431060CE3302E01E00F9396
:103140003F9200E3302E06E03A94F1F73A940A9564
:10315000D9F73F900F913A9491F70A9581F724E2BD
:1031600066E40E9431060AE5302E01E00F933F929B
:1031700000E3302E06E03A94F1F73A940A95D9F735
:103180003F900F913A9491F70A9581F724E266E413
:103190000E9431060AE5302E01E00F933F9200E3D2
:1031A000302E06E03A94F1F73A940A95D9F73F9019
:1031B0000F913A9491F70A9581F724E266E40E9410
:1031C00031060AE5302E01E00F933F9200E3302EE6
:1031D00006E03A94F1F73A940A95D9F73F900F91A7
:1031E0003A9491F70A9581F724E266E40E94310649
:1031F00004E0302E01E00F933F9200E3302E06E012
:103200003A94F1F73A940A95D9F73F900F913A948E
:1032100091F70A9581F726E266E40E94310604E000
:10322000302E01E00F933F9200E3302E06E03A94F7
:10323000F1F73A940A95D9F73F900F913A9491F7A4
:103240000A9581F72AE266E40E94310604E0302EF6
:1032500001E00F933F9200E3302E06E03A94F1F73D
:103260003A940A95D9F73F900F913A9491F70A95BD
:1032700081F720E36CE80E9431060CEB302E03E06E
:103280000F933F9200E3302E06E03A94F1F73A9420
:103290000A95D9F73F900F913A9491F70A9581F7E3
:1032A00020E364E60E94310620E464E60E943106D1
:1032B0002CE464E60E94310626E364E60E943106AF
:1032C00020E364E60E94310626E364E60E943106AC
:1032D0002CE364E60E94310626E364E60E94310690
:1032E0002CE364E60E94310620E460E50E9431068A
:1032F00028E46CE30E94310620E466E90E9431066E
:103300000C94480A0E947101E0E7F3E00E941A055C
:10331000E4E9F3E020E40E947D010E941A0500ED3B
:10332000302E08E00F933F9200E3302E06E03A94EF
:10333000F1F73A940A95D9F73F900F913A9491F7A3
:103340000A9581F70E947101E8EEF3E00E941A05E8
:1033500000ED302E08E00F933F9200E3302E06E0A0
:103360003A94F1F73A940A95D9F73F900F913A942D
:1033700091F70A9581F700E0902E0E947101E0EE2E
:10338000F8E00E941A0500ED302E08E00F933F92FE
:1033900000E3302E06E03A94F1F73A940A95D9F713
:1033A0003F900F913A9491F70A9581F70E94A606F3
:1033B0006C197D0928E030E0621773070AF00C945D
:1033C000E3190C940E1A0E947101E6E1F9E00E94E3
:1033D0001A0504EF302E02E00F933F9200E3302EE7
:1033E00006E03A94F1F73A940A95D9F73F900F9195
:1033F0003A9491F70A9581F72DE26BE40E94310629
:1034000029E36BE40E9431062DE26BE40E94310651
:1034100029E30E94310693940C94301A0E947101A2
:10342000EAE3F9E00E941A0504EF302E02E00F9360
:103430003F9200E3302E06E03A94F1F73A940A9571
:10344000D9F73F900F913A9491F70A9581F721ECC3
:103450006EE10E94310621EC0E9431060C94301A74
:103460000E947101E2EFF8E00E941A0500ED302E93
:1034700008E00F933F9200E3302E06E03A94F1F714
:103480003A940A95D9F73F900F913A9491F70A959B
:1034900081F70E94A6066C197D0928E030E06217CA
:1034A0007307A2F120E130E0621B730B0AF00C9469
:1034B000A81A0E945B010E947101E6E1F9E00E94F6
:1034C0001A0504EF302E02E00F933F9200E3302EF6
:1034D00006E03A94F1F73A940A95D9F73F900F91A4
:1034E0003A9491F70A9581F72DE26BE40E94310638
:1034F00029E36BE40E9431062DE26BE40E94310661
:1035000029E30E94310693940C94CA1A0E94710117
:10351000EAE3F9E00E941A0504EF302E02E00F936F
:103520003F9200E3302E06E03A94F1F73A940A9580
:10353000D9F73F900F913A9491F70A9581F721ECD2
:103540006EE10E94310621EC0E9431060C94CA1AE9
:103550000E947101ECE4F9E00E941A0504EF302E9C
:1035600002E00F933F9200E3302E06E03A94F1F729
:103570003A940A95D9F73F900F913A9491F70A95AA
:1035800081F721EC6EE10E94310621EC0E943106A8
:103590000C94CA1A0E947101E4E0F9E00E941A0535
:1035A00000ED302E08E00F933F9200E3302E06E04E
:1035B0003A94F1F73A940A95D9F73F900F913A94DB
:1035C00091F70A9581F70E94A6066C197D0920E102
:1035D00030E0621773075AF10E947101E6E1F9E0E9
:1035E0000E941A0504EF302E02E00F933F9200E391
:1035F000302E06E03A94F1F73A940A95D9F73F90C5
:103600000F913A9491F70A9581F72DE26BE40E94AD
:10361000310629E36BE40E9431062DE26BE40E943F
:10362000310629E30E94310693940C94391B0E94C1
:103630007101EAE3F9E00E941A0504EF302E02E07E
:103640000F933F9200E3302E06E03A94F1F73A945C
:103650000A95D9F73F900F913A9491F70A9581F71F
:1036600021EC6EE10E94310621EC0E9431060C949F
:10367000391B02E0901610F40C94321D0E94710167
:10368000E6E1F9E00E941A05E8E2F9E020E40E9490
:103690007D010E941A0520E661E40E94310604E0E3
:1036A000302E01E00F933F9200E3302E06E03A9473
:1036B000F1F73A940A95D9F73F900F913A9491F720
:1036C0000A9581F720E861E40E94310604E0302E7B
:1036D00001E00F933F9200E3302E06E03A94F1F7B9
:1036E0003A940A95D9F73F900F913A9491F70A9539
:1036F00081F720E661E40E94310604E0302E01E00B
:103700000F933F9200E3302E06E03A94F1F73A949B
:103710000A95D9F73F900F913A9491F70A9581F75E
:103720002CE461E40E94310604E0302E01E00F93A6
:103730003F9200E3302E06E03A94F1F73A940A956E
:10374000D9F73F900F913A9491F70A9581F720E4C9
:1037500061E40E94310604E0302E01E00F933F92B5
:1037600000E3302E06E03A94F1F73A940A95D9F73F
:103770003F900F913A9491F70A9581F720E361E425
:103780000E94310604E0302E01E00F933F9200E3E7
:10379000302E06E03A94F1F73A940A95D9F73F9023
:1037A0000F913A9491F70A9581F726E26AEA0E940E
:1037B000310620E36AEA0E94310602E3302E01E07E
:1037C0000F933F9200E3302E06E03A94F1F73A94DB
:1037D0000A95D9F73F900F913A9491F70A9581F79E
:1037E0002BE561E40E94310604E0302E01E00F93E6
:1037F0003F9200E3302E06E03A94F1F73A940A95AE
:10380000D9F73F900F913A9491F70A9581F729E7FC
:1038100061E40E94310604E0302E01E00F933F92F4
:1038200000E3302E06E03A94F1F73A940A95D9F77E
:103830003F900F913A9491F70A9581F72BE561E457
:103840000E94310604E0302E01E00F933F9200E326
:10385000302E06E03A94F1F73A940A95D9F73F9062
:103860000F913A9491F70A9581F728E461E40E9458
:10387000310604E0302E01E00F933F9200E3302E3A
:1038800006E03A94F1F73A940A95D9F73F900F91F0
:103890003A9491F70A9581F72EE161E40E9431068E
:1038A00004E0302E01E00F933F9200E3302E06E05B
:1038B0003A94F1F73A940A95D9F73F900F913A94D8
:1038C00091F70A9581F72DE261E40E94310604E048
:1038D000302E01E00F933F9200E3302E06E03A9441
:1038E000F1F73A940A95D9F73F900F913A9491F7EE
:1038F0000A9581F724E26AEA0E9431062DE26AEA1B
:103900000E94310602E3302E01E00F933F9200E364
:10391000302E06E03A94F1F73A940A95D9F73F90A1
:103920000F913A9491F70A9581F721E561E40E949D
:10393000310604E0302E01E00F933F9200E3302E79
:1039400006E03A94F1F73A940A95D9F73F900F912F
:103950003A9491F70A9581F72CE661E40E943106CA
:1039600004E0302E01E00F933F9200E3302E06E09A
:103970003A94F1F73A940A95D9F73F900F913A9417
:1039800091F70A9581F721E561E40E94310604E090
:10399000302E01E00F933F9200E3302E06E03A9480
:1039A000F1F73A940A95D9F73F900F913A9491F72D
:1039B0000A9581F720E461E40E94310604E0302E8C
:1039C00001E00F933F9200E3302E06E03A94F1F7C6
:1039D0003A940A95D9F73F900F913A9491F70A9546
:1039E00081F726E361E40E94310604E0302E01E015
:1039F0000F933F9200E3302E06E03A94F1F73A94A9
:103A00000A95D9F73F900F913A9491F70A9581F76B
:103A100028E26AEA0E94310624E268EC0E9431063C
:103A20000E947101EEE1F4E00E941A05E0E3F4E087
:103A300020E40E947D010E941A0500EA302E00E178
:103A40000F933F9200E3302E06E03A94F1F73A9458
:103A50000A95D9F73F900F913A9491F70A9581F71B
:103A60000C94480A0E947101EEE8F4E00E941A05E5
:103A7000E0EAF4E020E40E947D010E941A0523E3BD
:103A800066E40E9431060CE3302E01E00F933F9272
:103A900000E3302E06E03A94F1F73A940A95D9F70C
:103AA0003F900F913A9491F70A9581F724E266E4EA
:103AB0000E9431060AE5302E01E00F933F9200E3A9
:103AC000302E06E03A94F1F73A940A95D9F73F90F0
:103AD0000F913A9491F70A9581F724E266E40E94E7
:103AE00031060AE5302E01E00F933F9200E3302EBD
:103AF00006E03A94F1F73A940A95D9F73F900F917E
:103B00003A9491F70A9581F724E266E40E9431061F
:103B10000AE5302E01E00F933F9200E3302E06E0DD
:103B20003A94F1F73A940A95D9F73F900F913A9465
:103B300091F70A9581F724E266E40E94310604E0D9
:103B4000302E01E00F933F9200E3302E06E03A94CE
:103B5000F1F73A940A95D9F73F900F913A9491F77B
:103B60000A9581F726E266E40E94310604E0302ED1
:103B700001E00F933F9200E3302E06E03A94F1F714
:103B80003A940A95D9F73F900F913A9491F70A9594
:103B900081F72AE266E40E94310604E0302E01E05B
:103BA0000F933F9200E3302E06E03A94F1F73A94F7
:103BB0000A95D9F73F900F913A9491F70A9581F7BA
:103BC00020E36CE80E9431060CEB302E03E00F93EB
:103BD0003F9200E3302E06E03A94F1F73A940A95CA
:103BE000D9F73F900F913A9491F70A9581F720E326
:103BF00064E60E94310620E464E60E9431062CE46B
:103C000064E60E94310626E364E60E94310620E362
:103C100064E60E94310626E364E60E9431062CE346
:103C200064E60E94310626E364E60E9431062CE336
:103C300064E60E94310620E460E50E94310628E433
:103C40006CE30E94310620E466E90E9431060C9480
:103C5000480A0E947101E0E7F3E00E941A05E6EAD3
:103C6000F3E020E40E947D010E941A0500ED302E51
:103C700008E00F933F9200E3302E06E03A94F1F70C
:103C80003A940A95D9F73F900F913A9491F70A9593
:103C900081F70E947101EEE5F9E00E941A05EEE657
:103CA000F9E020E40E947D010E941A0500ED302E0B
:103CB00008E00F933F9200E3302E06E03A94F1F7CC
:103CC0003A940A95D9F73F900F913A9491F70A9553
:103CD00081F70E947101EEE7F9E00E941A05E0E920
:103CE000F9E020E40E947D010E941A0500ED302ECB
:103CF00008E00F933F9200E3302E06E03A94F1F78C
:103D00003A940A95D9F73F900F913A9491F70A9512
:103D100081F70E947101E2EAF9E00E941A05EEEFD4
:103D2000F9E020E40E947D010E941A0500ED302E8A
:103D300008E00F933F9200E3302E06E03A94F1F74B
:103D40003A940A95D9F73F900F913A9491F70A95D2
:103D500081F70E945B010FE4402E01E0502E0E948B
:103D600022052A2A2A2A2A2A2A2A2A2A2A2A2A2AE0
:103D70002A2A000020E40E947D010FE4402E01E089
:103D8000502E0E9422052A2A2A2A2A2A2A2A2A2A48
:103D90002A2A2A2A2A2A000000E0902E00E0A02EDB
:103DA0000E9413010E94EB25E894E4EBF9E0C8952A
:103DB000201509F468940EF4939420E40E947D0188
:103DC0000FE4402E01E0502E0E9422052A2A2A2AC2
:103DD0002A2A85162A2A2A2A2A2A2A2A000027E499
:103DE0000E947D010E9413010E94EB25E894E6EBFE
:103DF000F9E0C895201509F468940EF493940FE443
:103E0000402E01E0502E0E9422058516000028E475
:103E10000E947D010E9413010E94EB25E894E8EBCB
:103E2000F9E0C895201509F468940EF493940FE412
:103E3000402E01E0502E0E9422058516000000ED64
:103E4000302E08E00F933F9200E3302E06E03A94C4
:103E5000F1F73A940A95D9F73F900F913A9491F778
:103E60000A9581F703E0901611F40C946C1F0E94E0
:103E70007101E0ECF3E00E941A0504EF302E02E03D
:103E80000F933F9200E3302E06E03A94F1F73A9414
:103E90000A95D9F73F900F913A9491F70A9581F7D7
:103EA00021EC6EE10E94310621EC0E94310600ED0A
:103EB000302E08E00F933F9200E3302E06E03A9454
:103EC000F1F73A940A95D9F73F900F913A9491F708
:103ED0000A9581F70C94971F0E947101E6EBF3E0BD
:103EE0000E941A0504EF302E02E00F933F9200E388
:103EF000302E06E03A94F1F73A940A95D9F73F90BC
:103F00000F913A9491F70A9581F72DE26BE40E94A4
:103F1000310629E36BE40E9431062DE26BE40E9436
:103F2000310629E30E943106A3940C94971F00E008
:103F3000902E0E947101EEE7F9E00E941A05E0E977
:103F4000F9E020E40E947D010E941A0500ED302E68
:103F500008E00F933F9200E3302E06E03A94F1F729
:103F60003A940A95D9F73F900F913A9491F70A95B0
:103F700081F70E947101EAEBF9E00E941A05EEEF69
:103F8000F9E020E40E947D010E941A0500ED302E28
:103F900008E00F933F9200E3302E06E03A94F1F7E9
:103FA0003A940A95D9F73F900F913A9491F70A9570
:103FB00081F70E945B010FE4402E01E0502E0E9429
:103FC00022052A2A2A2A2A2A2A2A2A2A2A2A2A2A7E
:103FD0002A2A000020E40E947D010FE4402E01E027
:103FE000502E0E9422052A2A2A2A2A2A2A2A2A2AE6
:103FF0002A2A2A2A2A2A00000E9413010E94EB255D
:10400000E894ECECF9E0C895201509F468940EF4F6
:10401000939420E40E947D010FE4402E01E0502E95
:104020000E9422052A2A2A2A2A85162A2A2A2A2A88
:104030002A2A2A2A000026E40E947D010E941301F8
:104040000E94EB25E894EEECF9E0C895201509F400
:1040500068940EF493940FE4402E01E0502E0E94D9
:1040600022058516000027E40E947D010E941301AD
:104070000E94EB25E894E0EDF9E0C895201509F4DD
:1040800068940EF493940FE4402E01E0502E0E94A9
:1040900022058516000028E40E947D010E9413017C
:1040A0000E94EB25E894E2EDF9E0C895201509F4AB
:1040B00068940EF493940FE4402E01E0502E0E9479
:1040C00022058516000029E40E947D010E9413014B
:1040D0000E94EB25E894E4EDF9E0C895201509F479
:1040E00068940EF493940FE4402E01E0502E0E9449
:1040F0002205851600002AE40E947D010E9413011A
:104100000E94EB25E894E6EDF9E0C895201509F446
:1041100068940EF493940FE4402E01E0502E0E9418
:1041200022058516000000ED302E08E00F933F9227
:1041300000E3302E06E03A94F1F73A940A95D9F765
:104140003F900F913A9491F70A9581F706E0901607
:1041500011F40C94CD200E947101E0ECF3E00E9478
:104160001A0504EF302E02E00F933F9200E3302E49
:1041700006E03A94F1F73A940A95D9F73F900F91F7
:104180003A9491F70A9581F721EC6EE10E9431068D
:1041900021EC0E9431060C94F8200E947101E6EB9C
:1041A000F3E00E941A0504EF302E02E00F933F92D5
:1041B00000E3302E06E03A94F1F73A940A95D9F7E5
:1041C0003F900F913A9491F70A9581F72DE26BE4B5
:1041D0000E94310629E36BE40E9431062DE26BE474
:1041E0000E94310629E30E943106A3940C94F82022
:1041F00000E0902E0E947101EEE7F9E00E941A059E
:10420000E0E9F9E020E40E947D010E941A0500ED3A
:10421000302E08E00F933F9200E3302E06E03A94F0
:10422000F1F73A940A95D9F73F900F913A9491F7A4
:104230000A9581F70E947101E8EDF9E00E941A05E4
:10424000EEEFF9E020E40E947D010E941A0500EDE6
:10425000302E08E00F933F9200E3302E06E03A94B0
:10426000F1F73A940A95D9F73F900F913A9491F764
:104270000A9581F70E945B010FE4402E01E0502E69
:104280000E9422052A2A2A2A2A2A2A2A2A2A2A2A6D
:104290002A2A2A2A000020E40E947D010FE4402EF1
:1042A00001E0502E0E9422052A2A2A2A2A2A2A2A96
:1042B0002A2A2A2A2A2A2A2A00000E9413010E9456
:1042C000EB25E894EAEEF9E0C895201509F4689426
:1042D0000EF4939420E40E947D010FE4402E01E04F
:1042E000502E0E9422052A2A2A85162A2A2A2A2A9C
:1042F0002A2A2A2A2A2A2A0024E40E947D010E94CE
:1043000013010E94EB25E894ECEEF9E0C895201526
:1043100009F468940EF493940FE4402E01E0502EBB
:104320000E9422058516000025E40E947D010E945E
:1043300013010E94EB25E894EEEEF9E0C8952015F4
:1043400009F468940EF493940FE4402E01E0502E8B
:104350000E9422058516000026E40E947D010E942D
:1043600013010E94EB25E894E0EFF9E0C8952015D1
:1043700009F468940EF493940FE4402E01E0502E5B
:104380000E9422058516000027E40E947D010E94FC
:1043900013010E94EB25E894E2EFF9E0C89520159F
:1043A00009F468940EF493940FE4402E01E0502E2B
:1043B0000E9422058516000028E40E947D010E94CB
:1043C00013010E94EB25E894E4EFF9E0C89520156D
:1043D00009F468940EF493940FE4402E01E0502EFB
:1043E0000E9422058516000029E40E947D010E949A
:1043F00013010E94EB25E894E6EFF9E0C89520153B
:1044000009F468940EF493940FE4402E01E0502ECA
:104410000E942205851600002AE40E947D010E9468
:1044200013010E94EB25E894E8EFF9E0C895201508
:1044300009F468940EF493940FE4402E01E0502E9A
:104440000E942205851600002BE40E947D010E9437
:1044500013010E94EB25E894EAEFF9E0C8952015D6
:1044600009F468940EF493940FE4402E01E0502E6A
:104470000E942205851600002CE40E947D010E9406
:1044800013010E94EB25E894ECEFF9E0C8952015A4
:1044900009F468940EF493940FE4402E01E0502E3A
:1044A0000E9422058516000000ED302E08E00F93D3
:1044B0003F9200E3302E06E03A94F1F73A940A95E1
:1044C000D9F73F900F913A9491F70A9581F70AE056
:1044D000901611F40C948E220E947101E0ECF3E02E
:1044E0000E941A0504EF302E02E00F933F9200E382
:1044F000302E06E03A94F1F73A940A95D9F73F90B6
:104500000F913A9491F70A9581F721EC6EE10E94A0
:10451000310621EC0E9431060C94B9220E947101EF
:10452000E6EBF3E00E941A0504EF302E02E00F9351
:104530003F9200E3302E06E03A94F1F73A940A9560
:10454000D9F73F900F913A9491F70A9581F72DE2B0
:104550006BE40E94310629E36BE40E9431062DE2F0
:104560006BE40E94310629E30E943106A3940C9467
:10457000B92202E0A01610F40C94B2240E9471013A
:10458000ECE6F4E00E941A05ECE7F4E020E40E9477
:104590007D010E941A0520E661E40E94310604E0D4
:1045A000302E01E00F933F9200E3302E06E03A9464
:1045B000F1F73A940A95D9F73F900F913A9491F711
:1045C0000A9581F720E861E40E94310604E0302E6C
:1045D00001E00F933F9200E3302E06E03A94F1F7AA
:1045E0003A940A95D9F73F900F913A9491F70A952A
:1045F00081F720E661E40E94310604E0302E01E0FC
:104600000F933F9200E3302E06E03A94F1F73A948C
:104610000A95D9F73F900F913A9491F70A9581F74F
:104620002CE461E40E94310604E0302E01E00F9397
:104630003F9200E3302E06E03A94F1F73A940A955F
:10464000D9F73F900F913A9491F70A9581F720E4BA
:1046500061E40E94310604E0302E01E00F933F92A6
:1046600000E3302E06E03A94F1F73A940A95D9F730
:104670003F900F913A9491F70A9581F720E361E416
:104680000E94310604E0302E01E00F933F9200E3D8
:10469000302E06E03A94F1F73A940A95D9F73F9014
:1046A0000F913A9491F70A9581F726E26AEA0E94FF
:1046B000310620E36AEA0E94310602E3302E01E06F
:1046C0000F933F9200E3302E06E03A94F1F73A94CC
:1046D0000A95D9F73F900F913A9491F70A9581F78F
:1046E0002BE561E40E94310604E0302E01E00F93D7
:1046F0003F9200E3302E06E03A94F1F73A940A959F
:10470000D9F73F900F913A9491F70A9581F729E7ED
:1047100061E40E94310604E0302E01E00F933F92E5
:1047200000E3302E06E03A94F1F73A940A95D9F76F
:104730003F900F913A9491F70A9581F72BE561E448
:104740000E94310604E0302E01E00F933F9200E317
:10475000302E06E03A94F1F73A940A95D9F73F9053
:104760000F913A9491F70A9581F728E461E40E9449
:10477000310604E0302E01E00F933F9200E3302E2B
:1047800006E03A94F1F73A940A95D9F73F900F91E1
:104790003A9491F70A9581F72EE161E40E9431067F
:1047A00004E0302E01E00F933F9200E3302E06E04C
:1047B0003A94F1F73A940A95D9F73F900F913A94C9
:1047C00091F70A9581F72DE261E40E94310604E039
:1047D000302E01E00F933F9200E3302E06E03A9432
:1047E000F1F73A940A95D9F73F900F913A9491F7DF
:1047F0000A9581F724E26AEA0E9431062DE26AEA0C
:104800000E94310602E3302E01E00F933F9200E355
:10481000302E06E03A94F1F73A940A95D9F73F9092
:104820000F913A9491F70A9581F721E561E40E948E
:10483000310604E0302E01E00F933F9200E3302E6A
:1048400006E03A94F1F73A940A95D9F73F900F9120
:104850003A9491F70A9581F72CE661E40E943106BB
:1048600004E0302E01E00F933F9200E3302E06E08B
:104870003A94F1F73A940A95D9F73F900F913A9408
:1048800091F70A9581F721E561E40E94310604E081
:10489000302E01E00F933F9200E3302E06E03A9471
:1048A000F1F73A940A95D9F73F900F913A9491F71E
:1048B0000A9581F720E461E40E94310604E0302E7D
:1048C00001E00F933F9200E3302E06E03A94F1F7B7
:1048D0003A940A95D9F73F900F913A9491F70A9537
:1048E00081F726E361E40E94310604E0302E01E006
:1048F0000F933F9200E3302E06E03A94F1F73A949A
:104900000A95D9F73F900F913A9491F70A9581F75C
:1049100028E26AEA0E94310624E268EC0E9431062D
:104920000E947101E4E4F4E00E941A05E6E5F4E077
:1049300020E40E947D010E941A0500EA302E00E169
:104940000F933F9200E3302E06E03A94F1F73A9449
:104950000A95D9F73F900F913A9491F70A9581F70C
:104960000C94480A0E947101EEE8F4E00E941A05D6
:10497000E0EAF4E020E40E947D010E941A0523E3AE
:1049800066E40E9431060CE3302E01E00F933F9263
:1049900000E3302E06E03A94F1F73A940A95D9F7FD
:1049A0003F900F913A9491F70A9581F724E266E4DB
:1049B0000E9431060AE5302E01E00F933F9200E39A
:1049C000302E06E03A94F1F73A940A95D9F73F90E1
:1049D0000F913A9491F70A9581F724E266E40E94D8
:1049E00031060AE5302E01E00F933F9200E3302EAE
:1049F00006E03A94F1F73A940A95D9F73F900F916F
:104A00003A9491F70A9581F724E266E40E94310610
:104A10000AE5302E01E00F933F9200E3302E06E0CE
:104A20003A94F1F73A940A95D9F73F900F913A9456
:104A300091F70A9581F724E266E40E94310604E0CA
:104A4000302E01E00F933F9200E3302E06E03A94BF
:104A5000F1F73A940A95D9F73F900F913A9491F76C
:104A60000A9581F726E266E40E94310604E0302EC2
:104A700001E00F933F9200E3302E06E03A94F1F705
:104A80003A940A95D9F73F900F913A9491F70A9585
:104A900081F72AE266E40E94310604E0302E01E04C
:104AA0000F933F9200E3302E06E03A94F1F73A94E8
:104AB0000A95D9F73F900F913A9491F70A9581F7AB
:104AC00020E36CE80E9431060CEB302E03E00F93DC
:104AD0003F9200E3302E06E03A94F1F73A940A95BB
:104AE000D9F73F900F913A9491F70A9581F720E317
:104AF00064E60E94310620E464E60E9431062CE45C
:104B000064E60E94310626E364E60E94310620E353
:104B100064E60E94310626E364E60E9431062CE337
:104B200064E60E94310626E364E60E9431062CE327
:104B300064E60E94310620E460E50E94310628E424
:104B40006CE30E94310620E466E90E9431060C9471
:104B5000480A0E947101ECE4F5E00E941A05EEE5B6
:104B6000F5E020E40E947D010E941A0500ED302E40
:104B700008E00F933F9200E3302E06E03A94F1F7FD
:104B80003A940A95D9F73F900F913A9491F70A9584
:104B900081F70E947101E0E1FAE00E941A05E2E269
:104BA000FAE020E40E947D010E941A0500ED302EFB
:104BB00008E00F933F9200E3302E06E03A94F1F7BD
:104BC0003A940A95D9F73F900F913A9491F70A9544
:104BD00081F70C940807822E08E1801609F40C94E2
:044BE0000807089525
:00000001FF
