:020000020000FC
:100000000FEF0DBF00E10EBF9FD30FEF07BB00E066
:1000100001BBC0C3FF91EF91EE0FFF1FAF93BF93E2
:10002000C8953196002021F04AF0002D13D0F8CF6A
:100030003196F695E795BF91AF91099400FA002D9E
:10004000C895A02DBB273196043879F0053881F08A
:1000500015C0E6CF2F93FF93EF93E42DF52D202FBE
:100060000995EF91FF912F9108950C91F3DFD8CF6F
:100070000D91002309F4D4CFEDDFFACF5F934F93B6
:100080003F932F939F938F937F936F932D913D91E8
:100090004D915D9106FD06C005FD0FC004FD10C029
:1000A00003FD19C06AE0702F76957770729580E035
:1000B000902F9295937093951AC062E094E003C0DC
:1000C00060E194E000C0702F7695777009F478E0D5
:1000D000729580E00CC06AE0C895802D3196C89575
:1000E000702D3196902F95959370939500C0943014
:1000F00081F0933051F0923021F0332716F427FD30
:100100003FEF442716F437FD4FEF552716F447FD10
:100110005FEF09D06F917F918F919F912F913F91C8
:100120004F915F917DCFCF92BF92AF929F928F926E
:10013000BB18AA249924882486F4E89455236AF4E9
:100140006894772309F0705150954095309520952B
:100150000FEF201B300B400B500B882351F05595AF
:10016000479537952795B794A794979487948A9540
:10017000B1F77F9372957F700EE20F9345D00C2DEF
:1001800030D00F930027201730074007500729F081
:100190007723A1F37A9591F707C0772329F07A9511
:1001A00019F000E257DFF9CF16F40DE253DF0F919B
:1001B0000E3211F04FDFFBCF7F917F70772359F024
:1001C00049DF282D392D4A2D5B2D11D00C2D09D05A
:1001D00041DF7A95D1F78F909F90AF90BF90CF90ED
:1001E00008950A3010F4005D0895095A0895CC244A
:1001F00000E2889420FDC60EC79457954795379521
:1002000027950A95B1F70895CC2400E2221F331FE9
:10021000441F551FCC1CC61A08F4C60E0A95B1F728
:10022000221F331F441F551F509540953095209530
:10023000089557454C434F4D4520544F20004D43A2
:100240005520504152545900312E20504C415920D4
:1002500047414D450000322E204F50454E2053411E
:100260004645000057656C636F6D6520746F000034
:10027000747269766961203A290074686520627534
:1002800074746F6E203A2900436F72726563742133
:10029000000046616C7365210000416E73776572E2
:1002A00020352F313020636F2D0072726563746CBE
:1002B0007920746F2077696E000031737420636C4D
:1002C00075653A00534E4F57205748495445000032
:1002D000434F4E47524154554C4154494F4E5300A1
:1002E000594F552057494E00594F55204C4F5345B3
:1002F0002C0054525920414741494E00312E205480
:100300005249564941205155495A0000322E204247
:100310005554544F4E2044414E434500454E54459C
:10032000522050415353434F44450000494E434FE0
:1003300052524543542050415353434F44450000CB
:10034000434F4E47524154554C4154494F4E532C04
:100350002000594F552057494E20544849532047B3
:10036000414D452021005448414E4B5320464F52A9
:100370000000504C4159494E4721203A44005768EB
:100380006F2077726F74652074686500736F6E6795
:100390002027746872696C6C6572273F0000412EDB
:1003A00020504C4159424F4920434152544900008A
:1003B000422E20545241435920434841504D414E12
:1003C0000000432E20412E205343484D4944000055
:1003D000442E204D2E204A41434B534F4E00EF00F8
:1003E00057686F20706C617973004865726D696F32
:1003F0006E653F00412E20454D4D412057415453DD
:100400004F4E0000422E20454D4D412053544F4E3B
:100410004500432E20504C4159424F492043415200
:1004200054490000442E205A4F452053414C44412A
:100430004E410000FD0057686963682062616E6488
:100440002077726F746500002768657920796F7571
:1004500027203F00412E20504C4159424F49204314
:10046000415254490000422E204C4544205A4550E8
:10047000504C494E0000432E204A4F55524E45598C
:100480000000442E2050494E4B20464C4F5944000A
:10049000EF0057686F2077726F746520274169728B
:1004A00000006F6E204720737472696E67273F00EB
:1004B000412E20504C4159424F492043415254490A
:1004C0000000422E2042454554484F56454E0000FC
:1004D000432E20534348554245525400442E204A4F
:1004E0002E532E20424143480000EF0057686F20F2
:1004F00074656163686573004D435520626573746C
:100500003F00412E20504C4159424F492043415217
:1005100054490000422E20412E205343484D494467
:100520000000432E204D2E20414C4900442E2043F4
:1005300052203700FB0057686F20776F6E20746879
:1005400065203230323200004649464120576F72F2
:100550006C64204375703F00412E20504C4159423D
:100560004F492043415254490000422E20535749DD
:10057000545A45524C414E440000432E20415247AC
:10058000454E54494E410000442E204652414E43B0
:100590004500F700576869636820646973682069DB
:1005A00073006E6F742073776973733F0000412E80
:1005B00020504C4159424F49204341525449000078
:1005C000422E205241434C4554544500432E204670
:1005D0004F4E44554500442E20524F455354490038
:1005E000FD0057686174277320746865206361702B
:1005F000692D000074616C206F66204C616F733F41
:100600000000412E204C414F5300422E20564945B8
:100610004E5449414E450000432E2056454E494315
:100620004500442E20504C4159424F4920434152ED
:1006300054490000FB005768617427732074686593
:1006400020626573740073656374696F6E206174F2
:10065000204550464C3F0000412E204C4946452045
:10066000534349454E4345530000422E204D4943D4
:10067000524F544543480000432E20454C4543000B
:10068000442E20504C4159424F4920434152544935
:100690000000F70057686F2077726F7465207468E8
:1006A0006500736F6E672027736B79273F00412EBB
:1006B000204B414E5945205745535400422E20505F
:1006C0004C4159424F492043415254490000432E66
:1006D00020412E205343484D49440000442E2054CD
:1006E00041594C4F5220535749465400FB0030901B
:1006F000008037FCFCCF03D000930080089500D029
:10070000000008952D3079F12A30B9F10091008070
:1007100007FDFCCFF4DF209300C0089501E0E7CF90
:1007200002E0E5CF00E1E3CF04E1E1CF08E1DFCF74
:100730000CE1DDCF0DE0DBCF0CE0D9CF0EE0D7CF61
:100740000CE0D5CF0FE0D3CF05B7006C05BF01E0BB
:10075000CEDF06E0CCDF0CE0CADF08E3C8DF089597
:10076000022F0068C4CF0091008007FDFCCF007409
:100770000068C5DF0093008008952F9320E4F0DF28
:100780002F910895C895002021F0202DBBDF3196D0
:10079000F9CF0895C3DF0E94A403E2E3F2E00E94D0
:1007A000C203EEE3F2E020E40E94B0030E94C20321
:1007B00000ED302E08E00F933F9200E3302E06E06C
:1007C0003A94F1F73A940A95D9F73F900F913A94F9
:1007D00091F70A9581F70ED062FF0E94710D61FFBB
:1007E0000E94120461FF0E943D0462FF0E944D0DB1
:1007F0000C94EB030E94A403E8E4F2E00E94C2031D
:10080000E6E5F2E020E40E94B0030E94C2030E94E9
:10081000890D60B368BB6D3F11F06B3F09F408951B
:100820000C94FA030E94A403ECEFF2E00E94C203CE
:10083000ECE0F3E020E40E94B0030E94C2030E94B7
:10084000890D08EE302E04E00F933F9200E3302E26
:1008500006E03A94F1F73A940A95D9F73F900F9150
:100860003A9491F70A9581F760B368BB6D3F11F038
:100870006B3F09F408950C9412040E94A403E4E66B
:10088000F2E00E94C203E0E7F2E020E40E94B0033D
:100890000E94C20300ED302E08E00F933F9200E368
:1008A000302E06E03A94F1F73A940A95D9F73F9042
:1008B0000F913A9491F70A9581F70E94A403EAE90F
:1008C000F2E00E94C203EAEAF2E020E40E94B003F0
:1008D0000E94C20300ED302E08E00F933F9200E328
:1008E000302E06E03A94F1F73A940A95D9F73F9002
:1008F0000F913A9491F70A9581F770E00E94A40352
:10090000EEE7F3E00E94C203ECE8F3E020E40E948B
:10091000B0030E94C20300ED302E08E00F933F9217
:1009200000E3302E06E03A94F1F73A940A95D9F7AD
:100930003F900F913A9491F70A9581F760B368BBA5
:1009400064FF0C94170563FF0C94170562FF0C9469
:10095000170561FF0C9417050E94A403EEE9F3E06C
:100960000E94C203E0EBF3E020E40E94B0030E9487
:10097000C20360B368BB64FF0C94170563FF0C945B
:10098000170562FF0C94170561FF0C94170500ED25
:10099000302E08E00F933F9200E3302E06E03A94A9
:1009A000F1F73A940A95D9F73F900F913A9491F75D
:1009B0000A9581F760B368BB64FF0C94170563FF69
:1009C0000C94170562FF0C94170561FF0C94170532
:1009D0000E94A403E2ECF3E00E94C203E0EDF3E026
:1009E00020E40E94B0030E94C20300ED302E08E014
:1009F0000F933F9200E3302E06E03A94F1F73A94D9
:100A00000A95D9F73F900F913A9491F70A9581F79B
:100A100060B368BB64FF0C94170563FF0C94170563
:100A200062FF05C061FF0C9417050C947E04EEED87
:100A3000F3E0C895601509F468940EF473950E946C
:100A40008E030EF00C942C050E94A403E8E8F2E05B
:100A50000E94C2030C9432050E94A403E2E9F2E072
:100A60000E94C203551B442733272227272F02E861
:100A7000402E03E0502E0E940A0053636F72653AC5
:100A8000C012000000ED302E08E00F933F9200E30B
:100A9000302E06E03A94F1F73A940A95D9F73F9050
:100AA0000F913A9491F70A9581F70E94A403E0EE22
:100AB000F3E00E94C203EAEEF3E020E40E94B003F8
:100AC0000E94C20300ED302E08E00F933F9200E336
:100AD000302E06E03A94F1F73A940A95D9F73F9010
:100AE0000F913A9491F70A9581F760B368BB64FF60
:100AF0000C94EE0563FF0C94EE0562FF0C94EE057A
:100B000061FF0C94EE050E94A403E4EFF3E00E9461
:100B1000C203E4E0F4E020E40E94B0030E94C203B8
:100B200060B368BB64FF0C94EE0563FF0C94EE05A4
:100B300062FF0C94EE0561FF0C94EE0500ED302E83
:100B400008E00F933F9200E3302E06E03A94F1F76D
:100B50003A940A95D9F73F900F913A9491F70A95F4
:100B600081F760B368BB64FF0C94EE0563FF0C94DF
:100B7000EE0562FF0C94EE0561FF0C94EE050E94F9
:100B8000A403E2E1F4E00E94C203E4E2F4E020E422
:100B90000E94B0030E94C20300ED302E08E00F93C4
:100BA0003F9200E3302E06E03A94F1F73A940A952A
:100BB000D9F73F900F913A9491F70A9581F760B376
:100BC00068BB64FF0C94EE0563FF0C94EE0562FFB6
:100BD00005C061FF0C94EE050C945505E4E3F4E0C8
:100BE000C895601509F468940EF473950E948E03FD
:100BF0000EF00C9403060E94A403E8E8F2E00E94C1
:100C0000C2030C9409060E94A403E2E9F2E00E94E8
:100C1000C203551B442733272227272F02E8402EE3
:100C200003E0502E0E940A0053636F72653AC012AF
:100C3000000000ED302E08E00F933F9200E3302ECD
:100C400006E03A94F1F73A940A95D9F73F900F915C
:100C50003A9491F70A9581F70E94A403E6E3F4E041
:100C60000E94C203E8E4F4E020E40E94B0030E9482
:100C7000C20300ED302E08E00F933F9200E3302EC8
:100C800006E03A94F1F73A940A95D9F73F900F911C
:100C90003A9491F70A9581F760B368BB64FF0C94AE
:100CA000C50663FF0C94C50662FF0C94C50661FF80
:100CB0000C94C5060E94A403E4E5F4E00E94C2037C
:100CC000E6E6F4E020E40E94B0030E94C20360B3B1
:100CD00068BB64FF0C94C50663FF0C94C50662FFF5
:100CE0000C94C50661FF0C94C50600ED302E08E09B
:100CF0000F933F9200E3302E06E03A94F1F73A94D6
:100D00000A95D9F73F900F913A9491F70A9581F798
:100D100060B368BB64FF0C94C50663FF0C94C50602
:100D200062FF0C94C50661FF0C94C5060E94A403E3
:100D3000E6E7F4E00E94C203E2E8F4E020E40E9467
:100D4000B0030E94C20300ED302E08E00F933F92E3
:100D500000E3302E06E03A94F1F73A940A95D9F779
:100D60003F900F913A9491F70A9581F760B368BB71
:100D700064FF0C94C50663FF0C94C50662FF05C0B2
:100D800061FF0C94C5060C942C06E0E9F4E0C895CC
:100D9000601509F468940EF473950E948E030EF0AA
:100DA0000C94DA060E94A403E8E8F2E00E94C20371
:100DB0000C94E0060E94A403E2E9F2E00E94C20360
:100DC000551B442733272227272F02E8402E03E014
:100DD000502E0E940A0053636F72653AC0120000E1
:100DE00000ED302E08E00F933F9200E3302E06E036
:100DF0003A94F1F73A940A95D9F73F900F913A94C3
:100E000091F70A9581F70E94A403E2E9F4E00E94B9
:100E1000C203E2EAF4E020E40E94B0030E94C203AD
:100E200000ED302E08E00F933F9200E3302E06E0F5
:100E30003A94F1F73A940A95D9F73F900F913A9482
:100E400091F70A9581F760B368BB64FF0C949C0727
:100E500063FF0C949C0762FF0C949C0761FF0C9449
:100E60009C070E94A403E0EBF4E00E94C203E2ECC2
:100E7000F4E020E40E94B0030E94C20360B368BBA8
:100E800064FF0C949C0763FF0C949C0762FF0C9416
:100E90009C0761FF0C949C0700ED302E08E00F9337
:100EA0003F9200E3302E06E03A94F1F73A940A9527
:100EB000D9F73F900F913A9491F70A9581F760B373
:100EC00068BB64FF0C949C0763FF0C949C0762FF53
:100ED0000C949C0761FF0C949C070E94A403E0ED16
:100EE000F4E00E94C203ECEDF4E020E40E94B003C1
:100EF0000E94C20300ED302E08E00F933F9200E302
:100F0000302E06E03A94F1F73A940A95D9F73F90DB
:100F10000F913A9491F70A9581F760B368BB64FF2B
:100F20000C949C0763FF0C949C0762FF05C061FF53
:100F30000C949C070C940307EAEEF4E0C895601546
:100F400009F468940EF473950E948E030EF00C94CD
:100F5000B1070E94A403E8E8F2E00E94C2030C94E7
:100F6000B7070E94A403E2E9F2E00E94C203551B06
:100F7000442733272227272F02E8402E03E0502E54
:100F80000E940A0053636F72653AC012000000EDC0
:100F9000302E08E00F933F9200E3302E06E03A94A3
:100FA000F1F73A940A95D9F73F900F913A9491F757
:100FB0000A9581F70E94A403ECEEF4E00E94C203BC
:100FC000E8EFF4E020E40E94B0030E94C20300EDC9
:100FD000302E08E00F933F9200E3302E06E03A9463
:100FE000F1F73A940A95D9F73F900F913A9491F717
:100FF0000A9581F760B368BB64FF0C94730863FFC4
:101000000C94730862FF0C94730861FF0C947308CE
:101010000E94A403E2E0F5E00E94C203E4E1F5E0EF
:1010200020E40E94B0030E94C20360B368BB64FF67
:101030000C94730863FF0C94730862FF0C9473089C
:1010400061FF0C94730800ED302E08E00F933F927F
:1010500000E3302E06E03A94F1F73A940A95D9F776
:101060003F900F913A9491F70A9581F760B368BB6E
:1010700064FF0C94730863FF0C94730862FF0C9474
:10108000730861FF0C9473080E94A403E2E2F5E088
:101090000E94C203ECE2F5E020E40E94B0030E944B
:1010A000C20300ED302E08E00F933F9200E3302E94
:1010B00006E03A94F1F73A940A95D9F73F900F91E8
:1010C0003A9491F70A9581F760B368BB64FF0C947A
:1010D000730863FF0C94730862FF05C061FF0C94F2
:1010E00073080C94DA07E4E3F5E0C895601509F499
:1010F00068940EF473950E948E030EF00C94880889
:101100000E94A403E8E8F2E00E94C2030C948E0857
:101110000E94A403E2E9F2E00E94C203551B4427A7
:1011200033272227272F02E8402E03E0502E0E946B
:101130000A0053636F72653AC012000000ED302E52
:1011400008E00F933F9200E3302E06E03A94F1F767
:101150003A940A95D9F73F900F913A9491F70A95EE
:1011600081F70E94A403E6E3F5E00E94C203E8E4ED
:10117000F5E020E40E94B0030E94C20300ED302E8F
:1011800008E00F933F9200E3302E06E03A94F1F727
:101190003A940A95D9F73F900F913A9491F70A95AE
:1011A00081F760B368BB64FF0C944A0963FF0C9439
:1011B0004A0962FF0C944A0961FF0C944A090E9493
:1011C000A403E8E5F5E00E94C203EAE6F5E020E4C6
:1011D0000E94B0030E94C20360B368BB64FF0C941A
:1011E0004A0963FF0C944A0962FF0C944A0961FFA3
:1011F0000C944A0900ED302E08E00F933F9200E373
:10120000302E06E03A94F1F73A940A95D9F73F90D8
:101210000F913A9491F70A9581F760B368BB64FF28
:101220000C944A0963FF0C944A0962FF0C944A0922
:1012300061FF0C944A090E94A403EAE7F5E00E94CA
:10124000C203E8E8F5E020E40E94B0030E94C20374
:1012500000ED302E08E00F933F9200E3302E06E0C1
:101260003A94F1F73A940A95D9F73F900F913A944E
:1012700091F70A9581F760B368BB64FF0C944A0943
:1012800063FF0C944A0962FF05C061FF0C944A0990
:101290000C94B108E2E9F5E0C895601509F468948A
:1012A0000EF473950E948E030EF00C945F090E9459
:1012B000A403E8E8F2E00E94C2030C9465090E94CE
:1012C000A403E2E9F2E00E94C203551B442733273E
:1012D0002227272F02E8402E03E0502E0E940A000A
:1012E00053636F72653AC012000000ED302E08E0C3
:1012F0000F933F9200E3302E06E03A94F1F73A94D0
:101300000A95D9F73F900F913A9491F70A9581F792
:101310000E94A403E4E9F5E00E94C203E2EAF5E0DA
:1013200020E40E94B0030E94C20300ED302E08E0CA
:101330000F933F9200E3302E06E03A94F1F73A948F
:101340000A95D9F73F900F913A9491F70A9581F752
:1013500060B368BB64FF0C94210A63FF0C94210AFC
:1013600062FF0C94210A61FF0C94210A0E94A403DD
:10137000EEEAF5E00E94C203E0ECF5E020E40E9412
:10138000B0030E94C20360B368BB64FF0C94210ADF
:1013900063FF0C94210A62FF0C94210A61FF0C94F4
:1013A000210A00ED302E08E00F933F9200E3302E2B
:1013B00006E03A94F1F73A940A95D9F73F900F91E5
:1013C0003A9491F70A9581F760B368BB64FF0C9477
:1013D000210A63FF0C94210A62FF0C94210A61FF29
:1013E0000C94210A0E94A403ECECF5E00E94C203D5
:1013F000E6EDF5E020E40E94B0030E94C20300ED98
:10140000302E08E00F933F9200E3302E06E03A942E
:10141000F1F73A940A95D9F73F900F913A9491F7E2
:101420000A9581F760B368BB64FF0C94210A63FFDF
:101430000C94210A62FF05C061FF0C94210A0C94F0
:101440008809E0EEF5E0C895601509F468940EF49B
:1014500073950E948E030EF00C94360A0E94A4032A
:10146000E8E8F2E00E94C2030C943C0A0E94A40344
:10147000E2E9F2E00E94C203551B442733272227EA
:10148000272F02E8402E03E0502E0E940A005363EB
:101490006F72653AC012000000ED302E08E00F9325
:1014A0003F9200E3302E06E03A94F1F73A940A9521
:1014B000D9F73F900F913A9491F70A9581F70E94DE
:1014C000A403E2EEF5E00E94C203E4EFF5E020E4BD
:1014D0000E94B0030E94C20300ED302E08E00F937B
:1014E0003F9200E3302E06E03A94F1F73A940A95E1
:1014F000D9F73F900F913A9491F70A9581F760B32D
:1015000068BB64FF0C94F80A63FF0C94F80A62FF4E
:101510000C94F80A61FF0C94F80A0E94A403E2E01C
:10152000F6E00E94C203EAE0F6E020E40E94B00385
:101530000E94C20360B368BB64FF0C94F80A63FFA7
:101540000C94F80A62FF0C94F80A61FF0C94F80AF4
:1015500000ED302E08E00F933F9200E3302E06E0BE
:101560003A94F1F73A940A95D9F73F900F913A944B
:1015700091F70A9581F760B368BB64FF0C94F80A91
:1015800063FF0C94F80A62FF0C94F80A61FF0C9454
:10159000F80A0E94A403E8E1F6E00E94C203E2E236
:1015A000F6E020E40E94B0030E94C20300ED302E5A
:1015B00008E00F933F9200E3302E06E03A94F1F7F3
:1015C0003A940A95D9F73F900F913A9491F70A957A
:1015D00081F760B368BB64FF0C94F80A63FF0C9456
:1015E000F80A62FF05C061FF0C94F80A0C945F0AC8
:1015F000E4E3F6E0C895601509F468940EF4739579
:101600000E948E030EF00C940D0B0E94A403E8E8D8
:10161000F2E00E94C2030C94130B0E94A403E2E9BF
:10162000F2E00E94C203551B442733272227272FAD
:1016300002E8402E03E0502E0E940A0053636F72AE
:10164000653AC012000000ED302E08E00F933F9283
:1016500000E3302E06E03A94F1F73A940A95D9F770
:101660003F900F913A9491F70A9581F70E94A40355
:10167000E6E3F6E00E94C203E6E4F6E020E40E941E
:10168000B0030E94C20300ED302E08E00F933F929A
:1016900000E3302E06E03A94F1F73A940A95D9F730
:1016A0003F900F913A9491F70A9581F760B368BB28
:1016B00064FF0C94CF0B63FF0C94CF0B62FF0C9470
:1016C000CF0B61FF0C94CF0B0E94A403E8E5F6E07A
:1016D0000E94C203EAE6F6E020E40E94B0030E9402
:1016E000C20360B368BB64FF0C94CF0B63FF0C9420
:1016F000CF0B62FF0C94CF0B61FF0C94CF0B00ED6E
:10170000302E08E00F933F9200E3302E06E03A942B
:10171000F1F73A940A95D9F73F900F913A9491F7DF
:101720000A9581F760B368BB64FF0C94CF0B63FF2D
:101730000C94CF0B62FF0C94CF0B61FF0C94CF0B7A
:101740000E94A403E8E7F6E00E94C203E0E8F6E0A6
:1017500020E40E94B0030E94C20300ED302E08E096
:101760000F933F9200E3302E06E03A94F1F73A945B
:101770000A95D9F73F900F913A9491F70A9581F71E
:1017800060B368BB64FF0C94CF0B63FF0C94CF0B6A
:1017900062FF05C061FF0C94CF0B0C94360BE2E99D
:1017A000F6E0C895601509F468940EF473950E94EC
:1017B0008E030EF00C94E40B0E94A403E8E8F2E020
:1017C0000E94C2030C94EA0B0E94A403E2E9F2E037
:1017D0000E94C203551B442733272227272F02E8E4
:1017E000402E03E0502E0E940A0053636F72653A48
:1017F000C012000000ED302E08E00F933F9200E38E
:10180000302E06E03A94F1F73A940A95D9F73F90D2
:101810000F913A9491F70A9581F70E94A403E4E9A5
:10182000F6E00E94C203E2EAF6E020E40E94B00380
:101830000E94C20300ED302E08E00F933F9200E3B8
:10184000302E06E03A94F1F73A940A95D9F73F9092
:101850000F913A9491F70A9581F760B368BB64FFE2
:101860000C94A60C63FF0C94A60C62FF0C94A60CBF
:1018700061FF0C94A60C0E94A403EEEAF6E00E941D
:10188000C203ECEBF6E020E40E94B0030E94C20326
:1018900060B368BB64FF0C94A60C63FF0C94A60CA9
:1018A00062FF0C94A60C61FF0C94A60C00ED302E88
:1018B00008E00F933F9200E3302E06E03A94F1F7F0
:1018C0003A940A95D9F73F900F913A9491F70A9577
:1018D00081F760B368BB64FF0C94A60C63FF0C94A3
:1018E000A60C62FF0C94A60C61FF0C94A60C0E943F
:1018F000A403EEECF6E00E94C203ECEDF6E020E477
:101900000E94B0030E94C20300ED302E08E00F9346
:101910003F9200E3302E06E03A94F1F73A940A95AC
:10192000D9F73F900F913A9491F70A9581F760B3F8
:1019300068BB64FF0C94A60C63FF0C94A60C62FFBA
:1019400005C061FF0C94A60C0C940D0CECEEF6E0B7
:10195000C895601509F468940EF473950E948E037F
:101960000EF00C94BB0C0E94A403E8E8F2E00E9485
:10197000C2030C94C10C0E94A403E2E9F2E00E94AD
:10198000C203551B442733272227272F02E8402E66
:1019900003E0502E0E940A0053636F72653AC01232
:1019A000000000ED302E08E00F933F9200E3302E50
:1019B00006E03A94F1F73A940A95D9F73F900F91DF
:1019C0003A9491F70A9581F705E0701710F40C949A
:1019D0002B0D0E94A403E0EDF2E00E94C203E0EEB2
:1019E000F2E020E40E94B0030E94C20300ED302E1A
:1019F00008E00F933F9200E3302E06E03A94F1F7AF
:101A00003A940A95D9F73F900F913A9491F70A9535
:101A100081F70E94A403EAEBF2E00E94C203E4EC27
:101A2000F2E020E40E94B0030E94C20300EA302EDC
:101A300000E10F933F9200E3302E06E03A94F1F775
:101A40003A940A95D9F73F900F913A9491F70A95F5
:101A500081F70C94EB030E94A403E8EEF2E00E94ED
:101A6000C203E2EFF2E020E40E94B0030E94C2034E
:101A700000ED302E08E00F933F9200E3302E06E099
:101A80003A94F1F73A940A95D9F73F900F913A9426
:101A900091F70A9581F70C94EB030E94A403E4E606
:101AA000F2E00E94C203EAE7F2E020E40E94B00301
:101AB0000E94C2030E94890D00ED302E08E00F93B2
:101AC0003F9200E3302E06E03A94F1F73A940A95FB
:101AD000D9F73F900F913A9491F70A9581F70C94BA
:101AE000EB030E94A403ECE1F3E00E94C2030C9418
:101AF000790D0FD00E94A403E6E6F3E00E94C20332
:101B0000E2E7F3E020E40E94B0030E94C2030C94D9
:0C1B1000790D60B367FF0C94000008958D
:00000001FF
