:020000020000FC
:100000000C94DC040C940A000C940F000C94140063
:100010000C94190001E0102E01E0E02E0FC002E068
:10002000102E02E0E02E0AC004E0102E04E0E02EC4
:1000300005C008E0102E08E0E02E00C00FEF02BB64
:100040000EE1302E01E00F933F9200E3302E06E0E8
:100050003A94F1F73A940A95D9F73F900F913A9470
:1000600091F70A9581F70FE702BB0EE1302E01E010
:100070000F933F9200E3302E06E03A94F1F73A9462
:100080000A95D9F73F900F913A9491F70A9581F725
:1000900000B30E21002319F400E4202E8CC00EE1E1
:1000A000302E01E00F933F9200E3302E06E03A94A9
:1000B000F1F73A940A95D9F73F900F913A9491F756
:1000C0000A9581F70FEB02BB0EE1302E01E00F9392
:1000D0003F9200E3302E06E03A94F1F73A940A9505
:1000E000D9F73F900F913A9491F70A9581F700B3B1
:1000F0000E21002319F400E8202E5DC00EE1302E01
:1001000001E00F933F9200E3302E06E03A94F1F7BE
:100110003A940A95D9F73F900F913A9491F70A953E
:1001200081F70FED02BB0EE1302E01E00F933F92FD
:1001300000E3302E06E03A94F1F73A940A95D9F7A5
:100140003F900F913A9491F70A9581F700B30E21F1
:10015000002319F400E2202E2EC00EE1302E01E023
:100160000F933F9200E3302E06E03A94F1F73A9471
:100170000A95D9F73F900F913A9491F70A9581F734
:100180000FEE02BB0EE1302E01E00F933F9200E331
:10019000302E06E03A94F1F73A940A95D9F73F9059
:1001A0000F913A9491F70A9581F700B30E2100233D
:1001B00011F400E1202E1AE00FEFF02E0FE002BB49
:1001C000189500EF01BB0FE002BB0FEF07BB0FE07C
:1001D00009BF00E00ABF129A22241124FF2433270A
:1001E0004427552777278827992778940C94F80077
:1001F000FF20F1F3FF242227210D220D6627822EF6
:1002000021FD6C5F22FD685F23FD645F25FD6F5F4C
:1002100026FD6E5F27FD6D5FE62FFF27E454FD4F3F
:10022000C895602D08953090008037FCFCCF03D036
:1002300000930080089500D0000008952D3079F1DA
:100240002A30B9F10091008007FDFCCFF4DF209344
:1002500000C0089501E0E7CF02E0E5CF00E1E3CF81
:1002600004E1E1CF08E1DFCF0CE1DDCF0DE0DBCF32
:100270000CE0D9CF0EE0D7CF0CE0D5CF0FE0D3CF35
:1002800005B7006C05BF01E0CEDF06E0CCDF0CE077
:10029000CADF08E3C8DF0895022F0068C4CF0091C9
:1002A000008007FDFCCF00740068C5DF009300806C
:1002B00008952F9320E4F0DF2F91089531323341D8
:1002C00034353642373839432A3023440000574505
:1002D0004C434F4D4520544F20004D435520504135
:1002E00052545900412E20504C41592047414D4510
:1002F0000000422E204F50454E20534146450000FD
:1003000057656C636F6D6520746F00007472697659
:100310006961203A290074686520627574746F6E93
:10032000203A2900436F72726563742100004661B0
:100330006C7365210000416E7377657220352F3133
:100340003020636F2D0072726563746C7920746F56
:100350002077696E000031737420636C75653A0014
:10036000534E4F572057484954450000434F4E477E
:10037000524154554C4154494F4E5300594F55200A
:1003800057494E00594F55204C4F53452C0054525D
:100390005920414741494E00412E20545249564967
:1003A00041205155495A0000422E20425554544F85
:1003B0004E2044414E434500454E54455220504145
:1003C0005353434F44450000494E434F5252454317
:1003D000542050415353434F44450000434F4E4730
:1003E000524154554C4154494F4E532C2000594FC3
:1003F000552057494E20544849532047414D4520E8
:1004000021005448414E4B5320464F520000504C5F
:100410004159494E4721203A440057686F2077726E
:100420006F74652074686500736F6E672027746849
:1004300072696C6C6572273F0000412E20504C4160
:1004400059424F492043415254490000422E205402
:100450005241435920434841504D414E0000432EE4
:1004600020412E205343484D49440000442E204D46
:100470002E204A41434B534F4E00880057686F204F
:10048000706C617973004865726D696F6E653F00CD
:10049000412E20454D4D4120574154534F4E0000B1
:1004A000422E20454D4D412053544F4E4500432E82
:1004B00020504C4159424F49204341525449000079
:1004C000442E205A4F452053414C44414E41000098
:1004D000810057686963682062616E642077726F7B
:1004E000746500002768657920796F7527203F00C3
:1004F000412E20504C4159424F49204341525449CA
:100500000000422E204C4544205A4550504C494E44
:100510000000432E204A4F55524E45590000442EAC
:100520002050494E4B20464C4F5944008800576894
:100530006F2077726F7465202741697200006F6EBB
:10054000204720737472696E67273F00412E205048
:100550004C4159424F492043415254490000422ED8
:100560002042454554484F56454E0000432E2053E7
:100570004348554245525400442E204A2E532E20C3
:10058000424143480000880057686F2074656163EA
:10059000686573004D435520626573743F00412EBA
:1005A00020504C4159424F49204341525449000088
:1005B000422E20412E205343484D49440000432EF3
:1005C000204D2E20414C4900442E2043522037001C
:1005D000820057686F20776F6E2074686520323014
:1005E000323200004649464120576F726C64204306
:1005F00075703F00412E20504C4159424F492043D5
:10060000415254490000422E20535749545A4552F2
:100610004C414E440000432E20415247454E544920
:100620004E410000442E204652414E434500840076
:1006300057686963682064697368206973006E6F26
:10064000742073776973733F0000412E20504C4132
:1006500059424F492043415254490000422E2052F2
:1006600041434C4554544500432E20464F4E44557B
:100670004500442E20524F4553544900810057688D
:10068000617427732074686520636170692D0000B0
:1006900074616C206F66204C616F733F0000412EC7
:1006A000204C414F5300422E205649454E5449415B
:1006B0004E450000432E2056454E49434500442EEA
:1006C00020504C4159424F49204341525449000067
:1006D00082005768617427732074686520626573AF
:1006E000740073656374696F6E20617420455046B1
:1006F0004C3F0000412E204C49464520534349457C
:100700004E4345530000422E204D4943524F54451D
:1007100043480000432E20454C454300442E2050C2
:100720004C4159424F4920434152544900008400F2
:1007300057686F2077726F74652074686500736FF7
:100740006E672027736B79273F00412E204B414E67
:100750005945205745535400422E20504C41594290
:100760004F492043415254490000432E20412E203E
:100770005343484D49440000442E205441594C4FA6
:1007800052205357494654008200C895002021F05A
:10079000202D54DD3196F9CF0895FF91EF91EE0FA2
:1007A000FF1FAF93BF93C8953196002021F04AF008
:1007B000002D13D0F8CF3196F695E795BF91AF9104
:1007C000099400FA002DC895A02DBB273196043856
:1007D00079F0053881F015C0E6CF2F93FF93EF93A2
:1007E000E42DF52D202F0995EF91FF912F9108957C
:1007F0000C91F3DFD8CF0D91002309F4D4CFEDDFB6
:10080000FACF5F934F933F932F939F938F937F9351
:100810006F932D913D914D915D9106FD06C005FDB3
:100820000FC004FD10C003FD19C06AE0702F76955B
:100830007770729580E0902F9295937093951AC07F
:1008400062E094E003C060E194E000C0702F769510
:10085000777009F478E0729580E00CC06AE0C89582
:10086000802D3196C895702D3196902F9595937067
:10087000939500C0943081F0933051F0923021F084
:10088000332716F427FD3FEF442716F437FD4FEFCB
:10089000552716F447FD5FEF09D06F917F918F9137
:1008A0009F912F913F914F915F917DCFCF92BF92BA
:1008B000AF929F928F92BB18AA249924882486F421
:1008C000E89455236AF46894772309F070515095A1
:1008D0004095309520950FEF201B300B400B500BAF
:1008E000882351F05595479537952795B794A79448
:1008F000979487948A95B1F77F9372957F700EE2F3
:100900000F9345D00C2D30D00F93002720173007C0
:100910004007500729F07723A1F37A9591F707C094
:10092000772329F07A9519F000E257DFF9CF16F412
:100930000DE253DF0F910E3211F04FDFFBCF7F91AD
:100940007F70772359F049DF282D392D4A2D5B2DF3
:1009500011D00C2D09D041DF7A95D1F78F909F905F
:10096000AF90BF90CF9008950A3010F4005D0895C5
:10097000095A0895CC2400E2889420FDC60EC7943D
:1009800057954795379527950A95B1F70895CC2443
:1009900000E2221F331F441F551FCC1CC61A08F447
:1009A000C60E0A95B1F7221F331F441F551F5095DD
:1009B00040953095209508950FEF0DBF00E10EBFD3
:1009C0005FDC0FEF07BB00E001BB0C94E70442DCE7
:1009D0000E944001EEECF2E00E94C503EAEDF2E075
:1009E00020E40E944C010E94C50300ED302E08E077
:1009F0000F933F9200E3302E06E03A94F1F73A94D9
:100A00000A95D9F73F900F913A9491F70A9581F79B
:100A10000ED061FD0E94300560FD0E94380560FD2A
:100A20000E94510561FD0E944C0B0C9408050E9428
:100A30004001E4EEF2E00E94C503E2EFF2E020E4C0
:100A40000E944C010E94C5030E94E1000E94900B8D
:100A5000622F613811F0623809F408950C9417057B
:100A60000E944001E8EBF3E00E94C5030C946E0B7A
:100A70000E944001E8E9F3E00E94C503E8EAF3E0E0
:100A800020E40E944C010E94C5030E94E1000E94E4
:100A9000900B622F613811F0623809F408950C94BC
:100AA00038050E944001E0E0F3E00E94C503ECE05D
:100AB000F3E020E40E944C010E94C50300ED302EBB
:100AC00008E00F933F9200E3302E06E03A94F1F7EE
:100AD0003A940A95D9F73F900F913A9491F70A9575
:100AE00081F70E944001E6E3F3E00E94C503E6E4DB
:100AF000F3E020E40E944C010E94C50300ED302E7B
:100B000008E00F933F9200E3302E06E03A94F1F7AD
:100B10003A940A95D9F73F900F913A9491F70A9534
:100B200081F700E0902E0E944001EAE1F4E00E948B
:100B3000C503E8E2F4E020E40E944C010E94C503F2
:100B40000E94E1000E94900B622F207809F00C9423
:100B5000DD05683441F70E944001EAE3F4E00E94B9
:100B6000C503ECE4F4E020E40E944C010E94C503BC
:100B70000E94E1000E94900B622F207809F00C94F3
:100B8000DD05683441F70E944001EEE5F4E00E9483
:100B9000C503ECE6F4E020E40E944C010E94C5038A
:100BA0000E94E1000E94900B622F207809F00C94C3
:100BB000DD05683441F70C949305EAE7F4E0C89545
:100BC000601509F468940EF493940E942A010EF0C3
:100BD0000C94F2050E944001E4E2F3E00E94C50398
:100BE0000C94F8050E944001EEE2F3E00E94C50378
:100BF000551B442733272227292D0EE1402E01E0E3
:100C0000502E0E94CD0353636F72653AC0120000EC
:100C100000ED302E08E00F933F9200E3302E06E007
:100C20003A94F1F73A940A95D9F73F900F913A9494
:100C300091F70A9581F70E944001ECE7F4E00E94E9
:100C4000C503E6E8F4E020E40E944C010E94C503DD
:100C50000E94E1000E94900B622F207809F00C9412
:100C60006506683441F70E944001E0E9F4E00E9423
:100C7000C503E0EAF4E020E40E944C010E94C503B1
:100C80000E94E1000E94900B622F207809F00C94E2
:100C90006506683441F70E944001EEEAF4E00E94E4
:100CA000C503E0ECF4E020E40E944C010E94C5037F
:100CB0000E94E1000E94900B622F207809F00C94B2
:100CC0006506683441F70C941B06E0EDF4E0C89526
:100CD000601509F468940EF493940E942A010EF0B2
:100CE0000C947A060E944001E4E2F3E00E94C503FE
:100CF0000C9480060E944001EEE2F3E00E94C503DE
:100D0000551B442733272227292D0EE1402E01E0D1
:100D1000502E0E94CD0353636F72653AC0120000DB
:100D200000ED302E08E00F933F9200E3302E06E0F6
:100D30003A94F1F73A940A95D9F73F900F913A9483
:100D400091F70A9581F70E944001E2EDF4E00E94DC
:100D5000C503E4EEF4E020E40E944C010E94C503C8
:100D60000E94E1000E94900B622F207809F00C9401
:100D7000ED06683441F70E944001E0EFF4E00E9484
:100D8000C503E2E0F5E020E40E944C010E94C503A7
:100D90000E94E1000E94900B622F207809F00C94D1
:100DA000ED06683441F70E944001E2E1F5E00E945F
:100DB000C503EEE1F5E020E40E944C010E94C5036A
:100DC0000E94E1000E94900B622F207809F00C94A1
:100DD000ED06683441F70C94A306ECE2F5E0C89503
:100DE000601509F468940EF493940E942A010EF0A1
:100DF0000C9402070E944001E4E2F3E00E94C50364
:100E00000C9408070E944001EEE2F3E00E94C50343
:100E1000551B442733272227292D0EE1402E01E0C0
:100E2000502E0E94CD0353636F72653AC0120000CA
:100E300000ED302E08E00F933F9200E3302E06E0E5
:100E40003A94F1F73A940A95D9F73F900F913A9472
:100E500091F70A9581F70E944001EEE2F5E00E94C9
:100E6000C503EEE3F5E020E40E944C010E94C503B7
:100E70000E94E1000E94900B622F207809F00C94F0
:100E80007507683441F70E944001ECE4F5E00E94E8
:100E9000C503EEE5F5E020E40E944C010E94C50385
:100EA0000E94E1000E94900B622F207809F00C94C0
:100EB0007507683441F70E944001ECE6F5E00E94B6
:100EC000C503E8E7F5E020E40E944C010E94C50359
:100ED0000E94E1000E94900B622F207809F00C9490
:100EE0007507683441F70C942B07E6E8F5E0C895E0
:100EF000601509F468940EF493940E942A010EF090
:100F00000C948A070E944001E4E2F3E00E94C503CA
:100F10000C9490070E944001EEE2F3E00E94C503AA
:100F2000551B442733272227292D0EE1402E01E0AF
:100F3000502E0E94CD0353636F72653AC0120000B9
:100F400000ED302E08E00F933F9200E3302E06E0D4
:100F50003A94F1F73A940A95D9F73F900F913A9461
:100F600091F70A9581F70E944001E8E8F5E00E94B8
:100F7000C503E4E9F5E020E40E944C010E94C503AA
:100F80000E94E1000E94900B622F207809F00C94DF
:100F9000FD07683441F70E944001EEE9F5E00E9448
:100FA000C503E0EBF5E020E40E944C010E94C5037C
:100FB0000E94E1000E94900B622F207809F00C94AF
:100FC000FD07683441F70E944001EEEBF5E00E9416
:100FD000C503E8ECF5E020E40E944C010E94C50343
:100FE0000E94E1000E94900B622F207809F00C947F
:100FF000FD07683441F70C94B307E0EDF5E0C895C0
:10100000601509F468940EF493940E942A010EF07E
:101010000C9412080E944001E4E2F3E00E94C50330
:101020000C9418080E944001EEE2F3E00E94C50310
:10103000551B442733272227292D0EE1402E01E09E
:10104000502E0E94CD0353636F72653AC0120000A8
:1010500000ED302E08E00F933F9200E3302E06E0C3
:101060003A94F1F73A940A95D9F73F900F913A9450
:1010700091F70A9581F70E944001E2EDF5E00E94A8
:10108000C503E4EEF5E020E40E944C010E94C50394
:101090000E94E1000E94900B622F207809F00C94CE
:1010A0008508683441F70E944001E4EFF5E00E94B2
:1010B000C503E6E0F6E020E40E944C010E94C5036F
:1010C0000E94E1000E94900B622F207809F00C949E
:1010D0008508683441F70E944001E6E1F6E00E948D
:1010E000C503E4E2F6E020E40E944C010E94C5033F
:1010F0000E94E1000E94900B622F207809F00C946E
:101100008508683441F70C943B08EEE2F6E0C89598
:10111000601509F468940EF493940E942A010EF06D
:101120000C949A080E944001E4E2F3E00E94C50397
:101130000C94A0080E944001EEE2F3E00E94C50377
:10114000551B442733272227292D0EE1402E01E08D
:10115000502E0E94CD0353636F72653AC012000097
:1011600000ED302E08E00F933F9200E3302E06E0B2
:101170003A94F1F73A940A95D9F73F900F913A943F
:1011800091F70A9581F70E944001E0E3F6E00E94A2
:10119000C503EEE3F6E020E40E944C010E94C50383
:1011A0000E94E1000E94900B622F207809F00C94BD
:1011B0000D09683441F70E944001EAE4F6E00E941C
:1011C000C503ECE5F6E020E40E944C010E94C50353
:1011D0000E94E1000E94900B622F207809F00C948D
:1011E0000D09683441F70E944001E8E6F6E00E94EC
:1011F000C503E2E7F6E020E40E944C010E94C5032B
:101200000E94E1000E94900B622F207809F00C945C
:101210000D09683441F70C94C308ECE7F6E0C89573
:10122000601509F468940EF493940E942A010EF05C
:101230000C9422090E944001E4E2F3E00E94C503FD
:101240000C9428090E944001EEE2F3E00E94C503DD
:10125000551B442733272227292D0EE1402E01E07C
:10126000502E0E94CD0353636F72653AC012000086
:1012700000ED302E08E00F933F9200E3302E06E0A1
:101280003A94F1F73A940A95D9F73F900F913A942E
:1012900091F70A9581F70E944001EEE7F6E00E947F
:1012A000C503E0E9F6E020E40E944C010E94C5037A
:1012B0000E94E1000E94900B622F207809F00C94AC
:1012C0009509683441F70E944001EEE9F6E00E947A
:1012D000C503E6EAF6E020E40E944C010E94C50343
:1012E0000E94E1000E94900B622F207809F00C947C
:1012F0009509683441F70E944001E4EBF6E00E9452
:10130000C503EEEBF6E020E40E944C010E94C50309
:101310000E94E1000E94900B622F207809F00C944B
:101320009509683441F70C944B09E0EDF6E0C89557
:10133000601509F468940EF493940E942A010EF04B
:101340000C94AA090E944001E4E2F3E00E94C50364
:101350000C94B0090E944001EEE2F3E00E94C50344
:10136000551B442733272227292D0EE1402E01E06B
:10137000502E0E94CD0353636F72653AC012000075
:1013800000ED302E08E00F933F9200E3302E06E090
:101390003A94F1F73A940A95D9F73F900F913A941D
:1013A00091F70A9581F70E944001E2EDF6E00E9474
:1013B000C503E2EEF6E020E40E944C010E94C50362
:1013C0000E94E1000E94900B622F207809F00C949B
:1013D0001D0A683441F70E944001E4EFF6E00E94E4
:1013E000C503E6E0F7E020E40E944C010E94C5033B
:1013F0000E94E1000E94900B622F207809F00C946B
:101400001D0A683441F70E944001E4E1F7E00E94C0
:10141000C503ECE1F7E020E40E944C010E94C50303
:101420000E94E1000E94900B622F207809F00C943A
:101430001D0A683441F70C94D309EEE2F7E0C89531
:10144000601509F468940EF493940E942A010EF03A
:101450000C94320A0E944001E4E2F3E00E94C503CA
:101460000C94380A0E944001EEE2F3E00E94C503AA
:10147000551B442733272227292D0EE1402E01E05A
:10148000502E0E94CD0353636F72653AC012000064
:1014900000ED302E08E00F933F9200E3302E06E07F
:1014A0003A94F1F73A940A95D9F73F900F913A940C
:1014B00091F70A9581F70E944001E0E3F7E00E946E
:1014C000C503EEE3F7E020E40E944C010E94C5034F
:1014D0000E94E1000E94900B622F207809F00C948A
:1014E000A50A683441F70E944001EAE4F7E00E944F
:1014F000C503E8E5F7E020E40E944C010E94C50323
:101500000E94E1000E94900B622F207809F00C9459
:10151000A50A683441F70E944001EAE6F7E00E941C
:10152000C503E8E7F7E020E40E944C010E94C503F0
:101530000E94E1000E94900B622F207809F00C9429
:10154000A50A683441F70C945B0AE8E8F7E0C8950F
:10155000601509F468940EF493940E942A010EF029
:101560000C94BA0A0E944001E4E2F3E00E94C50331
:101570000C94C00A0E944001EEE2F3E00E94C50311
:10158000551B442733272227292D0EE1402E01E049
:10159000502E0E94CD0353636F72653AC012000053
:1015A00000ED302E08E00F933F9200E3302E06E06E
:1015B0003A94F1F73A940A95D9F73F900F913A94FB
:1015C00091F70A9581F705E0901610F40C942A0B18
:1015D0000E944001ECE6F3E00E94C503ECE7F3E073
:1015E00020E40E944C010E94C50300ED302E08E06B
:1015F0000F933F9200E3302E06E03A94F1F73A94CD
:101600000A95D9F73F900F913A9491F70A9581F78F
:101610000E944001E6E5F3E00E94C503E0E6F3E046
:1016200020E40E944C010E94C50300EA302E00E134
:101630000F933F9200E3302E06E03A94F1F73A948C
:101640000A95D9F73F900F913A9491F70A9581F74F
:101650000C9408050E944001E4E8F3E00E94C503F1
:10166000EEE8F3E020E40E944C010E94C50300ED87
:10167000302E08E00F933F9200E3302E06E03A94BC
:10168000F1F73A940A95D9F73F900F913A9491F770
:101690000A9581F70C9408050E944001E0E0F3E010
:1016A0000E94C503E6E1F3E020E40E944C010E94A1
:1016B000C50300ED302E08E00F933F9200E3302E7B
:1016C00006E03A94F1F73A940A95D9F73F900F91D2
:1016D0003A9491F70A9581F70C9408050E9440010D
:1016E000E2E0F4E00E94C503EEE0F4E020E40E94B2
:1016F0004C010E94C50300ED302E08E00F933F928D
:1017000000E3302E06E03A94F1F73A940A95D9F7BF
:101710003F900F913A9491F70A9581F70C94DC046D
:0C17200008E1801609F40C94DC04089524
:00000001FF
